{"abi":[{"type":"function","name":"a","inputs":[],"outputs":[],"stateMutability":"payable"},{"type":"function","name":"allowance","inputs":[{"name":"","type":"address","internalType":"address"},{"name":"","type":"address","internalType":"address"}],"outputs":[{"name":"","type":"uint256","internalType":"uint256"}],"stateMutability":"view"},{"type":"function","name":"approve","inputs":[{"name":"guy","type":"address","internalType":"address"},{"name":"wad","type":"uint256","internalType":"uint256"}],"outputs":[{"name":"","type":"bool","internalType":"bool"}],"stateMutability":"nonpayable"},{"type":"function","name":"balanceOf","inputs":[{"name":"","type":"address","internalType":"address"}],"outputs":[{"name":"","type":"uint256","internalType":"uint256"}],"stateMutability":"view"},{"type":"function","name":"decimals","inputs":[],"outputs":[{"name":"","type":"uint8","internalType":"uint8"}],"stateMutability":"view"},{"type":"function","name":"deposit","inputs":[],"outputs":[],"stateMutability":"payable"},{"type":"function","name":"name","inputs":[],"outputs":[{"name":"","type":"string","internalType":"string"}],"stateMutability":"view"},{"type":"function","name":"symbol","inputs":[],"outputs":[{"name":"","type":"string","internalType":"string"}],"stateMutability":"view"},{"type":"function","name":"totalSupply","inputs":[],"outputs":[{"name":"","type":"uint256","internalType":"uint256"}],"stateMutability":"view"},{"type":"function","name":"transfer","inputs":[{"name":"dst","type":"address","internalType":"address"},{"name":"wad","type":"uint256","internalType":"uint256"}],"outputs":[{"name":"","type":"bool","internalType":"bool"}],"stateMutability":"nonpayable"},{"type":"function","name":"transferFrom","inputs":[{"name":"src","type":"address","internalType":"address"},{"name":"dst","type":"address","internalType":"address"},{"name":"wad","type":"uint256","internalType":"uint256"}],"outputs":[{"name":"","type":"bool","internalType":"bool"}],"stateMutability":"nonpayable"},{"type":"function","name":"withdraw","inputs":[{"name":"wad","type":"uint256","internalType":"uint256"}],"outputs":[],"stateMutability":"nonpayable"},{"type":"event","name":"Approval","inputs":[{"name":"src","type":"address","indexed":true,"internalType":"address"},{"name":"guy","type":"address","indexed":true,"internalType":"address"},{"name":"wad","type":"uint256","indexed":false,"internalType":"uint256"}],"anonymous":false},{"type":"event","name":"Deposit","inputs":[{"name":"dst","type":"address","indexed":true,"internalType":"address"},{"name":"wad","type":"uint256","indexed":false,"internalType":"uint256"}],"anonymous":false},{"type":"event","name":"Transfer","inputs":[{"name":"src","type":"address","indexed":true,"internalType":"address"},{"name":"dst","type":"address","indexed":true,"internalType":"address"},{"name":"wad","type":"uint256","indexed":false,"internalType":"uint256"}],"anonymous":false},{"type":"event","name":"Withdrawal","inputs":[{"name":"src","type":"address","indexed":true,"internalType":"address"},{"name":"wad","type":"uint256","indexed":false,"internalType":"uint256"}],"anonymous":false}],"bytecode":{"object":"0x608060405234610022576100116101bd565b6040516108b06101dd82396108b090f35b5f80fd5b634e487b7160e01b5f52602260045260245ffd5b906001600283049216801561005a575b602083101461005557565b610026565b91607f169161004a565b915f1960089290920291821b911b5b9181191691161790565b61008a61008a61008a9290565b90565b919061009e61008a6100a69361007d565b908354610064565b9055565b6100b5915f9161008d565b565b8181106100c2575050565b806100cf5f6001936100aa565b016100b7565b9190601f81116100e457505050565b6100f46100b5935f5260205f2090565b906020601f840181900483019310610116575b6020601f9091010401906100b7565b9091508190610107565b610135600b61012f835461003a565b836100d5565b7f5772617070656420424e420000000000000000000000000000000000000000169055565b6100b590610120565b610172600461012f835461003a565b6008632ba1272160e11b019055565b6100b590610163565b9060ff90610073565b6101a061008a61008a9290565b60ff1690565b906101b661008a6100a692610193565b825461018a565b6101c65f61015a565b6101d06001610181565b6100b5601260026101a656fe60806040526004361015610011575f80fd5b5f3560e01c806306fdde03146100d0578063095ea7b3146100cb5780630dbe671f146100c657806318160ddd146100c157806323b872dd146100bc5780632e1a7d4d146100b7578063313ce567146100b257806370a08231146100ad57806395d89b41146100a8578063a9059cbb146100a3578063d0e30db01461009e5763dd62ed3e036100d557610579565b61052b565b61050f565b6104f4565b6104ce565b610425565b6103e9565b6103b9565b610364565b61034c565b61031e565b610292565b5f80fd5b5f9103126100d557565b634e487b7160e01b5f525f60045260245ffd5b634e487b7160e01b5f52602260045260245ffd5b906001600283049216801561012a575b602083101461012557565b6100f6565b91607f169161011a565b80545f9392916101506101468361010a565b8085529360200190565b916001811690811561019f575060011461016957505050565b61017a91929394505f5260205f2090565b915f925b81841061018b5750500190565b80548484015260209093019260010161017e565b92949550505060ff1916825215156020020190565b906101be91610134565b90565b634e487b7160e01b5f52604160045260245ffd5b90601f01601f1916810190811067ffffffffffffffff8211176101f757604052565b6101c1565b9061021d6102169261020d60405190565b938480926101b4565b03836101d5565b565b905f1061022f576101be906101fc565b6100e3565b6101be5f8061021f565b90825f9392825e0152565b61026a61027360209361027d9361025e815190565b80835293849260200190565b9586910161023e565b601f01601f191690565b0190565b60208082526101be92910190610249565b346100d5576102a23660046100d9565b6102b96102ad610234565b60405191829182610281565b0390f35b6001600160a01b031690565b6001600160a01b0381165b036100d557565b9050359061021d826102c9565b806102d4565b9050359061021d826102e8565b91906040838203126100d5576101be90602061031782866102db565b94016102ee565b346100d5576102b961033a6103343660046102fb565b906105b6565b60405191829182901515815260200190565b6103573660046100d9565b61035f610616565b604051005b346100d5576103743660046100d9565b6102b961037f61061e565b6040515b9182918290815260200190565b90916060828403126100d5576101be6103a984846102db565b93604061031782602087016102db565b346100d5576102b961033a6103cf366004610390565b9161067f565b906020828203126100d5576101be916102ee565b346100d55761035f6103fc3660046103d5565b610772565b6101be916008021c60ff1690565b906101be9154610401565b6101be5f600261040f565b346100d5576104353660046100d9565b6102b961044061041a565b6040519182918260ff909116815260200190565b906020828203126100d5576101be916102db565b6101be906102bd906001600160a01b031682565b6101be90610468565b6101be9061047c565b9061049890610485565b5f5260205260405f2090565b6101be916008021c81565b906101be91546104a4565b5f6104c96101be92600361048e565b6104af565b346100d5576102b961037f6104e4366004610454565b6104ba565b6101be5f600161021f565b346100d5576105043660046100d9565b6102b96102ad6104e9565b346100d5576102b961033a6105253660046102fb565b9061080e565b6105363660046100d9565b61035f610819565b91906040838203126100d5576101be90602061055a82866102db565b94016102db565b6104c96101be926105745f93600461048e565b61048e565b346100d5576102b961037f61058f36600461053e565b90610561565b6101be6101be6101be9290565b906101be6101be6105b292610595565b9055565b6105ce826105c98361057433600461048e565b6105a2565b7f8c5be1e5ebec7d5bd14f71427d1e84f3dd0314c0f7b2291e5b200ac8c7c3b92561060e6106046105fe33610485565b93610485565b9361038360405190565b0390a3600190565b61021d610819565b61062730610485565b3190565b6101be9081565b6101be905461062b565b156100d557565b634e487b7160e01b5f52601160045260245ffd5b9190610662565b9290565b820391821161066d57565b610643565b9190820180921161066d57565b61060e6106046105fe7fddf252ad1be2c89b69c2b068fc378daa952ba7f163c4a11628f55a4df523b3ef936106b15f90565b5061072a6107188760036106e28b6106db6106d761065e6106d28a8761048e565b610632565b9190565b101561063c565b336001600160a01b0386160361072f575b610574610700868361048e565b6107128d61070d83610632565b610657565b906105a2565b6107128961072583610632565b610672565b610485565b6107518b6106db6106d761065e6106d261074a8b600461048e565b339061048e565b61076261070061074a87600461048e565b6106f3565b6040513d5f823e3d90fd5b61078a6107836106d233600361048e565b82906106db565b6107a561079833600361048e565b6107128361070d83610632565b5f808080846107b661072a33610485565b828215610805575bf115610800577f7fcf532c15f0a6db0bd6d0e038bea71d30d808c7d98cb3bf7268a95bf5081b656107fb6107f133610485565b9261038360405190565b0390a2565b610767565b506108fc6107be565b6101be91903361067f565b61083a61082733600361048e565b61071261083382610632565b3490610672565b61084333610485565b7fe1fffcc4923d04b559f4d29a8bfc6cda04eb5b0d3c460751c2402c5c5cc9109c61086d60405190565b34815280602081016107fb56fea26469706673582212208a1ca50a741b7268ee129e79aade4f21b0a9a1389bef1b2629327def7d1b930f64736f6c634300081c0033","linkReferences":{}},"methodIdentifiers":{"a()":"0dbe671f","allowance(address,address)":"dd62ed3e","approve(address,uint256)":"095ea7b3","balanceOf(address)":"70a08231","decimals()":"313ce567","deposit()":"d0e30db0","name()":"06fdde03","symbol()":"95d89b41","totalSupply()":"18160ddd","transfer(address,uint256)":"a9059cbb","transferFrom(address,address,uint256)":"23b872dd","withdraw(uint256)":"2e1a7d4d"},"storageLayout":{"storage":[{"astId":68263,"contract":"test/mock/WBNB.sol:WBNB","label":"name","offset":0,"slot":"0","type":"t_string_storage"},{"astId":68266,"contract":"test/mock/WBNB.sol:WBNB","label":"symbol","offset":0,"slot":"1","type":"t_string_storage"},{"astId":68269,"contract":"test/mock/WBNB.sol:WBNB","label":"decimals","offset":0,"slot":"2","type":"t_uint8"},{"astId":68301,"contract":"test/mock/WBNB.sol:WBNB","label":"balanceOf","offset":0,"slot":"3","type":"t_mapping(t_address,t_uint256)"},{"astId":68307,"contract":"test/mock/WBNB.sol:WBNB","label":"allowance","offset":0,"slot":"4","type":"t_mapping(t_address,t_mapping(t_address,t_uint256))"}],"types":{"t_address":{"encoding":"inplace","label":"address","numberOfBytes":"20"},"t_mapping(t_address,t_mapping(t_address,t_uint256))":{"encoding":"mapping","key":"t_address","label":"mapping(address => mapping(address => uint256))","numberOfBytes":"32","value":"t_mapping(t_address,t_uint256)"},"t_mapping(t_address,t_uint256)":{"encoding":"mapping","key":"t_address","label":"mapping(address => uint256)","numberOfBytes":"32","value":"t_uint256"},"t_string_storage":{"encoding":"bytes","label":"string","numberOfBytes":"32"},"t_uint256":{"encoding":"inplace","label":"uint256","numberOfBytes":"32"},"t_uint8":{"encoding":"inplace","label":"uint8","numberOfBytes":"1"}}},"id":169}