{"abi":[{"type":"function","name":"DEFAULT_ADMIN_ROLE","inputs":[],"outputs":[{"name":"","type":"bytes32","internalType":"bytes32"}],"stateMutability":"view"},{"type":"function","name":"ROLE_MANAGER","inputs":[],"outputs":[{"name":"","type":"bytes32","internalType":"bytes32"}],"stateMutability":"view"},{"type":"function","name":"ROLE_PAUSER","inputs":[],"outputs":[{"name":"","type":"bytes32","internalType":"bytes32"}],"stateMutability":"view"},{"type":"function","name":"ROLE_UPGRADER","inputs":[],"outputs":[{"name":"","type":"bytes32","internalType":"bytes32"}],"stateMutability":"view"},{"type":"function","name":"UPGRADE_INTERFACE_VERSION","inputs":[],"outputs":[{"name":"","type":"string","internalType":"string"}],"stateMutability":"view"},{"type":"function","name":"check","inputs":[],"outputs":[{"name":"","type":"bool","internalType":"bool"}],"stateMutability":"view"},{"type":"function","name":"getAssetRegistry","inputs":[],"outputs":[{"name":"","type":"address","internalType":"address"}],"stateMutability":"view"},{"type":"function","name":"getClisBnbAddress","inputs":[],"outputs":[{"name":"","type":"address","internalType":"address"}],"stateMutability":"view"},{"type":"function","name":"getHelioProviderAddress","inputs":[],"outputs":[{"name":"","type":"address","internalType":"address"}],"stateMutability":"view"},{"type":"function","name":"getRoleAdmin","inputs":[{"name":"role","type":"bytes32","internalType":"bytes32"}],"outputs":[{"name":"","type":"bytes32","internalType":"bytes32"}],"stateMutability":"view"},{"type":"function","name":"getStakerGateway","inputs":[],"outputs":[{"name":"","type":"address","internalType":"address"}],"stateMutability":"view"},{"type":"function","name":"getWBNBAddress","inputs":[],"outputs":[{"name":"","type":"address","internalType":"address"}],"stateMutability":"view"},{"type":"function","name":"grantRole","inputs":[{"name":"role","type":"bytes32","internalType":"bytes32"},{"name":"account","type":"address","internalType":"address"}],"outputs":[],"stateMutability":"nonpayable"},{"type":"function","name":"hasRole","inputs":[{"name":"role","type":"bytes32","internalType":"bytes32"},{"name":"account","type":"address","internalType":"address"}],"outputs":[{"name":"","type":"bool","internalType":"bool"}],"stateMutability":"view"},{"type":"function","name":"initialize","inputs":[{"name":"adminAddr","type":"address","internalType":"address"},{"name":"wbnbAddress","type":"address","internalType":"address"}],"outputs":[],"stateMutability":"nonpayable"},{"type":"function","name":"isFunctionalityPaused","inputs":[{"name":"key","type":"string","internalType":"string"},{"name":"includeProtocol","type":"bool","internalType":"bool"}],"outputs":[{"name":"","type":"bool","internalType":"bool"}],"stateMutability":"view"},{"type":"function","name":"isProtocolPaused","inputs":[],"outputs":[{"name":"","type":"bool","internalType":"bool"}],"stateMutability":"view"},{"type":"function","name":"pauseFunctionality","inputs":[{"name":"key","type":"string","internalType":"string"}],"outputs":[],"stateMutability":"nonpayable"},{"type":"function","name":"proxiableUUID","inputs":[],"outputs":[{"name":"","type":"bytes32","internalType":"bytes32"}],"stateMutability":"view"},{"type":"function","name":"renounceRole","inputs":[{"name":"role","type":"bytes32","internalType":"bytes32"},{"name":"callerConfirmation","type":"address","internalType":"address"}],"outputs":[],"stateMutability":"nonpayable"},{"type":"function","name":"requireFunctionalityVaultsDepositNotPaused","inputs":[],"outputs":[],"stateMutability":"view"},{"type":"function","name":"requireFunctionalityVaultsWithdrawNotPaused","inputs":[],"outputs":[],"stateMutability":"view"},{"type":"function","name":"requireRoleAdmin","inputs":[{"name":"addr","type":"address","internalType":"address"}],"outputs":[],"stateMutability":"view"},{"type":"function","name":"requireRoleManager","inputs":[{"name":"addr","type":"address","internalType":"address"}],"outputs":[],"stateMutability":"view"},{"type":"function","name":"requireRoleUpgrader","inputs":[{"name":"addr","type":"address","internalType":"address"}],"outputs":[],"stateMutability":"view"},{"type":"function","name":"revokeRole","inputs":[{"name":"role","type":"bytes32","internalType":"bytes32"},{"name":"account","type":"address","internalType":"address"}],"outputs":[],"stateMutability":"nonpayable"},{"type":"function","name":"setAddress","inputs":[{"name":"key","type":"string","internalType":"string"},{"name":"addr","type":"address","internalType":"address"}],"outputs":[],"stateMutability":"nonpayable"},{"type":"function","name":"supportsInterface","inputs":[{"name":"interfaceId","type":"bytes4","internalType":"bytes4"}],"outputs":[{"name":"","type":"bool","internalType":"bool"}],"stateMutability":"view"},{"type":"function","name":"unpauseFunctionality","inputs":[{"name":"key","type":"string","internalType":"string"}],"outputs":[],"stateMutability":"nonpayable"},{"type":"function","name":"upgradeToAndCall","inputs":[{"name":"newImplementation","type":"address","internalType":"address"},{"name":"data","type":"bytes","internalType":"bytes"}],"outputs":[],"stateMutability":"payable"},{"type":"function","name":"version","inputs":[],"outputs":[{"name":"","type":"string","internalType":"string"}],"stateMutability":"pure"},{"type":"event","name":"FunctionalityPaused","inputs":[{"name":"key","type":"string","indexed":false,"internalType":"string"}],"anonymous":false},{"type":"event","name":"FunctionalityUnpaused","inputs":[{"name":"key","type":"string","indexed":false,"internalType":"string"}],"anonymous":false},{"type":"event","name":"Initialized","inputs":[{"name":"version","type":"uint64","indexed":false,"internalType":"uint64"}],"anonymous":false},{"type":"event","name":"RoleAdminChanged","inputs":[{"name":"role","type":"bytes32","indexed":true,"internalType":"bytes32"},{"name":"previousAdminRole","type":"bytes32","indexed":true,"internalType":"bytes32"},{"name":"newAdminRole","type":"bytes32","indexed":true,"internalType":"bytes32"}],"anonymous":false},{"type":"event","name":"RoleGranted","inputs":[{"name":"role","type":"bytes32","indexed":true,"internalType":"bytes32"},{"name":"account","type":"address","indexed":true,"internalType":"address"},{"name":"sender","type":"address","indexed":true,"internalType":"address"}],"anonymous":false},{"type":"event","name":"RoleRevoked","inputs":[{"name":"role","type":"bytes32","indexed":true,"internalType":"bytes32"},{"name":"account","type":"address","indexed":true,"internalType":"address"},{"name":"sender","type":"address","indexed":true,"internalType":"address"}],"anonymous":false},{"type":"event","name":"SetContract","inputs":[{"name":"key","type":"string","indexed":false,"internalType":"string"},{"name":"addr","type":"address","indexed":false,"internalType":"address"}],"anonymous":false},{"type":"event","name":"Upgraded","inputs":[{"name":"implementation","type":"address","indexed":true,"internalType":"address"}],"anonymous":false},{"type":"error","name":"AccessControlBadConfirmation","inputs":[]},{"type":"error","name":"AccessControlUnauthorizedAccount","inputs":[{"name":"account","type":"address","internalType":"address"},{"name":"neededRole","type":"bytes32","internalType":"bytes32"}]},{"type":"error","name":"AddressEmptyCode","inputs":[{"name":"target","type":"address","internalType":"address"}]},{"type":"error","name":"ERC1967InvalidImplementation","inputs":[{"name":"implementation","type":"address","internalType":"address"}]},{"type":"error","name":"ERC1967NonPayable","inputs":[]},{"type":"error","name":"FailedInnerCall","inputs":[]},{"type":"error","name":"FunctionalityIsPaused","inputs":[{"name":"","type":"string","internalType":"string"}]},{"type":"error","name":"InvalidArgument","inputs":[{"name":"","type":"string","internalType":"string"}]},{"type":"error","name":"InvalidInitialization","inputs":[]},{"type":"error","name":"InvalidZeroAddress","inputs":[]},{"type":"error","name":"NotAdmin","inputs":[]},{"type":"error","name":"NotInitializing","inputs":[]},{"type":"error","name":"NotManager","inputs":[]},{"type":"error","name":"NotStored","inputs":[{"name":"","type":"string","internalType":"string"}]},{"type":"error","name":"NotUpgrader","inputs":[]},{"type":"error","name":"ProtocolIsPaused","inputs":[]},{"type":"error","name":"UUPSUnauthorizedCallContext","inputs":[]},{"type":"error","name":"UUPSUnsupportedProxiableUUID","inputs":[{"name":"slot","type":"bytes32","internalType":"bytes32"}]}],"bytecode":{"object":"0x60a06040523461003257610011610036565b604051611fe56101c882396080518181816116bf01526118570152611fe590f35b5f80fd5b61003e610040565b565b61003e61004b610053565b61003e61011a565b61003e61003e61003e610096565b61007590610078906001600160a01b031682565b90565b6001600160a01b031690565b61007590610061565b61007590610084565b61009f3061008d565b608052565b6100759060401c60ff1690565b61007590546100a4565b610075905b6001600160401b031690565b61007590546100bb565b610075906100c0906001600160401b031682565b906100fa610075610116926100d6565b82546001600160401b0319166001600160401b03919091161790565b9055565b7ff0c57e16840df040f15088dc2f81fe391c3923bec73e23a9662efc9c229c6a00610144816100b1565b6101b657610151816100cc565b6001600160401b0391908290811603610168575050565b816101977fc7f505b2f371ae2175ee4913f4499e1f2633a7b5936321eed1cdaeb6115181d2936101b1936100ea565b604051918291826001600160401b03909116815260200190565b0390a1565b63f92ee8a960e01b5f908152600490fdfe60806040526004361015610011575f80fd5b5f3560e01c806301ffc9a71461020057806318c5b097146101fb578063248a9ca3146101f65780632f2ff15d146101f15780633405761a146101ec57806336568abe146101e75780633c8c73ad146101e2578063485cc955146101dd5780634f1ef286146101d857806352d1902d146101d357806354fd4d50146101ce57806356fa50d0146101c9578063575919e2146101c45780636fdf3e27146101bf57806375dd60c8146101ba5780637f918e7f146101b55780639051b398146101b0578063919840ad146101ab57806391d14854146101a65780639b2ea4bd146101a1578063a217fddf1461019c578063ad3cb1cc14610197578063b047eb0214610192578063c3e3cbf21461018d578063c9f3fd5414610188578063d4dbb50114610183578063d547741f1461017e578063dac8856114610179578063dbf8406214610174578063e0efcf551461016f5763f5b944eb036102055761090b565b6108f3565b6108d8565b6108bd565b6108a4565b61088b565b610873565b610857565b6107d4565b6107b9565b610759565b610722565b6106d0565b6106b5565b61069c565b61062c565b610614565b6105db565b6105c0565b6105a5565b61057d565b610512565b6104fe565b6103ed565b6103b9565b61038c565b610371565b610353565b6102e9565b61028d565b610246565b5f80fd5b6001600160e01b031981165b0361020557565b9050359061022982610209565b565b906020828203126102055761023f9161021c565b90565b9052565b346102055761027361026161025c36600461022b565b610944565b60405191829182901515815260200190565b0390f35b5f91031261020557565b6001600160a01b031690565b346102055761029d366004610277565b6102736102a86109b2565b604051918291826001600160a01b03909116815260200190565b80610215565b90503590610229826102c2565b906020828203126102055761023f916102c8565b34610205576102736103046102ff3660046102d5565b6109e1565b6040519182918290815260200190565b6001600160a01b038116610215565b9050359061022982610314565b91906040838203126102055761023f90602061034c82866102c8565b9401610323565b346102055761036c610366366004610330565b90610a31565b604051005b3461020557610381366004610277565b6102736102a8610a6f565b346102055761036c61039f366004610330565b90610a7a565b906020828203126102055761023f91610323565b346102055761036c6103cc3660046103a5565b610ac7565b91906040838203126102055761023f90602061034c8286610323565b346102055761036c6104003660046103d1565b90610da3565b634e487b7160e01b5f52604160045260245ffd5b90601f01601f191681019081106001600160401b0382111761043b57604052565b610406565b9061022961044d60405190565b928361041a565b6001600160401b03811161043b57602090601f01601f19160190565b0190565b90825f939282370152565b9092919261049461048f82610454565b610440565b938185528183011161020557610229916020850190610474565b9080601f830112156102055781602061023f9335910161047f565b919091604081840312610205576104e08382610323565b9260208201356001600160401b0381116102055761023f92016104ae565b61036c61050c3660046104c9565b90610dcd565b3461020557610522366004610277565b610273610304610e1a565b90825f9392825e0152565b6105596105626020936104709361054d815190565b80835293849260200190565b9586910161052d565b601f01601f191690565b602080825261023f92910190610538565b346102055761058d366004610277565b610273610598610e23565b6040515b9182918261056c565b34610205576105b5366004610277565b6102736102a8610e2b565b34610205576105d0366004610277565b6102736102a8610e64565b34610205576105eb366004610277565b6102737fa615a8afb6fffcb8c6809ac0997b5c9c12b8cc97651150f14c8f6203168cff4c610304565b346102055761036c6106273660046103a5565b610e87565b346102055761036c61063f3660046103a5565b610ed2565b909182601f83011215610205578135916001600160401b03831161020557602001926001830284011161020557565b906020828203126102055781356001600160401b038111610205576106989201610644565b9091565b346102055761036c6106af366004610673565b90610f38565b34610205576106c5366004610277565b61027361026161106f565b34610205576102736102616106e6366004610330565b9061111a565b916040838303126102055782356001600160401b038111610205578261071960209461023f938701610644565b94909501610323565b346102055761036c6107353660046106ec565b9161116c565b61023f61023f61023f9290565b61023f5f61073b565b61023f610748565b3461020557610769366004610277565b610273610304610751565b9061078161048f83610454565b918252565b6107906005610774565b640352e302e360dc1b602082015290565b61023f610786565b61023f6107a1565b61023f6107a9565b34610205576107c9366004610277565b6102736105986107b1565b34610205576107e4366004610277565b6102737f539440820030c4994db4e31b6b800deafd503688728f932addfe7a410515c14c610304565b801515610215565b905035906102298261080d565b9190604083820312610205578235906001600160401b0382116102055760206108508261023f9487016104ae565b9401610815565b346102055761027361026161086d366004610822565b906111a5565b3461020557610883366004610277565b61036c61120a565b346102055761036c61089e366004610673565b90611240565b346102055761036c6108b7366004610330565b90611265565b34610205576108cd366004610277565b61027361026161126f565b34610205576108e8366004610277565b6102736102a861127a565b3461020557610903366004610277565b61036c6112b9565b346102055761091b366004610277565b6102737faf290d8680820aad922855f39b306097b20e28774d6c1ad35a20325630c3a02c610304565b637965db0b60e01b6001600160e01b0319821614908115610963575090565b61023f91506001600160e01b0319166301ffc9a760e01b1490565b610988600e610774565b6d2422a624a7afa82927ab24a222a960911b602082015290565b61023f61097e565b61023f6109a2565b61023f6109bd6109aa565b61130d565b905b5f5260205260405f2090565b61023f9081565b61023f90546109d0565b6001610a0861023f926109f15f90565b505f5f516020611f905f395f51905f525b016109c2565b016109d7565b9061022991610a24610a1f826109e1565b611362565b90610a2e9161138d565b50565b9061022991610a0e565b610a45600e610774565b6d5354414b45525f4741544557415960901b602082015290565b61023f610a3b565b61023f610a5f565b61023f6109bd610a67565b90610a8433610281565b6001600160a01b03821603610a9c57610a2e9161141c565b63334bd91960e11b5f90815260045b035ffd5b15610ab657565b63520ba28160e11b5f908152600490fd5b610afa61022991610af57fa615a8afb6fffcb8c6809ac0997b5c9c12b8cc97651150f14c8f6203168cff4c90565b61111a565b610aaf565b61023f9060401c5b60ff1690565b61023f9054610aff565b61023f905b6001600160401b031690565b61023f9054610b17565b610b1c61023f61023f9290565b61023f90610281906001600160a01b031682565b61023f90610b3f565b61023f90610b53565b906001600160401b03905b9181191691161790565b610b1c61023f61023f926001600160401b031690565b90610ba061023f610ba792610b7a565b8254610b65565b9055565b9068ff00000000000000009060401b610b70565b90610bcf61023f610ba792151590565b8254610bab565b61024290610b32565b6020810192916102299190610bd6565b7ff0c57e16840df040f15088dc2f81fe391c3923bec73e23a9662efc9c229c6a00908190610c2c610c26610c2284610b0d565b1590565b92610b28565b93610c365f610b32565b6001600160401b0386161480610d36575b600195610c63610c5688610b32565b916001600160401b031690565b149081610d0e575b155b9081610d05575b50610cf457610c9d9183610c945f610c8b89610b32565b97019687610b90565b610ce557610d70565b610ca5575050565b7fc7f505b2f371ae2175ee4913f4499e1f2633a7b5936321eed1cdaeb6115181d291610cd45f610ce093610bbf565b60405191829182610bdf565b0390a1565b610cef8686610bbf565b610d70565b63f92ee8a960e01b5f908152600490fd5b1590505f610c74565b9050610c6d610d1c30610b5c565b3b610d2d610d295f61073b565b9190565b14919050610c6b565b5082610c47565b610d47600d610774565b6c15d0939097d0d3d395149050d5609a1b602082015290565b61023f610d3d565b61023f610d60565b90610d9561022992610d8061148f565b610d8861148f565b610d90610748565b61138d565b50610d9e610d68565b6115f6565b9061022991610bef565b9061022991610dba6116b4565b9061022991610dc881611754565b61177e565b9061022991610dad565b61023f90610de3611841565b610e11565b61023f7f360894a13ba1a3210667c828492db98dca3e2076cc3735a920a3ca505d382bbc61073b565b5061023f610de8565b61023f5f610dd7565b61023f6118ad565b61023f6109bd610d68565b610e406008610774565b6721a624a9afa1272160c11b602082015290565b61023f610e36565b61023f610e54565b61023f6109bd610e5c565b15610e7657565b63607e454560e11b5f908152600490fd5b610eb561022991610af57faf290d8680820aad922855f39b306097b20e28774d6c1ad35a20325630c3a02c90565b610e6f565b15610ec157565b637bfa4b9f60e01b5f908152600490fd5b610ee161022991610af5610748565b610eba565b6102299190610f147f539440820030c4994db4e31b6b800deafd503688728f932addfe7a410515c14c611362565b610f24565b61023f91369161047f565b610f3361022992600192610f19565b6118f2565b9061022991610ee6565b610f4c600e610774565b6d41535345545f524547495354525960901b602082015290565b61023f610f42565b61023f610f66565b61028161023f61023f9290565b61023f90610f76565b15610f9357565b60405163366f6fbb60e01b815260206004820152601d60248201527f417373657452656769737472792061646472657373206e6f7420736574000000604482015280606481015b0390fd5b15610fe557565b60405163366f6fbb60e01b815260206004820152601d60248201527f5374616b6572476174657761792061646472657373206e6f74207365740000006044820152606490fd5b1561103257565b60405163366f6fbb60e01b815260206004820152601460248201527315d09390881859191c995cdcc81b9bdd081cd95d60621b6044820152606490fd5b6110f861107d6109bd610f6e565b6110ac6110895f610f83565b916110a56001600160a01b0384165b916001600160a01b031690565b1415610f8c565b6110d36110ba6109bd610a67565b6110cc6001600160a01b038416611098565b1415610fde565b6110f16110986110e46109bd610d68565b926001600160a01b031690565b141561102b565b600190565b906109c490610b5c565b61023f90610b07565b61023f9054611107565b61023f915f6111426111489361112d5f90565b50825f516020611f905f395f51905f52610a02565b016110fd565b611110565b90610229929161115e610a1f610748565b6102299291610d9e91610f19565b90610229929161114d565b6111816008610774565b67141493d513d0d3d360c21b602082015290565b61023f611177565b61023f611195565b90806111bf575b6111b95761023f906119bd565b50600190565b506111d06111cb61119d565b6119bd565b6111ac565b6111df600f610774565b6e5641554c54535f574954484452415760881b602082015290565b61023f6111d5565b61023f6111fa565b611212611a0b565b61022961121d611202565b611a4c565b9061022991611232610a1f610748565b610f33610229925f92610f19565b9061022991611222565b906102299161125b610a1f826109e1565b90610a2e9161141c565b906102299161124a565b61023f6111cb61119d565b61023f6109bd610f6e565b61128f600e610774565b6d159055531514d7d1115413d4d25560921b602082015290565b61023f611285565b61023f6112a9565b6112c1611a0b565b61022961121d6112b1565b1490565b6104706112e8926020926112e2815190565b94859290565b9384910161052d565b61023f916112d0565b61023f90610281565b61023f90546112fa565b61135d61023f9161131b5f90565b5061134461132860405190565b80926113386020830191826112f1565b9081038252038261041a565b61135661134f825190565b9160200190565b205f6109c2565b611303565b610229903390611a7e565b9060ff90610b70565b9061138661023f610ba792151590565b825461136d565b5f516020611f905f395f51905f526113a8610c22848461111a565b156114155760016113c3845f61114286826113c897016109c2565b611376565b6113e26113dc6113d6339390565b93610b5c565b91610b5c565b917f2f8788117e7eff1d82e926ec794901d17c78024a50270940304540a733656f0d61140d60405190565b5f90a4600190565b5050505f90565b5f516020611f905f395f51905f52611434838361111a565b15611415575f6113c38482611142868261144e97016109c2565b61145c6113dc6113d6339390565b917ff6391f5c32d9c69d2a47ea670b442974b53935d1edc7fd64eb21e047a839171b61140d60405190565b610229611aac565b610229611487565b601191600c6114bf926114b8816b020b2323932b9b99035b2bc960a51b9052565b01906112d0565b70081a5cc81b9bdd081cdd5c1c1bdc9d1959607a1b81520190565b906102296114e760405190565b80936114f7602083019182611497565b9081038252038361041a565b1561150b5750565b610fda9061151860405190565b631fff1b3b60e21b81529182916004830161056c565b6017916018611560926114b8817f53657474696e67206164647265737320666f72206b65792000000000000000009052565b7f206973207065726d6974746564206f6e6c79206f6e636500000000000000000081520190565b9061022961159460405190565b80936114f760208301918261152e565b906001600160a01b0390610b70565b906115c361023f610ba792610b5c565b82546115a4565b929160206115e66102299360408701908782035f890152610538565b9401906001600160a01b03169052565b907fbf2cc7083b32d1f5c82633af784e1285df86eb43c88d0752feea4bebb4a0b6d29161169f8261169a61162960405190565b61163b816020810161133888826112f1565b61164661134f825190565b2061166261165382611b01565b61165c876114da565b90611503565b61166b83611b6f565b61169461167b61135d835f6109c2565b61168a6110986102815f610f83565b1461165c87611587565b5f6109c2565b6115b3565b610ce06116ab60405190565b928392836115ca565b6116bd30610b5c565b7f0000000000000000000000000000000000000000000000000000000000000000906116f16001600160a01b038316611098565b14908115611712575b5061170157565b63703e46dd60e11b5f908152600490fd5b90506117226110986110e4611b89565b14155f6116fa565b506102297fa615a8afb6fffcb8c6809ac0997b5c9c12b8cc97651150f14c8f6203168cff4c611362565b6102299061172a565b90505190610229826102c2565b906020828203126102055761023f9161175d565b9161179061178b84610b5c565b610b5c565b91602061179c60405190565b6352d1902d60e01b815293849060049082905afa5f9381611810575b506117db57634c9c8ce360e01b5f9081526001600160a01b038516600452602490fd5b9091926117e961023f610de8565b84036117fa57610229929350611b9e565b632a87526960e21b5f9081526004859052602490fd5b61183391945060203d60201161183a575b61182b818361041a565b81019061176a565b925f6117b8565b503d611821565b61184a30610b5c565b61187c6001600160a01b037f000000000000000000000000000000000000000000000000000000000000000016611098565b0361170157565b61188d600c610774565b6b2722ac2a2fab22a929a4a7a760a11b602082015290565b61023f611883565b61023f6118a5565b610b0761023f61023f9290565b61023f61023f61023f9260ff1690565b905f1990610b70565b906118eb61023f610ba79261073b565b82546118d2565b9080156119ae5761194d61190e61190960016118b5565b6118c2565b61191784611c49565b61194861192360405190565b611935816020810161133889826112f1565b61194061134f825190565b2060016109c2565b6118db565b1561198057610ce07f99f7dbb01c7c1f64264ee9db65591bd605a8653fd82c00a062dd85379e6f50f69161059c60405190565b610ce07f18a8972ab5bf86d1e1db51a195b07e1abf152366388baaae27e8ade690009af79161059c60405190565b61194d61190e6119095f6118b5565b6119e16119e6916119cb5f90565b506119d581611c49565b61193561132860405190565b6109d7565b6112cc610d29600161073b565b156119fa57565b632bc2c01360e21b5f908152600490fd5b610229611a1c610c226111cb61119d565b6119f3565b15611a295750565b610fda90611a3660405190565b630183710f60e11b81529182916004830161056c565b61022990611a5c610c22826119bd565b611a21565b6001600160a01b0390911681526040810192916102299160200152565b90611a8c610c22828461111a565b611a94575050565b63e2517d3f60e01b5f90815291610aab916004611a61565b611ab7610c22611c85565b611abd57565b631afcd79f60e31b5f908152600490fd5b634e487b7160e01b5f52603260045260245ffd5b90611aeb825190565b811015611afc576020809102010190565b611ace565b611b09611d3d565b90611b12825190565b91611b1c5f61073b565b83811015611b4f57611b3861023f611b348385611ae2565b5190565b8314611b4657600101611b1c565b50505050600190565b505050505f90565b15611b5e57565b63f6b2911f60e01b5f908152600490fd5b61022990611b826110986102815f610f83565b1415611b57565b61023f5f611b9861023f610de8565b01611303565b90611ba882611dcf565b611bb182610b5c565b7fbc7cd75a20ee27fd9adebab32041f755214dbc6bffa90cc0225b39da2e5c2d3b611bdb60405190565b5f90a28051611bec610d295f61073b565b1115611bfb57610a2e91611e58565b5050610229611e18565b60119160126114bf926114b881710233ab731ba34b7b730b634ba3c9035b2bc960751b9052565b90610229611c3960405190565b80936114f7602083019182611c05565b6102299061165c611c7f611c5c60405190565b611c6e816020810161133887826112f1565b611c7961134f825190565b20611e7e565b91611c2c565b61023f7ff0c57e16840df040f15088dc2f81fe391c3923bec73e23a9662efc9c229c6a00610b0d565b6001600160401b03811161043b5760208091020190565b9061078161048f83611cae565b369037565b90610229611ced611ce784611cc5565b93611cae565b601f190160208401611cd2565b611d02610f6e565b611d0e61132860405190565b611d1961134f825190565b2090565b611d02610e5c565b611d026109aa565b611d02610a67565b611d02610d68565b611d4f611d4a600561073b565b611cd7565b611d6f611d5a611cfa565b611d6c611d665f61073b565b84611ae2565b52565b611d87611d7a611d1d565b611d6c611d66600161073b565b611d9f611d92611d25565b611d6c611d66600261073b565b611db7611daa611d2d565b611d6c611d66600361073b565b61023f611dc2611d35565b611d6c611d66600461073b565b803b611ddd610d295f61073b565b14611df857610229905f611df261023f610de8565b016115b3565b634c9c8ce360e01b5f9081526001600160a01b039091166004526024035ffd5b611e215f61073b565b3411611e2957565b63b398979f60e01b5f908152600490fd5b3d15611e5357611e493d610774565b903d5f602084013e565b606090565b5f8061023f93611e66606090565b50602081519101845af4611e78611e3a565b91611ebf565b611e86611f34565b90611e8f825190565b91611e995f61073b565b83811015611b4f57611eb161023f611b348385611ae2565b8314611b4657600101611e99565b90611eca5750611f62565b8151611ed8610d295f61073b565b1480611f07575b611ee7575090565b639996b31560e01b5f9081526001600160a01b039091166004526024035ffd5b50803b611f16610d295f61073b565b14611edf565b611d0261119d565b611d026112b1565b611d02611202565b611f41611d4a600361073b565b611f4c611d5a611f1c565b611f57611d7a611f24565b61023f611d92611f2c565b8051611f70610d295f61073b565b1115611f7e57805190602001fd5b630a12f52160e11b5f908152600490fdfe02dd7bc7dec4dceedda775e58dd541e08a116c6c53815c0bd028192f7b626800a26469706673582212204bc1575e69feaa1b5a7b3db0eecd636d9914a44dcd07b88a03002a0ed5ca757564736f6c634300081c0033","linkReferences":{}},"methodIdentifiers":{"DEFAULT_ADMIN_ROLE()":"a217fddf","ROLE_MANAGER()":"f5b944eb","ROLE_PAUSER()":"b047eb02","ROLE_UPGRADER()":"6fdf3e27","UPGRADE_INTERFACE_VERSION()":"ad3cb1cc","check()":"919840ad","getAssetRegistry()":"dbf84062","getClisBnbAddress()":"575919e2","getHelioProviderAddress()":"18c5b097","getRoleAdmin(bytes32)":"248a9ca3","getStakerGateway()":"3405761a","getWBNBAddress()":"56fa50d0","grantRole(bytes32,address)":"2f2ff15d","hasRole(bytes32,address)":"91d14854","initialize(address,address)":"485cc955","isFunctionalityPaused(string,bool)":"c3e3cbf2","isProtocolPaused()":"dac88561","pauseFunctionality(string)":"9051b398","proxiableUUID()":"52d1902d","renounceRole(bytes32,address)":"36568abe","requireFunctionalityVaultsDepositNotPaused()":"e0efcf55","requireFunctionalityVaultsWithdrawNotPaused()":"c9f3fd54","requireRoleAdmin(address)":"7f918e7f","requireRoleManager(address)":"75dd60c8","requireRoleUpgrader(address)":"3c8c73ad","revokeRole(bytes32,address)":"d547741f","setAddress(string,address)":"9b2ea4bd","supportsInterface(bytes4)":"01ffc9a7","unpauseFunctionality(string)":"d4dbb501","upgradeToAndCall(address,bytes)":"4f1ef286","version()":"54fd4d50"},"storageLayout":{"storage":[{"astId":59007,"contract":"test/mock/upgradeability/KernelConfigUpgraded.sol:KernelConfigUpgraded","label":"addresses","offset":0,"slot":"0","type":"t_mapping(t_bytes32,t_address)"},{"astId":59012,"contract":"test/mock/upgradeability/KernelConfigUpgraded.sol:KernelConfigUpgraded","label":"functionalityIsPaused","offset":0,"slot":"1","type":"t_mapping(t_bytes32,t_uint256)"},{"astId":59017,"contract":"test/mock/upgradeability/KernelConfigUpgraded.sol:KernelConfigUpgraded","label":"__gap","offset":0,"slot":"2","type":"t_array(t_uint256)50_storage"}],"types":{"t_address":{"encoding":"inplace","label":"address","numberOfBytes":"20"},"t_array(t_uint256)50_storage":{"encoding":"inplace","label":"uint256[50]","numberOfBytes":"1600","base":"t_uint256"},"t_bytes32":{"encoding":"inplace","label":"bytes32","numberOfBytes":"32"},"t_mapping(t_bytes32,t_address)":{"encoding":"mapping","key":"t_bytes32","label":"mapping(bytes32 => address)","numberOfBytes":"32","value":"t_address"},"t_mapping(t_bytes32,t_uint256)":{"encoding":"mapping","key":"t_bytes32","label":"mapping(bytes32 => uint256)","numberOfBytes":"32","value":"t_uint256"},"t_uint256":{"encoding":"inplace","label":"uint256","numberOfBytes":"32"}}},"id":172}