{"abi":[{"type":"function","name":"sortAddresses","inputs":[{"name":"addresses","type":"address[]","internalType":"address[]"}],"outputs":[{"name":"","type":"address[]","internalType":"address[]"}],"stateMutability":"pure"}],"bytecode":{"object":"0x608060405234601d576040516103c36100228239308150506103c390f35b5f80fdfe60806040526004361015610011575f80fd5b5f3560e01c632f32ed5c146101b1575b5f80fd5b634e487b7160e01b5f52604160045260245ffd5b90601f01601f1916810190811067ffffffffffffffff82111761005b57604052565b610025565b9061007461006d60405190565b9283610039565b565b67ffffffffffffffff811161005b5760208091020190565b90565b6001600160a01b0381160361002157565b9050359061007482610091565b909291926100c46100bf82610076565b610060565b938185526020808601920283019281841161002157915b8383106100e85750505050565b602080916100f684866100a2565b8152019201916100db565b9080601f830112156100215781602061008e933591016100af565b9060208282031261002157813567ffffffffffffffff81116100215761008e9201610101565b9061016261015b610151845190565b8084529260200190565b9260200190565b905f5b8181106101725750505090565b90919261019861019160019286516001600160a01b0316815260200190565b9460200190565b929101610165565b602080825261008e92910190610142565b6101d36101c76101c236600461011c565b61024a565b604051918291826101a0565b0390f35b61008e61008e61008e9290565b634e487b7160e01b5f52601160045260245ffd5b9190820391821161020557565b6101e4565b634e487b7160e01b5f52603260045260245ffd5b90610227825190565b811015610238576020809102010190565b61020a565b9190820180921161020557565b908151916102575f6101d7565b600161026e61008e610268836101d7565b876101f8565b821015610386578061027f5f6101d7565b905b610290575b5050600101610257565b6102af61008e6102a085896101f8565b6102a9856101d7565b906101f8565b8110156103815761031d816102d56102c885948861021e565b516001600160a01b031690565b6103126103056102f96102c86102f36102ed896101d7565b8761023d565b8b61021e565b6001600160a01b031690565b916001600160a01b031690565b116103235760010190565b90610281565b61037b6103336102c8838961021e565b6103606103486102c86102f36102ed896101d7565b610352858b61021e565b906001600160a01b03169052565b61035261037561036f876101d7565b8561023d565b8961021e565b60010190565b610286565b509092505056fea26469706673582212205a3113307d03a4eeb765c14bbff5a35d7e0732747c33854b214fcfad342976e064736f6c634300081c0033","linkReferences":{}},"methodIdentifiers":{"sortAddresses(address[])":"2f32ed5c"},"storageLayout":{"storage":[],"types":{}},"id":0}