{"abi":[{"type":"receive","stateMutability":"payable"},{"type":"function","name":"UPGRADE_INTERFACE_VERSION","inputs":[],"outputs":[{"name":"","type":"string","internalType":"string"}],"stateMutability":"view"},{"type":"function","name":"balanceOf","inputs":[{"name":"asset","type":"address","internalType":"address"},{"name":"owner","type":"address","internalType":"address"}],"outputs":[{"name":"","type":"uint256","internalType":"uint256"}],"stateMutability":"view"},{"type":"function","name":"getConfig","inputs":[],"outputs":[{"name":"","type":"address","internalType":"address"}],"stateMutability":"view"},{"type":"function","name":"getVault","inputs":[{"name":"asset","type":"address","internalType":"address"}],"outputs":[{"name":"","type":"address","internalType":"address"}],"stateMutability":"view"},{"type":"function","name":"initialize","inputs":[{"name":"configAddr","type":"address","internalType":"address"}],"outputs":[],"stateMutability":"nonpayable"},{"type":"function","name":"proxiableUUID","inputs":[],"outputs":[{"name":"","type":"bytes32","internalType":"bytes32"}],"stateMutability":"view"},{"type":"function","name":"stake","inputs":[{"name":"asset","type":"address","internalType":"address"},{"name":"amount","type":"uint256","internalType":"uint256"},{"name":"referralId","type":"string","internalType":"string"}],"outputs":[],"stateMutability":"nonpayable"},{"type":"function","name":"stakeClisBNB","inputs":[{"name":"referralId","type":"string","internalType":"string"}],"outputs":[],"stateMutability":"payable"},{"type":"function","name":"stakeNative","inputs":[{"name":"referralId","type":"string","internalType":"string"}],"outputs":[],"stateMutability":"payable"},{"type":"function","name":"unstake","inputs":[{"name":"asset","type":"address","internalType":"address"},{"name":"amount","type":"uint256","internalType":"uint256"},{"name":"referralId","type":"string","internalType":"string"}],"outputs":[],"stateMutability":"nonpayable"},{"type":"function","name":"unstakeClisBNB","inputs":[{"name":"amount","type":"uint256","internalType":"uint256"},{"name":"referralId","type":"string","internalType":"string"}],"outputs":[],"stateMutability":"nonpayable"},{"type":"function","name":"unstakeNative","inputs":[{"name":"amount","type":"uint256","internalType":"uint256"},{"name":"referralId","type":"string","internalType":"string"}],"outputs":[],"stateMutability":"nonpayable"},{"type":"function","name":"upgradeToAndCall","inputs":[{"name":"newImplementation","type":"address","internalType":"address"},{"name":"data","type":"bytes","internalType":"bytes"}],"outputs":[],"stateMutability":"payable"},{"type":"function","name":"version","inputs":[],"outputs":[{"name":"","type":"string","internalType":"string"}],"stateMutability":"pure"},{"type":"event","name":"AssetStaked","inputs":[{"name":"staker","type":"address","indexed":true,"internalType":"address"},{"name":"asset","type":"address","indexed":true,"internalType":"address"},{"name":"amount","type":"uint256","indexed":false,"internalType":"uint256"},{"name":"referralId","type":"string","indexed":true,"internalType":"string"}],"anonymous":false},{"type":"event","name":"AssetUnstaked","inputs":[{"name":"staker","type":"address","indexed":true,"internalType":"address"},{"name":"asset","type":"address","indexed":true,"internalType":"address"},{"name":"amount","type":"uint256","indexed":false,"internalType":"uint256"},{"name":"referralId","type":"string","indexed":true,"internalType":"string"}],"anonymous":false},{"type":"event","name":"Initialized","inputs":[{"name":"version","type":"uint64","indexed":false,"internalType":"uint64"}],"anonymous":false},{"type":"event","name":"Upgraded","inputs":[{"name":"implementation","type":"address","indexed":true,"internalType":"address"}],"anonymous":false},{"type":"error","name":"AddressEmptyCode","inputs":[{"name":"target","type":"address","internalType":"address"}]},{"type":"error","name":"AddressInsufficientBalance","inputs":[{"name":"account","type":"address","internalType":"address"}]},{"type":"error","name":"CannotReceiveNativeTokens","inputs":[]},{"type":"error","name":"ERC1967InvalidImplementation","inputs":[{"name":"implementation","type":"address","internalType":"address"}]},{"type":"error","name":"ERC1967NonPayable","inputs":[]},{"type":"error","name":"FailedInnerCall","inputs":[]},{"type":"error","name":"InvalidArgument","inputs":[{"name":"","type":"string","internalType":"string"}]},{"type":"error","name":"InvalidInitialization","inputs":[]},{"type":"error","name":"InvalidZeroAddress","inputs":[]},{"type":"error","name":"NotInitializing","inputs":[]},{"type":"error","name":"ReentrancyGuardReentrantCall","inputs":[]},{"type":"error","name":"SafeERC20FailedOperation","inputs":[{"name":"token","type":"address","internalType":"address"}]},{"type":"error","name":"UUPSUnauthorizedCallContext","inputs":[]},{"type":"error","name":"UUPSUnsupportedProxiableUUID","inputs":[{"name":"slot","type":"bytes32","internalType":"bytes32"}]},{"type":"error","name":"UnstakeFailed","inputs":[{"name":"","type":"string","internalType":"string"}]}],"bytecode":{"object":"0x60a06040523461003257610011610036565b604051611c836101d182396080518181816115dd015261177e0152611c8390f35b5f80fd5b61003e610040565b565b61003e61004b610053565b61003e610123565b61003e61003e61003e61004b61003e61003e61009f565b61007e90610081906001600160a01b031682565b90565b6001600160a01b031690565b61007e9061006a565b61007e9061008d565b6100a830610096565b608052565b61007e9060401c60ff1690565b61007e90546100ad565b61007e905b6001600160401b031690565b61007e90546100c4565b61007e906100c9906001600160401b031682565b9061010361007e61011f926100df565b82546001600160401b0319166001600160401b03919091161790565b9055565b7ff0c57e16840df040f15088dc2f81fe391c3923bec73e23a9662efc9c229c6a0061014d816100ba565b6101bf5761015a816100d5565b6001600160401b0391908290811603610171575050565b816101a07fc7f505b2f371ae2175ee4913f4499e1f2633a7b5936321eed1cdaeb6115181d2936101ba936100f3565b604051918291826001600160401b03909116815260200190565b0390a1565b63f92ee8a960e01b5f908152600490fdfe60806040526004361015610022575b3615610018575f80fd5b610020611290565b005b5f3560e01c80630eb9af381461010157806310ce2626146100fc5780634693cf07146100f75780634df42566146100f25780634f1ef286146100ed57806352d1902d146100e857806354fd4d50146100e3578063711848a8146100de578063ad3cb1cc146100d9578063c3f909d4146100d4578063c412056b146100cf578063c4d66de8146100ca578063f7888aec146100c55763f91daa330361000e57610579565b61055d565b610522565b61050e565b6104f3565b6104d8565b61047a565b610453565b6103d7565b6103b9565b6102a2565b610247565b6101e5565b610152565b6001600160a01b031690565b90565b6001600160a01b0381165b0361012757565b5f80fd5b9050359061013882610115565b565b90602082820312610127576101129161012b565b9052565b346101275761018761016d61016836600461013a565b610595565b604051918291826001600160a01b03909116815260200190565b0390f35b909182601f830112156101275781359167ffffffffffffffff831161012757602001926001830284011161012757565b9060208282031261012757813567ffffffffffffffff8111610127576101e1920161018b565b9091565b6101f96101f33660046101bb565b90610930565b604051005b80610120565b90503590610138826101fe565b919091604081840312610127576102288382610204565b92602082013567ffffffffffffffff8111610127576101e1920161018b565b34610127576101f961025a366004610211565b91610b37565b9160608383031261012757610275828461012b565b926102838360208301610204565b92604082013567ffffffffffffffff8111610127576101e1920161018b565b34610127576101f96102b5366004610260565b92919091610b78565b634e487b7160e01b5f52604160045260245ffd5b90601f01601f1916810190811067ffffffffffffffff8211176102f457604052565b6102be565b9061013861030660405190565b92836102d2565b67ffffffffffffffff81116102f457602090601f01601f19160190565b0190565b90825f939282370152565b9092919261034e6103498261030d565b6102f9565b93818552818301116101275761013891602085019061032e565b9080601f830112156101275781602061011293359101610339565b9190916040818403126101275761039a838261012b565b92602082013567ffffffffffffffff8111610127576101129201610368565b6101f96103c7366004610383565b90610ba4565b5f91031261012757565b34610127576103e73660046103cd565b6101876103f2610bf1565b6040515b9182918290815260200190565b90825f9392825e0152565b61042f61043860209361032a93610423815190565b80835293849260200190565b95869101610403565b601f01601f191690565b60208082526101129291019061040e565b34610127576104633660046103cd565b61018761046e610bfa565b60405191829182610442565b34610127576101f961048d366004610211565b91610e5f565b906104a06103498361030d565b918252565b6104af6005610493565b640352e302e360dc1b602082015290565b6101126104a5565b6101126104c0565b6101126104c8565b34610127576104e83660046103cd565b61018761046e6104d0565b34610127576105033660046103cd565b61018761016d610e7d565b6101f961051c3660046101bb565b90610f73565b34610127576101f961053536600461013a565b6111a6565b919060408382031261012757610112906020610556828661012b565b940161012b565b34610127576101876103f261057336600461053a565b906111af565b34610127576101f961058c366004610260565b9291909161125b565b610112905f5b506112b1565b6101126101126101129290565b156105b557565b604051631fff1b3b60e21b8152602060048201526013602482015272125b9d985b1a59081e995c9bc8185b5bdd5b9d606a1b6044820152606490fd5b906101389161060a6106025f6105a1565b345b116105ae565b9061061c91610617611361565b6106cc565b6101386113b4565b61011290610106906001600160a01b031682565b61011290610624565b61011290610638565b9050519061013882610115565b90602082820312610127576101129161064a565b6040513d5f823e3d90fd5b90505190610138826101fe565b906020828203126101275761011291610676565b909161032a908390809361032e565b909161011292610697565b6106c66106bd60405190565b928392836106a6565b03902090565b6106dc6106d76113e8565b610641565b60206106e760405190565b632bac8cf160e11b815291829060049082905afa908115610894575f91610911575b506107166106d7826113f4565b9261072060405190565b63e490b95760e01b815293602085600481845afa948515610894575f956108f0575b5061074e6106d76113e8565b94602061075a60405190565b6318c5b09760e01b815296879060049082905afa9586156108945761078f6106d76107a7986020935f916108c3575b50610641565b631803aa339061079e60405190565b98899260e01b90565b82526001600160a01b0385166004830152602490829034905af1958615610894575f96610899575b506108065f926020926107e160405190565b9485938492839190636e553f6560e01b5b835260048301523360248301526044820190565b03925af18015610894577fc9fe5f724606303e4b583889c0e2d1ab4aac59a8b296d6e01ea38adf23bdb638926108629261085892610867575b5061085261084c33610641565b95610641565b956106b1565b946103f660405190565b0390a4565b6108889060203d60201161088d575b61088081836102d2565b810190610683565b61083f565b503d610876565b61066b565b60209196505f926108b961080692843d861161088d5761088081836102d2565b97925092506107cf565b6108e39150843d86116108e9575b6108db81836102d2565b810190610657565b5f610789565b503d6108d1565b61090a91955060203d60201161088d5761088081836102d2565b935f610742565b61092a915060203d6020116108e9576108db81836102d2565b5f610709565b90610138916105f1565b90610138929161095261094c5f6105a1565b82610604565b9061061c9291610960611361565b6109a2565b61011260016105a1565b905f19905b9181191691161790565b9061098e610112610995926105a1565b825461096f565b9055565b6101125f6105a1565b906109bf92916109ba6109b3610965565b603361097e565b610a35565b6101386109b3610999565b3d156109e3576109d93d610493565b903d5f602084013e565b606090565b156109ef57565b60405163a9ff1bed60e01b815260206004820152601e60248201527f4661696c656420746f2073656e6420746f6b656e7320746f206f776e657200006044820152606490fd5b91610a416106d76113e8565b906020610a4d60405190565b63056fa50d60e41b815292839060049082905afa8015610894576106d7610a7e91610a9a945f91610b1e5750610641565b92610a8884610641565b610a9130610641565b90863391611402565b803b15610127575f610aab60405190565b632e1a7d4d60e01b815260048101849052918290602490829084905af1801561089457610138925f928392610af2575b506040515f91335af1610aec6109ca565b506109e8565b610b1190833d8511610b17575b610b0981836102d2565b8101906103cd565b5f610adb565b503d610aff565b6108e3915060203d6020116108e9576108db81836102d2565b90610138929161093a565b90610138939291610b5b610b555f6105a1565b83610604565b9061061c939291610b6a611361565b9061013893929133906114b5565b90610138939291610b42565b9061013891610b916115d2565b9061013891610b9f816116b1565b6116ba565b9061013891610b84565b61011290610bba611768565b610be8565b6101127f360894a13ba1a3210667c828492db98dca3e2076cc3735a920a3ca505d382bbc6105a1565b50610112610bbf565b6101125f610bae565b6101126117d4565b906101389291610c1461094c5f6105a1565b9061061c9291610c22611361565b906109bf9291610c336109b3610965565b610c88565b908152606081019392610138929091604091610c5f905b6001600160a01b03166020830152565b019015159052565b6001600160a01b0390911681526040810192916101389160200152565b0152565b91610c946106d76113e8565b906020610ca060405190565b632bac8cf160e11b815292839060049082905afa918215610894575f92610e3e575b50610ccf6106d7836113f4565b803b15610127575f610ce060405190565b91829062ebf5dd60e01b8252818381610cfe82338d60048501610c38565b03925af1801561089457610e29575b50610d196106d76113e8565b6020610d2460405190565b6318c5b09760e01b815291829060049082905afa908115610894575f95610d5a6106d7602094610d80948a91610e125750610641565b90610d6460405190565b9788938492839190630357371d60e01b83523360048401610c67565b03925af1938415610894575f94610dc7575b506108626108587fc02d15c091365dd54ab07e75d76d688e0a8a139bd07138dff2407f6086a88a529261085261084c33610641565b7fc02d15c091365dd54ab07e75d76d688e0a8a139bd07138dff2407f6086a88a52919450610858610e096108629260203d60201161088d5761088081836102d2565b95925050610d92565b6108e39150863d88116108e9576108db81836102d2565b610e38905f610b0981836102d2565b5f610d0d565b610e5891925060203d6020116108e9576108db81836102d2565b905f610cc2565b906101389291610c02565b61011290610106565b6101129054610e6a565b6101125f610e73565b9061013891610e976106025f6105a1565b9061061c91610ea4611361565b90610eb06106d76113e8565b916020610ebc60405190565b63056fa50d60e41b815293849060049082905afa928315610894575f93610f52575b50610eeb6106d784610641565b9263d0e30db093803b1561012757610f11945f91610f0860405190565b96879260e01b90565b8252600490829034905af19384156108945761013894610f3d575b50610f3630610641565b34916114b5565b610f4c905f610b0981836102d2565b5f610f2c565b610f6c91935060203d6020116108e9576108db81836102d2565b915f610ede565b9061013891610e86565b6101129060401c60ff1690565b6101129054610f7d565b610112905b67ffffffffffffffff1690565b6101129054610f94565b610f996101126101129290565b9067ffffffffffffffff90610974565b610f996101126101129267ffffffffffffffff1690565b90610ff461011261099592610fcd565b8254610fbd565b9068ff00000000000000009060401b610974565b9061101f61011261099592151590565b8254610ffb565b61014e90610fb0565b6020810192916101389190611026565b7ff0c57e16840df040f15088dc2f81fe391c3923bec73e23a9662efc9c229c6a008061107a61107461107083610f8a565b1590565b91610fa6565b926110845f610fb0565b67ffffffffffffffff85161480611186575b6001946110b36110a587610fb0565b9167ffffffffffffffff1690565b14908161115e575b155b9081611155575b50611144576110ed90826110e45f6110db88610fb0565b96019586610fe4565b6111355761118d565b6110f5575050565b7fc7f505b2f371ae2175ee4913f4499e1f2633a7b5936321eed1cdaeb6115181d2916111245f6111309361100f565b6040519182918261102f565b0390a1565b61113f858561100f565b61118d565b63f92ee8a960e01b5f908152600490fd5b1590505f6110c4565b90506110bd61116c30610641565b3b61117d6111795f6105a1565b9190565b149190506110bb565b5081611096565b611196906117f1565b61119e61180d565b61013861181d565b6101389061103f565b6111f3916111c96106d76020936111c35f90565b506113f4565b604051938492839182916370a0823160e01b5b83526001600160a01b031660048301526024820190565b03915afa908115610894575f91611208575090565b610112915060203d60201161088d5761088081836102d2565b90610138939291611234610b555f6105a1565b9061061c939291611243611361565b90611252610138949392610641565b33913391611402565b90610138939291611221565b6101129081565b6101129054611267565b1561127f57565b634d116d6960e01b5f908152600490fd5b61013861129d603361126e565b6112ab611179610112610965565b14611278565b6112bc6106d76113e8565b60206112c760405190565b636dfc203160e11b815291829060049082905afa918215610894576112fb6106d7611312946020945f916113405750610641565b604051938492839182916301d735e760e31b6111dc565b03915afa908115610894575f91611327575090565b610112915060203d6020116108e9576108db81836102d2565b6108e39150853d87116108e9576108db81836102d2565b61011260026105a1565b7f9b779b17422d0df92223018b32b4d1fa46e071723d6817e2486d003becc55f0061138b8161126e565b611393611357565b9081146113a3576101389161097e565b633ee5aeb560e01b5f908152600490fd5b6101387f9b779b17422d0df92223018b32b4d1fa46e071723d6817e2486d003becc55f005f6113e1610965565b910161097e565b6101126106d75f610e73565b6106d76101129161059b5f90565b949291909461141081610641565b9361141d6106d7866113f4565b92833b15610127575f600161144d9261143560405190565b938492839262ebf5dd60e01b84528d60048501610c38565b038183885af18015610894577fc02d15c091365dd54ab07e75d76d688e0a8a139bd07138dff2407f6086a88a52956108629561085895611494948c946114a0575b50611870565b61085261084c33610641565b6114af905f610b0981836102d2565b5f61148e565b9193906114c183610641565b906114ce6106d7856113f4565b60405163e490b95760e01b815292602084600481855afa8015610894575f988361151f956020978c946115b1575b506115079394611870565b6040519788938492839190636e553f6560e01b6107f2565b03925af1938415610894575f94611566575b506108626108587fc9fe5f724606303e4b583889c0e2d1ab4aac59a8b296d6e01ea38adf23bdb6389261085261084c33610641565b7fc9fe5f724606303e4b583889c0e2d1ab4aac59a8b296d6e01ea38adf23bdb6389194506108586115a86108629260203d60201161088d5761088081836102d2565b95925050611531565b61150794506115cc90893d8b1161088d5761088081836102d2565b936114fc565b6115db30610641565b7f0000000000000000000000000000000000000000000000000000000000000000906116186001600160a01b0383165b916001600160a01b031690565b14908115611639575b5061162857565b63703e46dd60e11b5f908152600490fd5b905061165661160b6116496118ba565b926001600160a01b031690565b14155f611621565b5061166a6106d76113e8565b803b15610127575f61167b60405190565b633c8c73ad60e01b815233600482015291829060249082905afa8015610894576116a25750565b610138905f610b0981836102d2565b6101389061165e565b916116c76106d784610641565b9160206116d360405190565b6352d1902d60e01b815293849060049082905afa5f9381611747575b5061171257634c9c8ce360e01b5f9081526001600160a01b038516600452602490fd5b909192611720610112610bbf565b8403611731576101389293506118cf565b632a87526960e21b5f9081526004859052602490fd5b61176191945060203d60201161088d5761088081836102d2565b925f6116ef565b61177130610641565b6117a36001600160a01b037f00000000000000000000000000000000000000000000000000000000000000001661160b565b0361162857565b6117b4600c610493565b6b2722ac2a2fab22a929a4a7a760a11b602082015290565b6101126117aa565b6101126117cc565b610138906117e8611939565b610138906119a5565b610138906117dc565b611802611939565b6101386101386119b6565b6101386117fa565b610138611939565b610138611815565b61183e6118386101129263ffffffff1690565b60e01b90565b6001600160e01b03191690565b6001600160a01b039091168152606081019392610138929091604091610c8490610c4f565b906118b5906118a66101389560049561188c6323b872dd611825565b9361189660405190565b978895602087019081520161184b565b602082018103825203836102d2565b6119e7565b6101125f6118c9610112610bbf565b01610e73565b906118d982611a5d565b6118e282610641565b7fbc7cd75a20ee27fd9adebab32041f755214dbc6bffa90cc0225b39da2e5c2d3b61190c60405190565b5f90a2805161191d6111795f6105a1565b111561192f5761192c91611ac8565b50565b5050610138611aa6565b611944611070611aee565b61194a57565b631afcd79f60e31b5f908152600490fd5b61013890611967611939565b611992565b906001600160a01b0390610974565b9061198b61011261099592610641565b825461196c565b6101389061199f81611b45565b5f61197b565b6101389061195b565b61061c611939565b6101386119ae565b801515610120565b90505190610138826119be565b9060208282031261012757610112916119c6565b6119f36119fa91610641565b9182611b5f565b8051611a086111795f6105a1565b14159081611a39575b50611a195750565b635274afe760e01b5f9081526001600160a01b039091166004526024035ffd5b611a579150806020611a4c611070935190565b8183010191016119d3565b5f611a11565b803b611a6b6111795f6105a1565b14611a8657610138905f611a80610112610bbf565b0161197b565b634c9c8ce360e01b5f9081526001600160a01b039091166004526024035ffd5b611aaf5f6105a1565b3411611ab757565b63b398979f60e01b5f908152600490fd5b5f8061011293611ad6606090565b50602081519101845af4611ae86109ca565b91611b72565b6101127ff0c57e16840df040f15088dc2f81fe391c3923bec73e23a9662efc9c229c6a00610f8a565b6101066101126101129290565b61011290611b17565b15611b3457565b63f6b2911f60e01b5f908152600490fd5b61013890611b5861160b6101065f611b24565b1415611b2d565b61011291611b6c5f6105a1565b91611bcf565b90611b7d5750611c20565b8151611b8b6111795f6105a1565b1480611bba575b611b9a575090565b639996b31560e01b5f9081526001600160a01b039091166004526024035ffd5b50803b611bc96111795f6105a1565b14611b92565b91929190611bdc30610641565b9380853110611c0257610112939450815f92916020849351920190855af1611ae86109ca565b63cd78605960e01b5f9081526001600160a01b038616600452602490fd5b8051611c2e6111795f6105a1565b1115611c3c57805190602001fd5b630a12f52160e11b5f908152600490fdfea2646970667358221220c6d6824e8aba02418c9f4a37b77a14f7c184b493e1148c5cbac7bd56a13c16c064736f6c634300081c0033","linkReferences":{}},"methodIdentifiers":{"UPGRADE_INTERFACE_VERSION()":"ad3cb1cc","balanceOf(address,address)":"f7888aec","getConfig()":"c3f909d4","getVault(address)":"0eb9af38","initialize(address)":"c4d66de8","proxiableUUID()":"52d1902d","stake(address,uint256,string)":"4df42566","stakeClisBNB(string)":"10ce2626","stakeNative(string)":"c412056b","unstake(address,uint256,string)":"f91daa33","unstakeClisBNB(uint256,string)":"711848a8","unstakeNative(uint256,string)":"4693cf07","upgradeToAndCall(address,bytes)":"4f1ef286","version()":"54fd4d50"},"storageLayout":{"storage":[{"astId":58059,"contract":"test/mock/upgradeability/StakerGatewayUpgraded.sol:StakerGatewayUpgraded","label":"configAddress","offset":0,"slot":"0","type":"t_address"},{"astId":58064,"contract":"test/mock/upgradeability/StakerGatewayUpgraded.sol:StakerGatewayUpgraded","label":"__gap","offset":0,"slot":"1","type":"t_array(t_uint256)50_storage"},{"astId":60026,"contract":"test/mock/upgradeability/StakerGatewayUpgraded.sol:StakerGatewayUpgraded","label":"canReceiveNativeTokens","offset":0,"slot":"51","type":"t_uint256"},{"astId":60031,"contract":"test/mock/upgradeability/StakerGatewayUpgraded.sol:StakerGatewayUpgraded","label":"__gap","offset":0,"slot":"52","type":"t_array(t_uint256)50_storage"}],"types":{"t_address":{"encoding":"inplace","label":"address","numberOfBytes":"20"},"t_array(t_uint256)50_storage":{"encoding":"inplace","label":"uint256[50]","numberOfBytes":"1600","base":"t_uint256"},"t_uint256":{"encoding":"inplace","label":"uint256","numberOfBytes":"32"}}},"id":173}