{"abi":[{"type":"constructor","inputs":[],"stateMutability":"nonpayable"},{"type":"function","name":"balance","inputs":[],"outputs":[{"name":"","type":"uint256","internalType":"uint256"}],"stateMutability":"view"},{"type":"function","name":"balanceERC20","inputs":[],"outputs":[{"name":"","type":"uint256","internalType":"uint256"}],"stateMutability":"view"},{"type":"function","name":"balanceOf","inputs":[{"name":"address_","type":"address","internalType":"address"}],"outputs":[{"name":"","type":"uint256","internalType":"uint256"}],"stateMutability":"view"},{"type":"function","name":"deposit","inputs":[{"name":"vaultBalanceBefore","type":"uint256","internalType":"uint256"},{"name":"owner","type":"address","internalType":"address"}],"outputs":[{"name":"","type":"uint256","internalType":"uint256"}],"stateMutability":"nonpayable"},{"type":"function","name":"getAsset","inputs":[],"outputs":[{"name":"","type":"address","internalType":"address"}],"stateMutability":"view"},{"type":"function","name":"getConfig","inputs":[],"outputs":[{"name":"","type":"address","internalType":"address"}],"stateMutability":"view"},{"type":"function","name":"getDecimals","inputs":[],"outputs":[{"name":"","type":"uint8","internalType":"uint8"}],"stateMutability":"view"},{"type":"function","name":"getDepositLimit","inputs":[],"outputs":[{"name":"","type":"uint256","internalType":"uint256"}],"stateMutability":"view"},{"type":"function","name":"initialize","inputs":[{"name":"assetAddr","type":"address","internalType":"address"},{"name":"configAddr","type":"address","internalType":"address"}],"outputs":[],"stateMutability":"nonpayable"},{"type":"function","name":"setDepositLimit","inputs":[{"name":"limit","type":"uint256","internalType":"uint256"}],"outputs":[],"stateMutability":"nonpayable"},{"type":"function","name":"withdraw","inputs":[{"name":"amount","type":"uint256","internalType":"uint256"},{"name":"owner","type":"address","internalType":"address"},{"name":"approveSender","type":"bool","internalType":"bool"}],"outputs":[],"stateMutability":"nonpayable"},{"type":"event","name":"DepositLimitChanged","inputs":[{"name":"newLimit","type":"uint256","indexed":false,"internalType":"uint256"}],"anonymous":false},{"type":"event","name":"Initialized","inputs":[{"name":"version","type":"uint64","indexed":false,"internalType":"uint64"}],"anonymous":false},{"type":"error","name":"AddressEmptyCode","inputs":[{"name":"target","type":"address","internalType":"address"}]},{"type":"error","name":"AddressInsufficientBalance","inputs":[{"name":"account","type":"address","internalType":"address"}]},{"type":"error","name":"DepositFailed","inputs":[{"name":"","type":"string","internalType":"string"}]},{"type":"error","name":"DepositLimitExceeded","inputs":[{"name":"depositAmount","type":"uint256","internalType":"uint256"},{"name":"depositLimit","type":"uint256","internalType":"uint256"}]},{"type":"error","name":"FailedInnerCall","inputs":[]},{"type":"error","name":"InvalidInitialization","inputs":[]},{"type":"error","name":"InvalidZeroAddress","inputs":[]},{"type":"error","name":"NotInitializing","inputs":[]},{"type":"error","name":"SafeERC20FailedOperation","inputs":[{"name":"token","type":"address","internalType":"address"}]},{"type":"error","name":"UnauthorizedCaller","inputs":[{"name":"","type":"address","internalType":"address"}]},{"type":"error","name":"WithdrawFailed","inputs":[{"name":"","type":"string","internalType":"string"}]}],"bytecode":{"object":"0x60806040523461002257610011610026565b6040516111e161016a82396111e190f35b5f80fd5b61002e610038565b6100366100bc565b565b61003661003661002e565b6100509060401c60ff1690565b90565b6100509054610043565b610050905b6001600160401b031690565b610050905461005d565b61005090610062906001600160401b031682565b9061009c6100506100b892610078565b82546001600160401b0319166001600160401b03919091161790565b9055565b7ff0c57e16840df040f15088dc2f81fe391c3923bec73e23a9662efc9c229c6a006100e681610053565b610158576100f38161006e565b6001600160401b039190829081160361010a575050565b816101397fc7f505b2f371ae2175ee4913f4499e1f2633a7b5936321eed1cdaeb6115181d2936101539361008c565b604051918291826001600160401b03909116815260200190565b0390a1565b63f92ee8a960e01b5f908152600490fdfe60806040526004361015610011575f80fd5b5f3560e01c8062ebf5dd146100bf578063485cc955146100ba5780635c222bad146100b55780636e553f65146100b057806370a08231146100ab578063abda8a9c146100a6578063b69ef8a8146100a1578063bdc8144b1461009c578063c3f909d414610097578063e490b957146100925763f0141d84036100c457610301565b6102e6565b6102cb565b6102b3565b610284565b610269565b61024e565b61020e565b6101bd565b610196565b610150565b5f80fd5b805b036100c457565b905035906100de826100c8565b565b6001600160a01b031690565b90565b6001600160a01b0381166100ca565b905035906100de826100ef565b8015156100ca565b905035906100de8261010b565b90916060828403126100c4576100ec61013984846100d1565b93604061014982602087016100fe565b9401610113565b346100c457610169610163366004610120565b9161063f565b60405180805b0390f35b91906040838203126100c4576100ec90602061018f82866100fe565b94016100fe565b346100c4576101696101a9366004610173565b90610976565b5f9103126100c457565b9052565b346100c4576101cd3660046101af565b61016f6101d8610980565b604051918291826001600160a01b03909116815260200190565b91906040838203126100c4576100ec90602061018f82866100d1565b346100c45761016f61022a6102243660046101f2565b90610b6a565b6040519182918290815260200190565b906020828203126100c4576100ec916100fe565b346100c45761016f61022a61026436600461023a565b610b75565b346100c4576102793660046101af565b61016f61022a610b7e565b346100c4576102943660046101af565b61016f61022a610b88565b906020828203126100c4576100ec916100d1565b346100c4576101696102c636600461029f565b610c22565b346100c4576102db3660046101af565b61016f6101d8610c2b565b346100c4576102f63660046101af565b61016f61022a610c34565b346100c4576103113660046101af565b61016f61031c610c52565b6040519182918260ff909116815260200190565b6100ec906100e0906001600160a01b031682565b6100ec90610330565b6100ec90610344565b634e487b7160e01b5f52604160045260245ffd5b90601f01601f1916810190811067ffffffffffffffff82111761038c57604052565b610356565b905051906100de826100ef565b906020828203126100c4576100ec91610391565b6040513d5f823e3d90fd5b156103c55750565b63d86ad9cf60e01b5f9081526001600160a01b0390911660045260245b035ffd5b91906103f86103f3610c5c565b61034d565b92602061040460405190565b631a02bb0d60e11b815294859060049082905afa801561047a5761043d610446916100de965f9161044b575b506001600160a01b031690565b331433906103bd565b61047f565b61046d915060203d602011610473575b610465818361036a565b81019061039e565b5f610430565b503d61045b565b6103b2565b919061048c6103f3610c5c565b92833b156100c4575f61049e60405190565b63327cff5560e21b815294859060049082905afa93841561047a576100de946104c8575b506105c9565b6104df905f6104d7818361036a565b8101906101af565b5f6104c2565b156104ec57565b604051637e3ca37b60e01b815260206004820152601e60248201527f4e6f7420656e6f7567682062616c616e636520746f20776974686472617700006044820152606490fd5b9061053c9061034d565b5f5260205260405f2090565b6100ec9081565b6100ec9054610548565b634e487b7160e01b5f52601160045260245ffd5b9190820391821161057a57565b610559565b905f19905b9181191691161790565b6100ec6100ec6100ec9290565b906105ab6100ec6105b29261058e565b825461057f565b9055565b6100ec906100e0565b6100ec90546105b6565b91906105f0610608916105e96105e16100ec83610c68565b8611156104e5565b6034610532565b610602846105fd8361054f565b61056d565b9061059b565b610620610619836105fd603661054f565b603661059b565b6106275750565b6100de906106386103f360336105bf565b3390610cef565b906100de92916103e6565b6100ec9060401c5b60ff1690565b6100ec905461064a565b6100ec905b67ffffffffffffffff1690565b6100ec9054610662565b6106676100ec6100ec9290565b9067ffffffffffffffff90610584565b6106676100ec6100ec9267ffffffffffffffff1690565b906106c26100ec6105b29261069b565b825461068b565b9068ff00000000000000009060401b610584565b906106ed6100ec6105b292151590565b82546106c9565b6101b99061067e565b6020810192916100de91906106f4565b7ff0c57e16840df040f15088dc2f81fe391c3923bec73e23a9662efc9c229c6a0090819061074a61074461074084610658565b1590565b92610674565b936107545f61067e565b67ffffffffffffffff86161480610856575b6001956107836107758861067e565b9167ffffffffffffffff1690565b14908161082e575b155b9081610825575b50610814576107bd91836107b45f6107ab8961067e565b970196876106b2565b610805576108e3565b6107c5575050565b7fc7f505b2f371ae2175ee4913f4499e1f2633a7b5936321eed1cdaeb6115181d2916107f45f610800936106dd565b604051918291826106fd565b0390a1565b61080f86866106dd565b6108e3565b63f92ee8a960e01b5f908152600490fd5b1590505f610794565b905061078d61083c3061034d565b3b61084d6108495f61058e565b9190565b1491905061078b565b5082610766565b906001600160a01b0390610584565b9061087c6100ec6105b29261034d565b825461085d565b60ff81166100ca565b905051906100de82610883565b906020828203126100c4576100ec9161088c565b9060ff60a01b9060a01b610584565b6106526100ec6100ec9260ff1690565b906108dc6100ec6105b2926108bc565b82546108ad565b6108ef6108ff92610da9565b6108f881610de0565b603361086c565b61090f6103f36103f360336105bf565b602061091a60405190565b63313ce56760e01b815291829060049082905afa801561047a576100de915f91610947575b5060336108cc565b610969915060203d60201161096f575b610961818361036a565b810190610899565b5f61093f565b503d610957565b906100de9161070d565b6100ec60336105bf565b91906109976103f3610c5c565b9260206109a360405190565b631a02bb0d60e11b815294859060049082905afa801561047a5761043d6109db916100ec965f9161044b57506001600160a01b031690565b91906109e86103f3610c5c565b92833b156100c4575f6109fa60405190565b63e0efcf5560e01b815294859060049082905afa93841561047a576100ec94610a24575b50610aed565b610a33905f6104d7818361036a565b5f610a1e565b15610a4057565b6040516363299ad160e01b815260206004820152603d60248201527f546f6b656e732077657265206e6f74207472616e7366657272656420746f205660448201527f61756c74206265666f72652063616c6c696e67206465706f73697428290000006064820152608490fd5b9190820180921161057a57565b9081526040810192916100de9160200152565b15610ad5575050565b63f461319760e01b5f908152916103e2916004610ab9565b610b01610b5992610b4c92506105fd610e28565b92610b15610b0e5f61058e565b8511610a39565b6105e9610b2985610b24610eb6565b610aac565b610b396108496100ec603561054f565b111585610b46603561054f565b91610acc565b61060283610b248361054f565b6100ec61061982610b24603661054f565b6100ec91905f61098a565b6100ec90610c68565b6100ec603561054f565b6100ec610eb6565b610b9b6103f3610c5c565b90813b156100c4575f610bad60405190565b630ebbac1960e31b815233600482015292839060249082905afa91821561047a576100de92610bdd575b50610bf2565b610bec905f6104d7818361036a565b5f610bd7565b6108007fd2f7d876097fbfad8695bf20675f267d8cbfbc3a2969b4142f914e9478272fe29161022a81603561059b565b6100de90610b90565b6100ec5f6105bf565b6100ec610e28565b6100ec9060a01c610652565b6100ec9054610c3c565b6100ec6033610c48565b6100ec6103f35f6105bf565b610c7e6100ec91610c765f90565b506034610532565b61054f565b610c9c610c966100ec9263ffffffff1690565b60e01b90565b6001600160e01b03191690565b6001600160a01b0390911681526040810192916100de9160200152565b6101b99061058e565b6001600160a01b0390911681526040810192916100de9160200190610cc6565b610d2091610d2f610d0363095ea7b3610c83565b94610d0d60405190565b948591846004602085018a815201610ca9565b6020820181038252038461036a565b610d3c6107408484610f47565b610d47575b50505050565b6004610d80610d8b95610d715f610d8695610d6160405190565b9586946020860190815201610ccf565b6020820181038252038261036a565b82610fd9565b610fd9565b5f808080610d41565b6100de90610da0611044565b6100de90611085565b6100de90610d94565b6100e06100ec6100ec9290565b6100ec90610db2565b15610dcf57565b63f6b2911f60e01b5f908152600490fd5b6100de90610e00610df36100e05f610dbf565b916001600160a01b031690565b1415610dc8565b905051906100de826100c8565b906020828203126100c4576100ec91610e07565b610e786020610e3d6103f36103f360336105bf565b610e463061034d565b90610e5060405190565b938492839182916370a0823160e01b8352600483016001600160a01b03909116815260200190565b03915afa90811561047a575f91610e8d575090565b6100ec915060203d602011610eaf575b610ea7818361036a565b810190610e14565b503d610e9d565b6100ec603661054f565b906100de610ecd60405190565b928361036a565b67ffffffffffffffff811161038c57602090601f01601f19160190565b90610f03610efe83610ed4565b610ec0565b918252565b3d15610f2157610f173d610ef1565b903d5f602084013e565b606090565b905051906100de8261010b565b906020828203126100c4576100ec91610f26565b5f610f5a8192610f545f90565b5061034d565b9260208151910182855af190610f6e610f08565b82610f91575b5081610f7e575090565b90503b610f8d6108495f61058e565b1190565b909150610f9c815190565b610fa86108495f61058e565b14908115610fb9575b50905f610f74565b610fd391506020610fc8825190565b818301019101610f33565b5f610fb1565b610fe5610fec9161034d565b918261108e565b8051610ffa6108495f61058e565b1415908161102b575b5061100b5750565b635274afe760e01b5f9081526001600160a01b039091166004526024035ffd5b61103e9150806020610fc8610740935190565b5f611003565b61104f6107406110a1565b61105557565b631afcd79f60e31b5f908152600490fd5b6100de90611072611044565b6100de9061107f81610de0565b5f61086c565b6100de90611066565b6100ec9161109b5f61058e565b916110ca565b6100ec7ff0c57e16840df040f15088dc2f81fe391c3923bec73e23a9662efc9c229c6a00610658565b919291906110d73061034d565b9380853110611103576100ec939450815f92916020849351920190855af16110fd610f08565b91611121565b63cd78605960e01b5f9081526001600160a01b038616600452602490fd5b9061112c575061117e565b815161113a6108495f61058e565b1480611169575b611149575090565b639996b31560e01b5f9081526001600160a01b039091166004526024035ffd5b50803b6111786108495f61058e565b14611141565b805161118c6108495f61058e565b111561119a57805190602001fd5b630a12f52160e11b5f908152600490fdfea26469706673582212202c5d52b6cd1ffbcc90654312edbf165b907211fec93d78f4a81203db9f02f62b64736f6c634300081c0033","linkReferences":{}},"methodIdentifiers":{"balance()":"b69ef8a8","balanceERC20()":"e490b957","balanceOf(address)":"70a08231","deposit(uint256,address)":"6e553f65","getAsset()":"5c222bad","getConfig()":"c3f909d4","getDecimals()":"f0141d84","getDepositLimit()":"abda8a9c","initialize(address,address)":"485cc955","setDepositLimit(uint256)":"bdc8144b","withdraw(uint256,address,bool)":"00ebf5dd"},"storageLayout":{"storage":[{"astId":58059,"contract":"src/KernelVault.sol:KernelVault","label":"configAddress","offset":0,"slot":"0","type":"t_address"},{"astId":58064,"contract":"src/KernelVault.sol:KernelVault","label":"__gap","offset":0,"slot":"1","type":"t_array(t_uint256)50_storage"},{"astId":59365,"contract":"src/KernelVault.sol:KernelVault","label":"asset","offset":0,"slot":"51","type":"t_address"},{"astId":59368,"contract":"src/KernelVault.sol:KernelVault","label":"decimals","offset":20,"slot":"51","type":"t_uint8"},{"astId":59373,"contract":"src/KernelVault.sol:KernelVault","label":"balances","offset":0,"slot":"52","type":"t_mapping(t_address,t_uint256)"},{"astId":59376,"contract":"src/KernelVault.sol:KernelVault","label":"depositLimit","offset":0,"slot":"53","type":"t_uint256"},{"astId":59379,"contract":"src/KernelVault.sol:KernelVault","label":"totalBalance","offset":0,"slot":"54","type":"t_uint256"},{"astId":59384,"contract":"src/KernelVault.sol:KernelVault","label":"__gap","offset":0,"slot":"55","type":"t_array(t_uint256)49_storage"}],"types":{"t_address":{"encoding":"inplace","label":"address","numberOfBytes":"20"},"t_array(t_uint256)49_storage":{"encoding":"inplace","label":"uint256[49]","numberOfBytes":"1568","base":"t_uint256"},"t_array(t_uint256)50_storage":{"encoding":"inplace","label":"uint256[50]","numberOfBytes":"1600","base":"t_uint256"},"t_mapping(t_address,t_uint256)":{"encoding":"mapping","key":"t_address","label":"mapping(address => uint256)","numberOfBytes":"32","value":"t_uint256"},"t_uint256":{"encoding":"inplace","label":"uint256","numberOfBytes":"32"},"t_uint8":{"encoding":"inplace","label":"uint8","numberOfBytes":"1"}}},"id":112}