{"abi":[{"type":"constructor","inputs":[],"stateMutability":"nonpayable"},{"type":"function","name":"UPGRADE_INTERFACE_VERSION","inputs":[],"outputs":[{"name":"","type":"string","internalType":"string"}],"stateMutability":"view"},{"type":"function","name":"addAsset","inputs":[{"name":"vault","type":"address","internalType":"address"}],"outputs":[],"stateMutability":"nonpayable"},{"type":"function","name":"getAssets","inputs":[],"outputs":[{"name":"","type":"address[]","internalType":"address[]"}],"stateMutability":"view"},{"type":"function","name":"getConfig","inputs":[],"outputs":[{"name":"","type":"address","internalType":"address"}],"stateMutability":"view"},{"type":"function","name":"getVault","inputs":[{"name":"asset","type":"address","internalType":"address"}],"outputs":[{"name":"","type":"address","internalType":"address"}],"stateMutability":"view"},{"type":"function","name":"getVaultBalance","inputs":[{"name":"asset","type":"address","internalType":"address"}],"outputs":[{"name":"","type":"uint256","internalType":"uint256"}],"stateMutability":"view"},{"type":"function","name":"getVaultDepositLimit","inputs":[{"name":"asset","type":"address","internalType":"address"}],"outputs":[{"name":"","type":"uint256","internalType":"uint256"}],"stateMutability":"view"},{"type":"function","name":"hasAsset","inputs":[{"name":"asset","type":"address","internalType":"address"}],"outputs":[{"name":"","type":"bool","internalType":"bool"}],"stateMutability":"view"},{"type":"function","name":"initialize","inputs":[{"name":"configAddr","type":"address","internalType":"address"}],"outputs":[],"stateMutability":"nonpayable"},{"type":"function","name":"proxiableUUID","inputs":[],"outputs":[{"name":"","type":"bytes32","internalType":"bytes32"}],"stateMutability":"view"},{"type":"function","name":"removeAsset","inputs":[{"name":"asset","type":"address","internalType":"address"}],"outputs":[],"stateMutability":"nonpayable"},{"type":"function","name":"upgradeToAndCall","inputs":[{"name":"newImplementation","type":"address","internalType":"address"},{"name":"data","type":"bytes","internalType":"bytes"}],"outputs":[],"stateMutability":"payable"},{"type":"function","name":"version","inputs":[],"outputs":[{"name":"","type":"string","internalType":"string"}],"stateMutability":"pure"},{"type":"event","name":"AssetAdded","inputs":[{"name":"asset","type":"address","indexed":true,"internalType":"address"},{"name":"vault","type":"address","indexed":true,"internalType":"address"}],"anonymous":false},{"type":"event","name":"AssetRemoved","inputs":[{"name":"asset","type":"address","indexed":true,"internalType":"address"},{"name":"vault","type":"address","indexed":true,"internalType":"address"}],"anonymous":false},{"type":"event","name":"Initialized","inputs":[{"name":"version","type":"uint64","indexed":false,"internalType":"uint64"}],"anonymous":false},{"type":"event","name":"Upgraded","inputs":[{"name":"implementation","type":"address","indexed":true,"internalType":"address"}],"anonymous":false},{"type":"error","name":"AddressEmptyCode","inputs":[{"name":"target","type":"address","internalType":"address"}]},{"type":"error","name":"AssetAlreadyAdded","inputs":[]},{"type":"error","name":"AssetNotAdded","inputs":[]},{"type":"error","name":"ERC1967InvalidImplementation","inputs":[{"name":"implementation","type":"address","internalType":"address"}]},{"type":"error","name":"ERC1967NonPayable","inputs":[]},{"type":"error","name":"FailedInnerCall","inputs":[]},{"type":"error","name":"InvalidInitialization","inputs":[]},{"type":"error","name":"InvalidZeroAddress","inputs":[]},{"type":"error","name":"NotInitializing","inputs":[]},{"type":"error","name":"UUPSUnauthorizedCallContext","inputs":[]},{"type":"error","name":"UUPSUnsupportedProxiableUUID","inputs":[{"name":"slot","type":"bytes32","internalType":"bytes32"}]},{"type":"error","name":"VaultNotEmpty","inputs":[]},{"type":"error","name":"VaultNotFound","inputs":[{"name":"asset","type":"address","internalType":"address"}]}],"bytecode":{"object":"0x60a06040523461003257610011610036565b6040516113c36101c38239608051818181610f3e01526110d601526113c390f35b5f80fd5b61003e610048565b610046610115565b565b61004661004661004661003e610046610091565b61007090610073906001600160a01b031682565b90565b6001600160a01b031690565b6100709061005c565b6100709061007f565b61009a30610088565b608052565b6100709060401c60ff1690565b610070905461009f565b610070905b6001600160401b031690565b61007090546100b6565b610070906100bb906001600160401b031682565b906100f5610070610111926100d1565b82546001600160401b0319166001600160401b03919091161790565b9055565b7ff0c57e16840df040f15088dc2f81fe391c3923bec73e23a9662efc9c229c6a0061013f816100ac565b6101b15761014c816100c7565b6001600160401b0391908290811603610163575050565b816101927fc7f505b2f371ae2175ee4913f4499e1f2633a7b5936321eed1cdaeb6115181d2936101ac936100e5565b604051918291826001600160401b03909116815260200190565b0390a1565b63f92ee8a960e01b5f908152600490fdfe60806040526004361015610011575f80fd5b5f3560e01c80630eb9af38146100e0578063298410e5146100db5780634a5e42b1146100d65780634f1ef286146100d157806352d1902d146100cc57806354fd4d50146100c757806367e4ac2c146100c2578063a567fb47146100bd578063ad3cb1cc146100b8578063b854007b146100b3578063c3f909d4146100ae578063c4d66de8146100a95763d3d7c002036100e5576104cb565b6104b3565b610498565b61047d565b610462565b6103f0565b6103c9565b610333565b6102b8565b61029a565b610187565b61016a565b610131565b5f80fd5b6001600160a01b031690565b90565b6001600160a01b0381165b036100e557565b90503590610117826100f8565b565b906020828203126100e5576100f59161010a565b9052565b346100e55761016661014c610147366004610119565b61050c565b604051918291826001600160a01b03909116815260200190565b0390f35b346100e55761018261017d366004610119565b610795565b604051005b346100e55761018261019a366004610119565b61097c565b634e487b7160e01b5f52604160045260245ffd5b90601f01601f1916810190811067ffffffffffffffff8211176101d557604052565b61019f565b906101176101e760405190565b92836101b3565b67ffffffffffffffff81116101d557602090601f01601f19160190565b0190565b90825f939282370152565b9092919261022f61022a826101ee565b6101da565b93818552818301116100e55761011791602085019061020f565b9080601f830112156100e5578160206100f59335910161021a565b9190916040818403126100e55761027b838261010a565b92602082013567ffffffffffffffff81116100e5576100f59201610249565b6101826102a8366004610264565b906109a5565b5f9103126100e557565b346100e5576102c83660046102ae565b6101666102d36109f2565b6040519182918290815260200190565b90825f9392825e0152565b61030f61031860209361020b93610303815190565b80835293849260200190565b958691016102e3565b601f01601f191690565b60208082526100f5929101906102ee565b346100e5576103433660046102ae565b61016661034e610a1c565b60405191829182610322565b9061037a610373610369845190565b8084529260200190565b9260200190565b905f5b81811061038a5750505090565b9091926103b06103a960019286516001600160a01b0316815260200190565b9460200190565b92910161037d565b60208082526100f59291019061035a565b346100e5576103d93660046102ae565b6101666103e4610ab6565b604051918291826103b8565b346100e55761016661040b610406366004610119565b610ac0565b60405191829182901515815260200190565b9061042a61022a836101ee565b918252565b610439600561041d565b640352e302e360dc1b602082015290565b6100f561042f565b6100f561044a565b6100f5610452565b346100e5576104723660046102ae565b61016661034e61045a565b346100e5576101666102d3610493366004610119565b610ac9565b346100e5576104a83660046102ae565b61016661014c610b21565b346100e5576101826104c6366004610119565b610d43565b346100e5576101666102d36104e1366004610119565b610d4c565b6100f5906100e9906001600160a01b031682565b6100f5906104e6565b6100f5906104fa565b6105206100f59161051a5f90565b50610db3565b610503565b6040513d5f823e3d90fd5b61053b610520610de6565b90813b156100e5575f61054d60405190565b637f918e7f60e01b815233600482015292839060249082905afa91821561059a576101179261057d575b506106b7565b610594905f61058c81836101b3565b8101906102ae565b5f610577565b610525565b90505190610117826100f8565b906020828203126100e5576100f59161059f565b156105c757565b635ed2680160e01b5f908152600490fd5b906105e290610503565b5f5260205260405f2090565b906001600160a01b03905b9181191691161790565b906106136100f561061a92610503565b82546105ee565b9055565b634e487b7160e01b5f52603260045260245ffd5b80548210156106525761064a6001915f5260205f2090565b910201905f90565b61061e565b916001600160a01b0360089290920291821b911b6105f9565b91906106816100f561061a93610503565b908354610657565b90815491680100000000000000008310156101d557826106b191600161011795018155610632565b90610670565b6106c361052082610503565b60206106ce60405190565b635c222bad60e01b815291829060049082905afa90811561059a5761073691610730915f91610766575b5061071161070c61070883610df2565b1590565b6105c0565b610725846107208360336105d8565b610603565b610520816034610689565b91610503565b907f0bb5715f0f217c2fe9a0c877ea87d474380c641102f3440ee2a4c8b9d979091861076160405190565b5f90a3565b610788915060203d60201161078e575b61078081836101b3565b8101906105ac565b5f6106f8565b503d610776565b61011790610530565b6107a9610520610de6565b90813b156100e5575f6107bb60405190565b637f918e7f60e01b815233600482015292839060249082905afa91821561059a57610117926107eb575b50610882565b6107fa905f61058c81836101b3565b5f6107e5565b1561080757565b630267437760e61b5f908152600490fd5b6100f5906100e9565b6100f59054610818565b80610103565b905051906101178261082b565b906020828203126100e5576100f591610831565b6100f56100f56100f59290565b1561086657565b6349ba9c8160e01b5f908152600490fd5b610117915f91610670565b61089361088e82610df2565b610800565b6108a66108a18260336105d8565b610821565b906108b361052083610503565b9060206108bf60405190565b6316d3df1560e31b815292839060049082905afa90811561059a5761090361073092610922945f9161094d575b506108fd6108f95f610852565b9190565b1461085f565b6109175f6109128360336105d8565b610877565b610520816034610ea2565b907f0fa1e4606af435f32f05b3804033d2933e691fab32ee74d2db6fa82d2741f1ea61076160405190565b61096f915060203d602011610975575b61096781836101b3565b81019061083e565b5f6108ec565b503d61095d565b6101179061079e565b9061011791610992610f33565b90610117916109a081611009565b611012565b9061011791610985565b6100f5906109bb6110c0565b6109e9565b6100f57f360894a13ba1a3210667c828492db98dca3e2076cc3735a920a3ca505d382bbc610852565b506100f56109c0565b6100f55f6109af565b610a05600361041d565b620312e360ec1b602082015290565b6100f56109fb565b6100f5610a14565b90610a3d610a33610369845490565b925f5260205f2090565b905f5b818110610a4d5750505090565b909192610a7a610a73600192610a6287610821565b6001600160a01b0316815260200190565b9460010190565b929101610a40565b906100f591610a24565b90610117610aa692610a9d60405190565b93848092610a82565b03836101b3565b6100f590610a8c565b6100f56034610aad565b6100f590610df2565b610520610ad79161051a5f90565b6020610ae260405190565b918290632af6a2a760e21b5b825260049082905afa90811561059a575f91610b08575090565b6100f5915060203d6020116109755761096781836101b3565b6100f55f610821565b6100f59060401c60ff1690565b6100f59054610b2a565b6100f5905b67ffffffffffffffff1690565b6100f59054610b41565b610b466100f56100f59290565b9067ffffffffffffffff906105f9565b610b466100f56100f59267ffffffffffffffff1690565b90610ba16100f561061a92610b7a565b8254610b6a565b9068ff00000000000000009060401b6105f9565b90610bcc6100f561061a92151590565b8254610ba8565b61012d90610b5d565b6020810192916101179190610bd3565b7ff0c57e16840df040f15088dc2f81fe391c3923bec73e23a9662efc9c229c6a0080610c23610c1d61070883610b37565b91610b53565b92610c2d5f610b5d565b67ffffffffffffffff85161480610d2b575b600194610c5c610c4e87610b5d565b9167ffffffffffffffff1690565b149081610d07575b155b9081610cfe575b50610ced57610c969082610c8d5f610c8488610b5d565b96019586610b91565b610cde57610d32565b610c9e575050565b7fc7f505b2f371ae2175ee4913f4499e1f2633a7b5936321eed1cdaeb6115181d291610ccd5f610cd993610bbc565b60405191829182610bdc565b0390a1565b610ce88585610bbc565b610d32565b63f92ee8a960e01b5f908152600490fd5b1590505f610c6d565b9050610c66610d1530610503565b3b610d226108f95f610852565b14919050610c64565b5081610c3f565b610d3b90611117565b610117611128565b61011790610bec565b610520610d5a9161051a5f90565b6020610d6560405190565b9182906316d3df1560e31b610aee565b6100e96100f56100f59290565b6100f590610d75565b15610d935750565b63c02219d960e01b5f9081526001600160a01b039091166004526024035ffd5b6100f590610520610dc86108a18360336105d8565b91610dd56100e95f610d82565b6001600160a01b0384161415610d8b565b6100f56105205f610821565b6108a1610e0891610e005f90565b5060336105d8565b610e24610e176100e95f610d82565b916001600160a01b031690565b141590565b6100f5916008021c6100e9565b906100f59154610e29565b634e487b7160e01b5f52601160045260245ffd5b91908203918211610e6257565b610e41565b634e487b7160e01b5f52603160045260245ffd5b80548015610e9d575f190190610e9a610e948383610632565b90610877565b55565b610e67565b610eab5f610852565b610eb66100f5835490565b811015610f2e57610ed0610eca8284610632565b90610e36565b610ee26001600160a01b038516610e17565b14610eef57600101610eab565b6101179250610f29906106b1610f22610eca610f1c610f0c875490565b610f166001610852565b90610e55565b86610632565b9184610632565b610e7b565b505050565b610f3c30610503565b7f000000000000000000000000000000000000000000000000000000000000000090610f706001600160a01b038316610e17565b14908115610f91575b50610f8057565b63703e46dd60e11b5f908152600490fd5b9050610fae610e17610fa1611130565b926001600160a01b031690565b14155f610f79565b50610fc2610520610de6565b803b156100e5575f610fd360405190565b633c8c73ad60e01b815233600482015291829060249082905afa801561059a57610ffa5750565b610117905f61058c81836101b3565b61011790610fb6565b9161101f61052084610503565b91602061102b60405190565b6352d1902d60e01b815293849060049082905afa5f938161109f575b5061106a57634c9c8ce360e01b5f9081526001600160a01b038516600452602490fd5b9091926110786100f56109c0565b840361108957610117929350611145565b632a87526960e21b5f9081526004859052602490fd5b6110b991945060203d6020116109755761096781836101b3565b925f611047565b6110c930610503565b6110fb6001600160a01b037f000000000000000000000000000000000000000000000000000000000000000016610e17565b03610f8057565b6101179061110e6111af565b610117906111f0565b61011790611102565b6101176111af565b610117611120565b6100f55f61113f6100f56109c0565b01610821565b9061114f826111f9565b61115882610503565b7fbc7cd75a20ee27fd9adebab32041f755214dbc6bffa90cc0225b39da2e5c2d3b61118260405190565b5f90a280516111936108f95f610852565b11156111a5576111a291611282565b50565b5050610117611242565b6111ba6107086112a8565b6111c057565b631afcd79f60e31b5f908152600490fd5b610117906111dd6111af565b610117906111ea816112e9565b5f610603565b610117906111d1565b803b6112076108f95f610852565b1461122257610117905f61121c6100f56109c0565b01610603565b634c9c8ce360e01b5f9081526001600160a01b039091166004526024035ffd5b61124b5f610852565b341161125357565b63b398979f60e01b5f908152600490fd5b3d1561127d576112733d61041d565b903d5f602084013e565b606090565b5f806100f593611290606090565b50602081519101845af46112a2611264565b91611303565b6100f57ff0c57e16840df040f15088dc2f81fe391c3923bec73e23a9662efc9c229c6a00610b37565b156112d857565b63f6b2911f60e01b5f908152600490fd5b610117906112fc610e176100e95f610d82565b14156112d1565b9061130e5750611360565b815161131c6108f95f610852565b148061134b575b61132b575090565b639996b31560e01b5f9081526001600160a01b039091166004526024035ffd5b50803b61135a6108f95f610852565b14611323565b805161136e6108f95f610852565b111561137c57805190602001fd5b630a12f52160e11b5f908152600490fdfea26469706673582212200213fd144605eb6300c650c8e3b8911f713985c22bdd52bee4fba8eb27eddfa064736f6c634300081c0033","linkReferences":{}},"methodIdentifiers":{"UPGRADE_INTERFACE_VERSION()":"ad3cb1cc","addAsset(address)":"298410e5","getAssets()":"67e4ac2c","getConfig()":"c3f909d4","getVault(address)":"0eb9af38","getVaultBalance(address)":"d3d7c002","getVaultDepositLimit(address)":"b854007b","hasAsset(address)":"a567fb47","initialize(address)":"c4d66de8","proxiableUUID()":"52d1902d","removeAsset(address)":"4a5e42b1","upgradeToAndCall(address,bytes)":"4f1ef286","version()":"54fd4d50"},"storageLayout":{"storage":[{"astId":58051,"contract":"src/AssetRegistry.sol:AssetRegistry","label":"configAddress","offset":0,"slot":"0","type":"t_address"},{"astId":58056,"contract":"src/AssetRegistry.sol:AssetRegistry","label":"__gap","offset":0,"slot":"1","type":"t_array(t_uint256)50_storage"},{"astId":58024,"contract":"src/AssetRegistry.sol:AssetRegistry","label":"assetToVault","offset":0,"slot":"51","type":"t_mapping(t_address,t_address)"},{"astId":58028,"contract":"src/AssetRegistry.sol:AssetRegistry","label":"assets","offset":0,"slot":"52","type":"t_array(t_address)dyn_storage"},{"astId":58033,"contract":"src/AssetRegistry.sol:AssetRegistry","label":"__gap","offset":0,"slot":"53","type":"t_array(t_uint256)50_storage"}],"types":{"t_address":{"encoding":"inplace","label":"address","numberOfBytes":"20"},"t_array(t_address)dyn_storage":{"encoding":"dynamic_array","label":"address[]","numberOfBytes":"32","base":"t_address"},"t_array(t_uint256)50_storage":{"encoding":"inplace","label":"uint256[50]","numberOfBytes":"1600","base":"t_uint256"},"t_mapping(t_address,t_address)":{"encoding":"mapping","key":"t_address","label":"mapping(address => address)","numberOfBytes":"32","value":"t_address"},"t_uint256":{"encoding":"inplace","label":"uint256","numberOfBytes":"32"}}},"id":107}