{"abi":[{"type":"constructor","inputs":[],"stateMutability":"nonpayable"},{"type":"fallback","stateMutability":"nonpayable"},{"type":"receive","stateMutability":"payable"},{"type":"function","name":"VERSION","inputs":[],"outputs":[{"name":"","type":"string","internalType":"string"}],"stateMutability":"view"},{"type":"function","name":"addOwnerWithThreshold","inputs":[{"name":"owner","type":"address","internalType":"address"},{"name":"_threshold","type":"uint256","internalType":"uint256"}],"outputs":[],"stateMutability":"nonpayable"},{"type":"function","name":"approveHash","inputs":[{"name":"hashToApprove","type":"bytes32","internalType":"bytes32"}],"outputs":[],"stateMutability":"nonpayable"},{"type":"function","name":"approvedHashes","inputs":[{"name":"","type":"address","internalType":"address"},{"name":"","type":"bytes32","internalType":"bytes32"}],"outputs":[{"name":"","type":"uint256","internalType":"uint256"}],"stateMutability":"view"},{"type":"function","name":"changeThreshold","inputs":[{"name":"_threshold","type":"uint256","internalType":"uint256"}],"outputs":[],"stateMutability":"nonpayable"},{"type":"function","name":"checkNSignatures","inputs":[{"name":"dataHash","type":"bytes32","internalType":"bytes32"},{"name":"data","type":"bytes","internalType":"bytes"},{"name":"signatures","type":"bytes","internalType":"bytes"},{"name":"requiredSignatures","type":"uint256","internalType":"uint256"}],"outputs":[],"stateMutability":"view"},{"type":"function","name":"checkSignatures","inputs":[{"name":"dataHash","type":"bytes32","internalType":"bytes32"},{"name":"data","type":"bytes","internalType":"bytes"},{"name":"signatures","type":"bytes","internalType":"bytes"}],"outputs":[],"stateMutability":"view"},{"type":"function","name":"disableModule","inputs":[{"name":"prevModule","type":"address","internalType":"address"},{"name":"module","type":"address","internalType":"address"}],"outputs":[],"stateMutability":"nonpayable"},{"type":"function","name":"domainSeparator","inputs":[],"outputs":[{"name":"","type":"bytes32","internalType":"bytes32"}],"stateMutability":"view"},{"type":"function","name":"enableModule","inputs":[{"name":"module","type":"address","internalType":"address"}],"outputs":[],"stateMutability":"nonpayable"},{"type":"function","name":"encodeTransactionData","inputs":[{"name":"to","type":"address","internalType":"address"},{"name":"value","type":"uint256","internalType":"uint256"},{"name":"data","type":"bytes","internalType":"bytes"},{"name":"operation","type":"uint8","internalType":"enum Enum.Operation"},{"name":"safeTxGas","type":"uint256","internalType":"uint256"},{"name":"baseGas","type":"uint256","internalType":"uint256"},{"name":"gasPrice","type":"uint256","internalType":"uint256"},{"name":"gasToken","type":"address","internalType":"address"},{"name":"refundReceiver","type":"address","internalType":"address"},{"name":"_nonce","type":"uint256","internalType":"uint256"}],"outputs":[{"name":"","type":"bytes","internalType":"bytes"}],"stateMutability":"view"},{"type":"function","name":"execTransaction","inputs":[{"name":"to","type":"address","internalType":"address"},{"name":"value","type":"uint256","internalType":"uint256"},{"name":"data","type":"bytes","internalType":"bytes"},{"name":"operation","type":"uint8","internalType":"enum Enum.Operation"},{"name":"safeTxGas","type":"uint256","internalType":"uint256"},{"name":"baseGas","type":"uint256","internalType":"uint256"},{"name":"gasPrice","type":"uint256","internalType":"uint256"},{"name":"gasToken","type":"address","internalType":"address"},{"name":"refundReceiver","type":"address","internalType":"address payable"},{"name":"signatures","type":"bytes","internalType":"bytes"}],"outputs":[{"name":"success","type":"bool","internalType":"bool"}],"stateMutability":"payable"},{"type":"function","name":"execTransactionFromModule","inputs":[{"name":"to","type":"address","internalType":"address"},{"name":"value","type":"uint256","internalType":"uint256"},{"name":"data","type":"bytes","internalType":"bytes"},{"name":"operation","type":"uint8","internalType":"enum Enum.Operation"}],"outputs":[{"name":"success","type":"bool","internalType":"bool"}],"stateMutability":"nonpayable"},{"type":"function","name":"execTransactionFromModuleReturnData","inputs":[{"name":"to","type":"address","internalType":"address"},{"name":"value","type":"uint256","internalType":"uint256"},{"name":"data","type":"bytes","internalType":"bytes"},{"name":"operation","type":"uint8","internalType":"enum Enum.Operation"}],"outputs":[{"name":"success","type":"bool","internalType":"bool"},{"name":"returnData","type":"bytes","internalType":"bytes"}],"stateMutability":"nonpayable"},{"type":"function","name":"getChainId","inputs":[],"outputs":[{"name":"","type":"uint256","internalType":"uint256"}],"stateMutability":"view"},{"type":"function","name":"getModulesPaginated","inputs":[{"name":"start","type":"address","internalType":"address"},{"name":"pageSize","type":"uint256","internalType":"uint256"}],"outputs":[{"name":"array","type":"address[]","internalType":"address[]"},{"name":"next","type":"address","internalType":"address"}],"stateMutability":"view"},{"type":"function","name":"getOwners","inputs":[],"outputs":[{"name":"","type":"address[]","internalType":"address[]"}],"stateMutability":"view"},{"type":"function","name":"getStorageAt","inputs":[{"name":"offset","type":"uint256","internalType":"uint256"},{"name":"length","type":"uint256","internalType":"uint256"}],"outputs":[{"name":"","type":"bytes","internalType":"bytes"}],"stateMutability":"view"},{"type":"function","name":"getThreshold","inputs":[],"outputs":[{"name":"","type":"uint256","internalType":"uint256"}],"stateMutability":"view"},{"type":"function","name":"getTransactionHash","inputs":[{"name":"to","type":"address","internalType":"address"},{"name":"value","type":"uint256","internalType":"uint256"},{"name":"data","type":"bytes","internalType":"bytes"},{"name":"operation","type":"uint8","internalType":"enum Enum.Operation"},{"name":"safeTxGas","type":"uint256","internalType":"uint256"},{"name":"baseGas","type":"uint256","internalType":"uint256"},{"name":"gasPrice","type":"uint256","internalType":"uint256"},{"name":"gasToken","type":"address","internalType":"address"},{"name":"refundReceiver","type":"address","internalType":"address"},{"name":"_nonce","type":"uint256","internalType":"uint256"}],"outputs":[{"name":"","type":"bytes32","internalType":"bytes32"}],"stateMutability":"view"},{"type":"function","name":"isModuleEnabled","inputs":[{"name":"module","type":"address","internalType":"address"}],"outputs":[{"name":"","type":"bool","internalType":"bool"}],"stateMutability":"view"},{"type":"function","name":"isOwner","inputs":[{"name":"owner","type":"address","internalType":"address"}],"outputs":[{"name":"","type":"bool","internalType":"bool"}],"stateMutability":"view"},{"type":"function","name":"nonce","inputs":[],"outputs":[{"name":"","type":"uint256","internalType":"uint256"}],"stateMutability":"view"},{"type":"function","name":"removeOwner","inputs":[{"name":"prevOwner","type":"address","internalType":"address"},{"name":"owner","type":"address","internalType":"address"},{"name":"_threshold","type":"uint256","internalType":"uint256"}],"outputs":[],"stateMutability":"nonpayable"},{"type":"function","name":"setFallbackHandler","inputs":[{"name":"handler","type":"address","internalType":"address"}],"outputs":[],"stateMutability":"nonpayable"},{"type":"function","name":"setGuard","inputs":[{"name":"guard","type":"address","internalType":"address"}],"outputs":[],"stateMutability":"nonpayable"},{"type":"function","name":"setup","inputs":[{"name":"_owners","type":"address[]","internalType":"address[]"},{"name":"_threshold","type":"uint256","internalType":"uint256"},{"name":"to","type":"address","internalType":"address"},{"name":"data","type":"bytes","internalType":"bytes"},{"name":"fallbackHandler","type":"address","internalType":"address"},{"name":"paymentToken","type":"address","internalType":"address"},{"name":"payment","type":"uint256","internalType":"uint256"},{"name":"paymentReceiver","type":"address","internalType":"address payable"}],"outputs":[],"stateMutability":"nonpayable"},{"type":"function","name":"signedMessages","inputs":[{"name":"","type":"bytes32","internalType":"bytes32"}],"outputs":[{"name":"","type":"uint256","internalType":"uint256"}],"stateMutability":"view"},{"type":"function","name":"simulateAndRevert","inputs":[{"name":"targetContract","type":"address","internalType":"address"},{"name":"calldataPayload","type":"bytes","internalType":"bytes"}],"outputs":[],"stateMutability":"nonpayable"},{"type":"function","name":"swapOwner","inputs":[{"name":"prevOwner","type":"address","internalType":"address"},{"name":"oldOwner","type":"address","internalType":"address"},{"name":"newOwner","type":"address","internalType":"address"}],"outputs":[],"stateMutability":"nonpayable"},{"type":"event","name":"AddedOwner","inputs":[{"name":"owner","type":"address","indexed":true,"internalType":"address"}],"anonymous":false},{"type":"event","name":"ApproveHash","inputs":[{"name":"approvedHash","type":"bytes32","indexed":true,"internalType":"bytes32"},{"name":"owner","type":"address","indexed":true,"internalType":"address"}],"anonymous":false},{"type":"event","name":"ChangedFallbackHandler","inputs":[{"name":"handler","type":"address","indexed":true,"internalType":"address"}],"anonymous":false},{"type":"event","name":"ChangedGuard","inputs":[{"name":"guard","type":"address","indexed":true,"internalType":"address"}],"anonymous":false},{"type":"event","name":"ChangedThreshold","inputs":[{"name":"threshold","type":"uint256","indexed":false,"internalType":"uint256"}],"anonymous":false},{"type":"event","name":"DisabledModule","inputs":[{"name":"module","type":"address","indexed":true,"internalType":"address"}],"anonymous":false},{"type":"event","name":"EnabledModule","inputs":[{"name":"module","type":"address","indexed":true,"internalType":"address"}],"anonymous":false},{"type":"event","name":"ExecutionFailure","inputs":[{"name":"txHash","type":"bytes32","indexed":true,"internalType":"bytes32"},{"name":"payment","type":"uint256","indexed":false,"internalType":"uint256"}],"anonymous":false},{"type":"event","name":"ExecutionFromModuleFailure","inputs":[{"name":"module","type":"address","indexed":true,"internalType":"address"}],"anonymous":false},{"type":"event","name":"ExecutionFromModuleSuccess","inputs":[{"name":"module","type":"address","indexed":true,"internalType":"address"}],"anonymous":false},{"type":"event","name":"ExecutionSuccess","inputs":[{"name":"txHash","type":"bytes32","indexed":true,"internalType":"bytes32"},{"name":"payment","type":"uint256","indexed":false,"internalType":"uint256"}],"anonymous":false},{"type":"event","name":"RemovedOwner","inputs":[{"name":"owner","type":"address","indexed":true,"internalType":"address"}],"anonymous":false},{"type":"event","name":"SafeReceived","inputs":[{"name":"sender","type":"address","indexed":true,"internalType":"address"},{"name":"value","type":"uint256","indexed":false,"internalType":"uint256"}],"anonymous":false},{"type":"event","name":"SafeSetup","inputs":[{"name":"initiator","type":"address","indexed":true,"internalType":"address"},{"name":"owners","type":"address[]","indexed":false,"internalType":"address[]"},{"name":"threshold","type":"uint256","indexed":false,"internalType":"uint256"},{"name":"initializer","type":"address","indexed":false,"internalType":"address"},{"name":"fallbackHandler","type":"address","indexed":false,"internalType":"address"}],"anonymous":false},{"type":"event","name":"SignMsg","inputs":[{"name":"msgHash","type":"bytes32","indexed":true,"internalType":"bytes32"}],"anonymous":false}],"bytecode":{"object":"0x608060405234601f57600e6040565b60405161344d610053823961344d90f35b5f80fd5b602d602d602d9290565b90565b90602d602d603c926023565b9055565b6050604a60016023565b60046030565b56fe60806040526004361015610029575b361561001f573415612daa575b5f80fd5b610027612d41565b005b5f3560e01c80630d582f131461020857806312fb68e0146102035780632d9ad53d146101fe5780632f54bf6e146101f95780633408e470146101f4578063468721a7146101ef5780635229073f146101ea5780635624b25b146101e55780635ae6bd37146101e0578063610b5925146101db578063694e80c3146101d65780636a761202146101d15780637d832974146101cc578063934f3a11146101c7578063a0e67e2b146101c2578063affed0e0146101bd578063b4faba09146101b8578063b63e800d146101b3578063cc2f8452146101ae578063d4d9bdcd146101a9578063d8d11f78146101a4578063e009cfde1461019f578063e19a9dd91461019a578063e318b52b14610195578063e75235b814610190578063e86637db1461018b578063f08a032314610186578063f698da2514610181578063f8dc5dd91461017c5763ffa1ad740361000e57610cfc565b610c9e565b610c5a565b610c42565b610c1a565b610bff565b610be6565b610ba5565b610b8c565b610b48565b610a8d565b610a5e565b610a0d565b610929565b6108d9565b6108a7565b61081f565b6107b0565b610745565b610643565b61062b565b610610565b61059c565b61053d565b6104c5565b610439565b610414565b6103e7565b6103b3565b610273565b6001600160a01b031690565b90565b6001600160a01b0381165b0361001b57565b9050359061023b8261021c565b565b80610227565b9050359061023b8261023d565b919060408382031261001b5761021990602061026c828661022e565b9401610243565b3461001b5761028c610286366004610250565b90610fb7565b60405180805b0390f35b634e487b7160e01b5f52604160045260245ffd5b90601f01601f191681019081106001600160401b038211176102cb57604052565b610296565b9061023b6102dd60405190565b92836102aa565b6001600160401b0381116102cb57602090601f01601f19160190565b0190565b90825f939282370152565b9092919261032461031f826102e4565b6102d0565b938185528183011161001b5761023b916020850190610304565b9080601f8301121561001b578160206102199335910161030f565b60808183031261001b5761036d8282610243565b9260208201356001600160401b03811161001b578361038d91840161033e565b926040830135906001600160401b03821161001b57606061026c8261021994870161033e565b3461001b5761028c6103c6366004610359565b92919091611285565b9060208282031261001b576102199161022e565b9052565b3461001b576102926104026103fd3660046103cf565b61164a565b60405191829182901515815260200190565b3461001b5761029261040261042a3660046103cf565b611694565b5f91031261001b57565b3461001b5761044936600461042f565b610292465b6040515b9182918290815260200190565b6002111561001b57565b9050359061023b8261045f565b60808183031261001b5761048a828261022e565b926104988360208401610243565b926040830135906001600160401b03821161001b5760606104be8261021994870161033e565b9401610469565b3461001b576102926104026104db366004610476565b929190916116f9565b90825f9392825e0152565b61051061051960209361030093610504815190565b80835293849260200190565b958691016104e4565b601f01601f191690565b9015158152604060208201819052610219929101906104ef565b3461001b57610559610550366004610476565b929190916117cb565b9061029261056660405190565b92839283610523565b919060408382031261001b5761021990602061026c8286610243565b6020808252610219929101906104ef565b3461001b576102926105b86105b236600461056f565b90611837565b6040519182918261058b565b9060208282031261001b5761021991610243565b905b5f5260205260405f2090565b610219916008021c81565b9061021991546105e6565b5f61060b6102199260076105d8565b6105f1565b3461001b5761029261044e6106263660046105c4565b6105fc565b3461001b5761028c61063e3660046103cf565b6119a2565b3461001b5761028c6106563660046105c4565b611a90565b909182601f8301121561001b578135916001600160401b03831161001b57602001926001830284011161001b57565b91906101408382031261001b576106a1818461022e565b926106af8260208301610243565b9260408201356001600160401b03811161001b57836106cf91840161065b565b9290936106df8160608401610469565b926106ed8260808501610243565b926106fb8360a08301610243565b926107098160c08401610243565b926107178260e0850161022e565b9261072683610100830161022e565b926101208201356001600160401b03811161001b57610219920161033e565b61029261040261075636600461068a565b99989098979197969296959395611c51565b6102199061020d906001600160a01b031682565b61021990610768565b6102199061077c565b906105da90610785565b61060b610219926107ab5f93600861078e565b6105d8565b3461001b5761029261044e6107c6366004610250565b90610798565b9160608383031261001b576107e18284610243565b9260208101356001600160401b03811161001b578361080191830161033e565b9260408201356001600160401b03811161001b57610219920161033e565b3461001b5761028c6108323660046107cc565b91611f94565b90610858610851610847845190565b8084529260200190565b9260200190565b905f5b8181106108685750505090565b90919261088e61088760019286516001600160a01b0316815260200190565b9460200190565b92910161085b565b602080825261021992910190610838565b3461001b576108b736600461042f565b6102926108c261202a565b60405191829182610896565b6102195f60056105f1565b3461001b576108e936600461042f565b61029261044e6108ce565b91909160408184031261001b5761090b838261022e565b9260208201356001600160401b03811161001b57610219920161033e565b3461001b576109393660046108f4565b906120b8565b909182601f8301121561001b578135916001600160401b03831161001b57602001926020830284011161001b57565b91906101008382031261001b5782356001600160401b03811161001b578161099791850161093f565b9290936109a78360208301610243565b926109b5816040840161022e565b9260608301356001600160401b03811161001b57826109d591850161065b565b9290936109e5826080830161022e565b926102196109f68460a0850161022e565b9360e0610a068260c08701610243565b940161022e565b3461001b5761028c610a2036600461096e565b989790979691969592959493946121df565b92916020610a4e61023b9360408701908782035f890152610838565b9401906001600160a01b03169052565b3461001b57610a77610a71366004610250565b90612317565b90610292610a8460405190565b92839283610a32565b3461001b5761028c610aa03660046105c4565b6124a7565b9190916101408184031261001b57610abd838261022e565b92610acb8160208401610243565b9260408301356001600160401b03811161001b5782610aeb91850161065b565b929093610afb8260608301610469565b92610b098360808401610243565b92610b178160a08501610243565b92610b258260c08301610243565b92610219610b368460e0850161022e565b9361012061026c82610100870161022e565b3461001b5761029261044e610b5e366004610aa5565b9998909897919796929695939561252c565b919060408382031261001b57610219906020610a06828661022e565b3461001b5761028c610b9f366004610b70565b90612660565b3461001b5761028c610bb83660046103cf565b6127e5565b909160608284031261001b57610219610bd6848461022e565b936040610a06826020870161022e565b3461001b5761028c610bf9366004610bbd565b916129d1565b3461001b57610c0f36600461042f565b61029261044e6129dc565b3461001b576102926105b8610c30366004610aa5565b99989098979197969296959395612abc565b3461001b5761028c610c553660046103cf565b612bb0565b3461001b57610c6a36600461042f565b61029261044e612c0f565b909160608284031261001b57610219610c8e848461022e565b93604061026c826020870161022e565b3461001b5761028c610cb1366004610c75565b91612d36565b90610cc461031f836102e4565b918252565b610cd36005610cb7565b64312e342e3160d81b602082015290565b610219610cc9565b610219610ce4565b610219610cec565b3461001b57610d0c36600461042f565b6102926105b8610cf4565b9061023b91610d24612e14565b610e59565b61020d6102196102199290565b61021990610d29565b6102196001610d36565b15610d5057565b60405162461bcd60e51b8152602060048201526005602482015264475332303360d81b6044820152606490fd5b6102199061020d565b6102199054610d7d565b15610d9757565b60405162461bcd60e51b815260206004820152600560248201526411d4cc8c0d60da1b6044820152606490fd5b906001600160a01b03905b9181191691161790565b90610de9610219610df092610785565b8254610dc4565b9055565b6102199081565b6102199054610df4565b634e487b7160e01b5f52601160045260245ffd5b5f198114610e275760010190565b610e05565b905f1990610dcf565b6102196102196102199290565b90610e52610219610df092610e35565b8254610e2c565b610f2490610f0381610ef9610e6d5f610d36565b6001600160a01b0381166001600160a01b038416141580610f9a575b80610f77575b610e9890610d49565b610ed6600291610ed0610ec3610eb6610eb1888761078e565b610d86565b926001600160a01b031690565b916001600160a01b031690565b14610d90565b610ede610d3f565b90610efe610eef610eb1848461078e565b610ef9868461078e565b610dd9565b61078e565b610f1f610f18610f136003610dfb565b610e19565b6003610e42565b610785565b7f9465fa0c962cc76958e6373a993326400c1c94f8be2fe3a952adfa7f60b2ea26610f4e60405190565b5f90a2610f5b6004610dfb565b8190610f66565b9190565b03610f6e5750565b61023b90611a90565b50610e98610f8761020d30610785565b6001600160a01b03851614159050610e8f565b50610fa661020d610d3f565b6001600160a01b0384161415610e89565b9061023b91610d17565b15610fc857565b60405162461bcd60e51b8152602060048201526005602482015264047533032360dc1b6044820152606490fd5b6110026102196102199290565b60ff1690565b61103761023b94611030606094989795611026608086019a5f870152565b60ff166020850152565b6040830152565b0152565b6040513d5f823e3d90fd5b90610300610cc46020937f19457468657265756d205369676e6564204d6573736167653a0a3332000000008152601c0190565b60ff908116911690039060ff8211610e2757565b61021990610e35565b1561109d57565b60405162461bcd60e51b8152602060048201526005602482015264475330323560d81b6044820152606490fd5b156110d157565b60405162461bcd60e51b8152602060048201526005602482015264475330323760d81b6044820152606490fd5b1561110557565b60405162461bcd60e51b8152602060048201526005602482015264475330323160d81b6044820152606490fd5b1561113957565b60405162461bcd60e51b815260206004820152600560248201526423a998191960d91b6044820152606490fd5b1561116d57565b60405162461bcd60e51b8152602060048201526005602482015264475330323360d81b6044820152606490fd5b6001600160e01b03198116610227565b9050519061023b8261119a565b9060208282031261001b57610219916111aa565b60408082526102199391926111e2918401906104ef565b9160208184039101526104ef565b6112036111fd6102199290565b60e01b90565b6001600160e01b03191690565b6102196320c13b0b6111f0565b1561122457565b60405162461bcd60e51b815260206004820152600560248201526411d4cc0c8d60da1b6044820152606490fd5b1561125857565b60405162461bcd60e51b815260206004820152600560248201526423a998191b60d91b6044820152606490fd5b9093929193611292855190565b916112b86112a06041610e35565b936112b1610f626102198789612e31565b1015610fc1565b6112c15f610d36565b9283915f916112cf5f610e35565b80945b8886101561163d578289918c87878b6113018c8560419182020160208101516040820151919092015160ff1692565b939092909161130f5f610ff5565b60ff82160361150a57509361141f96959361136b6113666113616113f69661135c610f1f97611356610f628d6113516113d49f61134a905190565b9160200190565b209290565b146110ca565b61108d565b610d29565b61077c565b9461138e611386610219889c6113808661108d565b9e612e31565b8c10156110fe565b6113ee6113d960209c8d998a966113a488610e35565b906113c76113b28386612e70565b6113c0610f626102198b5190565b1115611132565b5087878701015192612e70565b612e70565b6113e7610f62610219855190565b1115611166565b010192610785565b8c61140060405190565b8096819482936114146320c13b0b60e01b90565b8452600484016111cb565b03915afa93841561150557611488946114619361020d925f926114d8575b505061145b61144d611203611210565b916001600160e01b03191690565b1461121d565b6001600160a01b03821611806114b0575b8061148e575b61148190611251565b9560010190565b946112d2565b5061148161149d61020d610d3f565b6001600160a01b03831614159050611478565b506114bf610eb182600261078e565b6114d16001600160a01b038b16610ec3565b1415611472565b6114f79250803d106114fe575b6114ef81836102aa565b8101906111b7565b5f8061143d565b503d6114e5565b61103b565b9550505094509294505060019161152083610ff5565b60ff83160361158b57505050906114616115426113666113616114889561108d565b9161020d336001600160a01b038516148689868315611564575b505050611096565b611581929350610219916107ab61157c92600861078e565b610dfb565b141586895f61155c565b925f929160209461159c601e610ff5565b60ff831611851461162657611606906115f38b6115d66115bb60405190565b80926115ca8c83019182611046565b908103825203826102aa565b6115e161134a825190565b20936115ed6004610ff5565b90611079565b936115fd60405190565b94859485611008565b84805203915afa15611505575f51611488916001600160a01b0316611461565b6116069061163360405190565b9384938c85611008565b5050505050505050509050565b611652610d3f565b6116646001600160a01b038316610ec3565b14159081611670575090565b6116809150610eb190600161078e565b61168f610ec361020d5f610d36565b141590565b61169f61020d610d3f565b6001600160a01b038216141590816116b5575090565b6116809150610eb190600261078e565b156116cc57565b60405162461bcd60e51b815260206004820152600560248201526411d4cc4c0d60da1b6044820152606490fd5b9161172c93916117065f90565b5061171261020d610d3f565b331415806117a1575b611724906116c5565b5f1993612e91565b90811561176e5761173c33610785565b7f6895c13664aa4f67288b25d7a21d7aaa34916e355fb9b6fae0a139a9085becb861176660405190565b80805b0390a2565b61177733610785565b7facd2c8702804128fdb0db2bb49f6d127dd0181c13fd45dbfe16de0930e2bd37561176660405190565b506117246117b3610eb133600161078e565b6117c2610ec361020d5f610d36565b1415905061171b565b6117d7939291906116f9565b9060405160203d0181016040523d81523d5f602083013e90565b91906117fc565b9290565b91808302928184041490151715610e2757565b369037565b9061023b61182a61182484610cb7565b936102e4565b601f19016020840161180f565b9160209061185661185161184b6020610e35565b856117f1565b611814565b906118605f610e35565b8481101561187c57808601548482028585010152600101611860565b50935091505090565b61023b90611891612e14565b6118fe565b1561189d57565b60405162461bcd60e51b8152602060048201526005602482015264475331303160d81b6044820152606490fd5b156118d157565b60405162461bcd60e51b815260206004820152600560248201526423a998981960d91b6044820152606490fd5b61195690610f1f81610ef96119125f610d36565b6001600160a01b0381166001600160a01b038416141580611980575b61193790611896565b610ed6600191611950610ec3610eb6610eb1888761078e565b146118ca565b7fecdf3a3effea5783a3c4c2140e677577666428d44ed9d474a0b3a4c9943f844061176660405190565b5061193761198f61020d610d3f565b6001600160a01b0385161415905061192e565b61023b90611885565b61023b906119b7612e14565b611a24565b156119c357565b60405162461bcd60e51b8152602060048201526005602482015264475332303160d81b6044820152606490fd5b156119f757565b60405162461bcd60e51b815260206004820152600560248201526423a999181960d91b6044820152606490fd5b611a5d90611a40611a386102196003610dfb565b8211156119bc565b611a56611a4d6001610e35565b825b10156119f0565b6004610e42565b7f610f7ff2b304ae8903c3de74c60c6ab1f7d6226b3f52c5161905bb5ad4039c93611a8b61044e6004610dfb565b0390a1565b61023b906119ab565b919061051981611ab0816103009560209181520190565b8095610304565b634e487b7160e01b5f52602160045260245ffd5b60021115611ad557565b611ab7565b9061023b82611acb565b61021990611ada565b6103e390611ae4565b9c9b99939760c08e611037611b93989a61023b9f9a611b6b906101409f98610a4e9f86611b5991611b829d611b4c611b6495611b45611b729f5f61016088019701906001600160a01b03169052565b60208c0152565b89830360408b0152611a99565b9e6060870190611aed565b6080850152565b60a0830152565b6001600160a01b031660e08c0152565b6001600160a01b03166101008a0152565b8782036101208901526104ef565b634e487b7160e01b5f52601260045260245ffd5b8115611bbf570490565b611ba1565b91908201809211610e2757565b15611bd857565b60405162461bcd60e51b8152602060048201526005602482015264047533031360dc1b6044820152606490fd5b91908203918211610e2757565b61021991369161030f565b15611c2457565b60405162461bcd60e51b8152602060048201526005602482015264475330313360d81b6044820152606490fd5b9a9995909498939691979289611c8d868e8787878f8f898f928a93611c735f90565b50611c87611c816005610dfb565b9a610785565b98612abc565b99611ca5611c9e610f136005610dfb565b6005610e42565b611cbd898c611cb561134a825190565b209c8d611f94565b611cc5612ed0565b99611cd261020d5f610d36565b6001600160a01b038c161415998a611eea575b505a611cf16040610e35565b611cfb90856117f1565b611d05603f610e35565b611d0e91611bb5565b611d196109c4610e35565b611d239086611bc4565b611d2c91612edc565b611d376101f4610e35565b611d4091611bc4565b1115611d4b90611bd1565b5a9e611d565f610e35565b8714998a5f14611db396611d8e96611d8892611d825750611d825a611d7c6109c4610e35565b90611c05565b95611c12565b91612e91565b99611d9b8b9d5a90612eed565b968b918c15611ed2575b508115611ec9575b50611c1d565b611dbc5f610e35565b94858311611eb5575b5050505050845f14611e83577f442e715f626346e8c54381002da614f62bee8d27386535b2521ec8540898556e611e01855b9261045260405190565b0390a25b611e0e57505050565b610f1f611e1a91610785565b91823b1561001b57611e5b925f9283611e3260405190565b809681958294611e46639327136860e01b90565b84526004840152151560248301526044820190565b03925af1801561150557611e6c5750565b61023b905f611e7b81836102aa565b81019061042f565b7f23428b18acfb3ea64b08dc0c1d296ea9c09702c09083ca5272e64d115b687d23611ead85611df7565b0390a2611e05565b611ebf9550612f6b565b5f80808080611dc5565b9050155f611dad565b909150611ee1610f625f610e35565b1415905f611da5565b909250611ef9610f1f8c610785565b803b1561001b578f838f918c87958d8d8d8d8d98611f1660405190565b9d8e9a8b9a633af85da960e11b8c52339960048d019b611f359c611af6565b03815a5f948591f1928315611505578d9315611ce557611f5a905f611e7b81836102aa565b5f611ce5565b15611f6757565b60405162461bcd60e51b8152602060048201526005602482015264475330303160d81b6044820152606490fd5b909161023b92611fa46004610dfb565b92611fb8611fb15f610e35565b8511611f60565b611285565b6001600160401b0381116102cb5760208091020190565b90610cc461031f83611fbd565b9061023b61182a611ff184611fd4565b93611fbd565b634e487b7160e01b5f52603260045260245ffd5b90612014825190565b811015612025576020809102010190565b611ff7565b61203c6120376003610dfb565b611fe1565b906120465f610e35565b91600290612052610d3f565b92612061610eb185600261078e565b6001600160a01b0385165b6001600160a01b0382161461187c576120b06120aa610eb1836120a461206c956120968c8a61200b565b906001600160a01b03169052565b8761078e565b96610e19565b959050612061565b5f918291602082519201905af45f523d6020523d5f60403e60403d015ffd5b909291926120e761031f82611fbd565b938185526020808601920283019281841161001b57915b83831061210b5750505050565b60208091612119848661022e565b8152019201916120fe565b6102199136916120d7565b5061021990602081019061022e565b818352602090920191905f825b828210612159575050505090565b90919293612188612181600192612170888661212f565b6001600160a01b0316815260200190565b9560200190565b9392019061214b565b9061023b946121c06121b86121d0936060969a99979a60808701918783035f89015261213e565b986020850152565b6001600160a01b03166040830152565b01906001600160a01b03169052565b95939661224c61224661176997849a612226879e96976122217f141df868a6331af528e38c83b7aa03edc19be66e37ae67f9285bf4f8e3c6a1a89f998e612124565b613086565b61223261020d5f610d36565b6001600160a01b038a16036122a157611c12565b856132e7565b6122555f610e35565b831161227b575b50505061226833610785565b9661227260405190565b95869586612191565b612298926122885f610e35565b6122926001610e35565b91612f6b565b505f808061225c565b6122aa89613220565b611c12565b156122b657565b60405162461bcd60e51b8152602060048201526005602482015264475331303560d81b6044820152606490fd5b156122ea57565b60405162461bcd60e51b815260206004820152600560248201526423a998981b60d91b6044820152606490fd5b91610eb191612324610d3f565b936001600160a01b0385166001600160a01b03821614801561245f575b61234a906122af565b61235d6123565f610e35565b83116122e3565b61236682611fe1565b9081956123725f610e35565b9361238160019788948561078e565b965b6123d7575b506001600160a01b03166001600160a01b038616036123a5575052565b6123d39194506123c06123ba6123c692610e35565b84611c05565b8561200b565b516001600160a01b031690565b9252565b909193956123e761020d5f610d36565b6001600160a01b038216141580612443575b8061243a575b15612431579061242b612425610eb18461241f8997966120968d8b61200b565b8661078e565b97610e19565b94612383565b95939190612388565b508187106123ff565b506001600160a01b0383166001600160a01b03821614156123f9565b5061234a61246c8261164a565b9050612341565b1561247a57565b60405162461bcd60e51b8152602060048201526005602482015264047533033360dc1b6044820152606490fd5b6124f3906124d26124bc610eb133600261078e565b6124cb610ec361020d5f610d36565b1415612473565b6102196124df6001610e35565b6124ee836107ab33600861078e565b610e42565b6124fc33610785565b907ff2a0eb156472d1440255b0d7c1e19cc07115d1051fe605b0dce69acfec884d9c61252760405190565b5f90a3565b61253f9a99989796959493929190612abc565b61254a61134a825190565b2090565b9061023b9161255b612e14565b612594565b1561256757565b60405162461bcd60e51b8152602060048201526005602482015264475331303360d81b6044820152606490fd5b90610f1f61261492610ef9836125a95f610d36565b926001600160a01b0384166001600160a01b03831614158061263e575b6125cf90611896565b610efe6001916125fd6125e5610eb1838661078e565b6125f76001600160a01b038716610ec3565b14612560565b610ef961260d610eb1868661078e565b918461078e565b7faab4fa2b463f581b2b32cb3b7e3b704b9ce37cc209b5fb4d77e593ace405427661176660405190565b506125cf61264d61020d610d3f565b6001600160a01b038416141590506125c6565b9061023b9161254e565b61023b90612676612e14565b612701565b801515610227565b9050519061023b8261267b565b9060208282031261001b5761021991612683565b156126ab57565b60405162461bcd60e51b8152602060048201526005602482015264047533330360dc1b6044820152606490fd5b6102197f4a204f620c8c5ccdca3fd54d003badd85ba500436a431f0cbda4f558c93c34c8610e35565b61270d61020d5f610d36565b6001600160a01b0382160361275a575b806127309161272a6126d8565b55610785565b7f1151116914515bc0891ff9047a6cb32cf902546f83066499bcf8ba33d2353fa261176660405190565b612766610f1f82610785565b90602061277260405190565b6301ffc9a760e01b815263736bd41d60e11b600482015292839060249082905afa91821561150557612730926127af915f916127b6575b506126a4565b905061271d565b6127d8915060203d6020116127de575b6127d081836102aa565b810190612690565b5f6127a9565b503d6127c6565b61023b9061266a565b9061023b92916127fc612e14565b612835565b1561280857565b60405162461bcd60e51b8152602060048201526005602482015264475332303560d81b6044820152606490fd5b6129459291610f1f61291392610ef98361284e5f610d36565b926001600160a01b0384166001600160a01b0389161415806129b4575b80612991575b61287a90610d49565b610efe88610ef96002936128a6612894610eb1858861078e565b610ed06001600160a01b038b16610ec3565b6001600160a01b0388166001600160a01b03871614158061296f575b6128cb90610d49565b6128f36128db610eb1838861078e565b6128ed6001600160a01b038916610ec3565b14612801565b61290d612903610eb1888861078e565b610ef9858861078e565b8461078e565b7ff8d49fc529812e9a7c5c50e69c20f0dccc0db8fa95c98bc58cc9a4f1c1299eaf61293d60405190565b5f90a2610785565b7f9465fa0c962cc76958e6373a993326400c1c94f8be2fe3a952adfa7f60b2ea2661176660405190565b506128cb61297e61020d610d3f565b6001600160a01b038816141590506128c2565b5061287a6129a161020d30610785565b6001600160a01b038a1614159050612871565b506129c061020d610d3f565b6001600160a01b038916141561286b565b9061023b92916127ee565b6102196004610dfb565b6102197fbb8310d486368db6bd6f849402fdd73ad53d316b5a4b2644ad6efe0f941286d8610e35565b98969492909b9a99979593916101608a019c5f8b01612a2c919052565b6001600160a01b031660208a01526040890152606088015260808701612a5191611aed565b60a086015260c085015260e08401526001600160a01b03166101008301526001600160a01b03166101208201526101400152565b612a98612a926102199290565b60f81b90565b6001600160f81b03191690565b0180926001600160f81b0319169052565b01918252565b979294612b059994612ae86115ca98939c97999499612ad9606090565b50612ae26129e6565b9a611c12565b612af361134a825190565b206040519c8d9b60208d019b8c612a0f565b612b1061134a825190565b20610219612b1e6019612a85565b612b286001612a85565b906115ca612b34612c0f565b94612b3e60405190565b95869460208601948592612ab6600161030094612ab68288612aa560209b9a8c996001600160f81b0319169052565b61023b90612b79612e14565b612b8690610f1f81613220565b7f5ac6c46c93c8d0e53714ba3b53db3e7c046da994313d7ed0d192028bc7c228b061176660405190565b61023b90612b6d565b6102197f47e79534a245952e8b16893a336b85a3d9ea9fa8c573f3d803afb92a79469218610e35565b6103e390610785565b90815260608101939261023b929091604091612c08906020830152565b0190612be2565b6115ca61253f612c1d612bb9565b466040519384926020840192309184612beb565b9061023b9291612c3f612e14565b612c50565b8015610e27575f190190565b90612cd5612cea92612c7a612c72612c686003610dfb565b611d7c6001610e35565b8611156119bc565b610ef983612c875f610d36565b926001600160a01b0384166001600160a01b038316141580612d14575b612cad90610d49565b610efe6002916125fd612cc3610eb1838661078e565b6128ed6001600160a01b038716610ec3565b610f1f610f18612ce56003610dfb565b612c44565b7ff8d49fc529812e9a7c5c50e69c20f0dccc0db8fa95c98bc58cc9a4f1c1299eaf610f4e60405190565b50612cad612d2361020d610d3f565b6001600160a01b03841614159050612ca4565b9061023b9291612c31565b612d4a33610785565b7f3d0ce9bfc3ed7d6862dbb28b2dea94561fe714a1b4d019aa8af39730d1ad7c3d612d7460405190565b3481528060208101611769565b6102197f6c9a6c4a39284e37ed1cf53d337577d14212a4870fb976a4366c693b939918d5610e35565b612db2612d81565b548015610027575f8091368280373360601b3652818060143601925af13d5f803e15612ddc573d5ff35b3d5ffd5b15612de757565b60405162461bcd60e51b8152602060048201526005602482015264475330333160d81b6044820152606490fd5b61023b612e2361020d30610785565b3314612de0565b1561001b57565b90612e3b5f610e35565b8214612e655780612e5f610f626117f8612e5861021995876117f1565b9586611bb5565b14612e2a565b50506102195f610e35565b90612e896117f861021992612e825f90565b5084611bc4565b821015612e2a565b5f94918594612e9d5f90565b50612eb1612eab6001611ada565b91611ada565b148514612ec4575060208351930191f490565b9060208451940192f190565b612ed86126d8565b5490565b90808210612ee8575090565b905090565b6102199190612efe81831115612e2a565b611c05565b15612f0a57565b60405162461bcd60e51b815260206004820152600560248201526423a998189960d91b6044820152606490fd5b15612f3e57565b60405162461bcd60e51b8152602060048201526005602482015264475330313160d81b6044820152606490fd5b909192949394612f785f90565b50612f825f610d36565b956001600160a01b038716612f9682610785565b036130435750612fb5612fa832610785565b966001600160a01b031690565b6001600160a01b0382160361301357505f80612fea61023b95612fda83968496612e70565b903a8110841461300b5790612e31565b612ff48198610785565b828215613002575bf1612f37565b506108fc612ffc565b503a90612e31565b9061023b9361302861303e9461302d93612e70565b612e31565b906130388296610785565b9061338e565b612f03565b956001600160a01b0316612fb5565b1561305957565b60405162461bcd60e51b8152602060048201526005602482015264047533230360dc1b6044820152606490fd5b91906130a76130956004610dfb565b6130a1610f625f610e35565b14613052565b6130b5611a38610219855190565b6001926130cb6130c56001610e35565b83611a4f565b6130d3610d3f565b938490806130e05f610e35565b915b613107575b5050611a569161310361023b9596610ef9610f1894600261078e565b5190565b9091613114610219855190565b8310156131e657610ef961318861318f926131326123c6878961200b565b92839161313e5f610d36565b6001600160a01b0381166001600160a01b0385161415806131ca575b806131ac575b80613196575b61316f90610d49565b610efe600291610ed0610ec3610eb6610eb1898761078e565b9260010190565b90806130e2565b506001600160a01b038281169085161415613166565b506131b961020d30610785565b6001600160a01b0385161415613160565b506001600160a01b038d166001600160a01b038516141561315a565b916130e7565b156131f357565b60405162461bcd60e51b8152602060048201526005602482015264047533430360dc1b6044820152606490fd5b61324061322f61020d30610785565b6001600160a01b03831614156131ec565b613248612d81565b55565b1561325257565b60405162461bcd60e51b8152602060048201526005602482015264047533130360dc1b6044820152606490fd5b1561328657565b60405162461bcd60e51b815260206004820152600560248201526423a998181960d91b6044820152606490fd5b156132ba57565b60405162461bcd60e51b8152602060048201526005602482015264047533030360dc1b6044820152606490fd5b906001916133366132f6610d3f565b61020d613306610eb1838861078e565b9161332c6133135f610d36565b936133266001600160a01b038616610ec3565b1461324b565b610ef9818861078e565b6001600160a01b0382160361334a57505050565b61023b9261336c9261336361335e84613406565b61327f565b6117245f610e35565b6132b3565b6001600160a01b03909116815260408101929161023b9160200152565b6004906133d85f936133ca6020966133a35f90565b506133b163a9059cbb6111f0565b926133bb60405190565b9687948a860190815201613371565b8682018103825203836102aa565b828483519301916127105a03f13d8015613402576020146133f857505f90565b5f51159015171590565b5090565b3b613413610f625f610e35565b119056fea26469706673582212201f7195b427d12c922c4801b8fe51f81e0552143c2218bcbc1d1effa9dd44275f64736f6c634300081c0033","linkReferences":{}},"methodIdentifiers":{"VERSION()":"ffa1ad74","addOwnerWithThreshold(address,uint256)":"0d582f13","approveHash(bytes32)":"d4d9bdcd","approvedHashes(address,bytes32)":"7d832974","changeThreshold(uint256)":"694e80c3","checkNSignatures(bytes32,bytes,bytes,uint256)":"12fb68e0","checkSignatures(bytes32,bytes,bytes)":"934f3a11","disableModule(address,address)":"e009cfde","domainSeparator()":"f698da25","enableModule(address)":"610b5925","encodeTransactionData(address,uint256,bytes,uint8,uint256,uint256,uint256,address,address,uint256)":"e86637db","execTransaction(address,uint256,bytes,uint8,uint256,uint256,uint256,address,address,bytes)":"6a761202","execTransactionFromModule(address,uint256,bytes,uint8)":"468721a7","execTransactionFromModuleReturnData(address,uint256,bytes,uint8)":"5229073f","getChainId()":"3408e470","getModulesPaginated(address,uint256)":"cc2f8452","getOwners()":"a0e67e2b","getStorageAt(uint256,uint256)":"5624b25b","getThreshold()":"e75235b8","getTransactionHash(address,uint256,bytes,uint8,uint256,uint256,uint256,address,address,uint256)":"d8d11f78","isModuleEnabled(address)":"2d9ad53d","isOwner(address)":"2f54bf6e","nonce()":"affed0e0","removeOwner(address,address,uint256)":"f8dc5dd9","setFallbackHandler(address)":"f08a0323","setGuard(address)":"e19a9dd9","setup(address[],uint256,address,bytes,address,address,uint256,address)":"b63e800d","signedMessages(bytes32)":"5ae6bd37","simulateAndRevert(address,bytes)":"b4faba09","swapOwner(address,address,address)":"e318b52b"},"storageLayout":{"storage":[{"astId":55050,"contract":"lib/safe-smart-account/contracts/Safe.sol:Safe","label":"singleton","offset":0,"slot":"0","type":"t_address"},{"astId":54040,"contract":"lib/safe-smart-account/contracts/Safe.sol:Safe","label":"modules","offset":0,"slot":"1","type":"t_mapping(t_address,t_address)"},{"astId":54458,"contract":"lib/safe-smart-account/contracts/Safe.sol:Safe","label":"owners","offset":0,"slot":"2","type":"t_mapping(t_address,t_address)"},{"astId":54460,"contract":"lib/safe-smart-account/contracts/Safe.sol:Safe","label":"ownerCount","offset":0,"slot":"3","type":"t_uint256"},{"astId":54462,"contract":"lib/safe-smart-account/contracts/Safe.sol:Safe","label":"threshold","offset":0,"slot":"4","type":"t_uint256"},{"astId":52948,"contract":"lib/safe-smart-account/contracts/Safe.sol:Safe","label":"nonce","offset":0,"slot":"5","type":"t_uint256"},{"astId":52950,"contract":"lib/safe-smart-account/contracts/Safe.sol:Safe","label":"_deprecatedDomainSeparator","offset":0,"slot":"6","type":"t_bytes32"},{"astId":52954,"contract":"lib/safe-smart-account/contracts/Safe.sol:Safe","label":"signedMessages","offset":0,"slot":"7","type":"t_mapping(t_bytes32,t_uint256)"},{"astId":52960,"contract":"lib/safe-smart-account/contracts/Safe.sol:Safe","label":"approvedHashes","offset":0,"slot":"8","type":"t_mapping(t_address,t_mapping(t_bytes32,t_uint256))"}],"types":{"t_address":{"encoding":"inplace","label":"address","numberOfBytes":"20"},"t_bytes32":{"encoding":"inplace","label":"bytes32","numberOfBytes":"32"},"t_mapping(t_address,t_address)":{"encoding":"mapping","key":"t_address","label":"mapping(address => address)","numberOfBytes":"32","value":"t_address"},"t_mapping(t_address,t_mapping(t_bytes32,t_uint256))":{"encoding":"mapping","key":"t_address","label":"mapping(address => mapping(bytes32 => uint256))","numberOfBytes":"32","value":"t_mapping(t_bytes32,t_uint256)"},"t_mapping(t_bytes32,t_uint256)":{"encoding":"mapping","key":"t_bytes32","label":"mapping(bytes32 => uint256)","numberOfBytes":"32","value":"t_uint256"},"t_uint256":{"encoding":"inplace","label":"uint256","numberOfBytes":"32"}}},"id":76}