{"abi":[{"type":"function","name":"UPGRADE_INTERFACE_VERSION","inputs":[],"outputs":[{"name":"","type":"string","internalType":"string"}],"stateMutability":"view"},{"type":"function","name":"addAsset","inputs":[{"name":"vault","type":"address","internalType":"address"}],"outputs":[],"stateMutability":"nonpayable"},{"type":"function","name":"getAssets","inputs":[],"outputs":[{"name":"","type":"address[]","internalType":"address[]"}],"stateMutability":"view"},{"type":"function","name":"getConfig","inputs":[],"outputs":[{"name":"","type":"address","internalType":"address"}],"stateMutability":"view"},{"type":"function","name":"getVault","inputs":[{"name":"asset","type":"address","internalType":"address"}],"outputs":[{"name":"","type":"address","internalType":"address"}],"stateMutability":"view"},{"type":"function","name":"getVaultBalance","inputs":[{"name":"asset","type":"address","internalType":"address"}],"outputs":[{"name":"","type":"uint256","internalType":"uint256"}],"stateMutability":"view"},{"type":"function","name":"getVaultDepositLimit","inputs":[{"name":"asset","type":"address","internalType":"address"}],"outputs":[{"name":"","type":"uint256","internalType":"uint256"}],"stateMutability":"view"},{"type":"function","name":"hasAsset","inputs":[{"name":"asset","type":"address","internalType":"address"}],"outputs":[{"name":"","type":"bool","internalType":"bool"}],"stateMutability":"view"},{"type":"function","name":"initialize","inputs":[{"name":"configAddr","type":"address","internalType":"address"}],"outputs":[],"stateMutability":"nonpayable"},{"type":"function","name":"proxiableUUID","inputs":[],"outputs":[{"name":"","type":"bytes32","internalType":"bytes32"}],"stateMutability":"view"},{"type":"function","name":"removeAsset","inputs":[{"name":"asset","type":"address","internalType":"address"}],"outputs":[],"stateMutability":"nonpayable"},{"type":"function","name":"upgradeToAndCall","inputs":[{"name":"newImplementation","type":"address","internalType":"address"},{"name":"data","type":"bytes","internalType":"bytes"}],"outputs":[],"stateMutability":"payable"},{"type":"function","name":"version","inputs":[],"outputs":[{"name":"","type":"string","internalType":"string"}],"stateMutability":"pure"},{"type":"event","name":"AssetAdded","inputs":[{"name":"asset","type":"address","indexed":true,"internalType":"address"},{"name":"vault","type":"address","indexed":true,"internalType":"address"}],"anonymous":false},{"type":"event","name":"AssetRemoved","inputs":[{"name":"asset","type":"address","indexed":true,"internalType":"address"},{"name":"vault","type":"address","indexed":true,"internalType":"address"}],"anonymous":false},{"type":"event","name":"Initialized","inputs":[{"name":"version","type":"uint64","indexed":false,"internalType":"uint64"}],"anonymous":false},{"type":"event","name":"Upgraded","inputs":[{"name":"implementation","type":"address","indexed":true,"internalType":"address"}],"anonymous":false},{"type":"error","name":"AddressEmptyCode","inputs":[{"name":"target","type":"address","internalType":"address"}]},{"type":"error","name":"AssetAlreadyAdded","inputs":[]},{"type":"error","name":"AssetNotAdded","inputs":[]},{"type":"error","name":"ERC1967InvalidImplementation","inputs":[{"name":"implementation","type":"address","internalType":"address"}]},{"type":"error","name":"ERC1967NonPayable","inputs":[]},{"type":"error","name":"FailedInnerCall","inputs":[]},{"type":"error","name":"InvalidInitialization","inputs":[]},{"type":"error","name":"InvalidZeroAddress","inputs":[]},{"type":"error","name":"NotInitializing","inputs":[]},{"type":"error","name":"UUPSUnauthorizedCallContext","inputs":[]},{"type":"error","name":"UUPSUnsupportedProxiableUUID","inputs":[{"name":"slot","type":"bytes32","internalType":"bytes32"}]},{"type":"error","name":"VaultNotEmpty","inputs":[]},{"type":"error","name":"VaultNotFound","inputs":[{"name":"asset","type":"address","internalType":"address"}]}],"bytecode":{"object":"0x60a06040523461003257610011610036565b6040516113d46101ce8239608051818181610f1d01526110b501526113d490f35b5f80fd5b61003e610040565b565b61003e61004b610053565b61003e610120565b61003e61003e61003e61004b61003e61009c565b61007b9061007e906001600160a01b031682565b90565b6001600160a01b031690565b61007b90610067565b61007b9061008a565b6100a530610093565b608052565b61007b9060401c60ff1690565b61007b90546100aa565b61007b905b6001600160401b031690565b61007b90546100c1565b61007b906100c6906001600160401b031682565b9061010061007b61011c926100dc565b82546001600160401b0319166001600160401b03919091161790565b9055565b7ff0c57e16840df040f15088dc2f81fe391c3923bec73e23a9662efc9c229c6a0061014a816100b7565b6101bc57610157816100d2565b6001600160401b039190829081160361016e575050565b8161019d7fc7f505b2f371ae2175ee4913f4499e1f2633a7b5936321eed1cdaeb6115181d2936101b7936100f0565b604051918291826001600160401b03909116815260200190565b0390a1565b63f92ee8a960e01b5f908152600490fdfe60806040526004361015610011575f80fd5b5f3560e01c80630eb9af38146100e0578063298410e5146100db5780634a5e42b1146100d65780634f1ef286146100d157806352d1902d146100cc57806354fd4d50146100c757806367e4ac2c146100c2578063a567fb47146100bd578063ad3cb1cc146100b8578063b854007b146100b3578063c3f909d4146100ae578063c4d66de8146100a95763d3d7c002036100e5576104cb565b6104b3565b610498565b61047d565b610462565b6103f0565b6103c9565b610333565b6102b8565b61029a565b610187565b61016a565b610131565b5f80fd5b6001600160a01b031690565b90565b6001600160a01b0381165b036100e557565b90503590610117826100f8565b565b906020828203126100e5576100f59161010a565b9052565b346100e55761016661014c610147366004610119565b61050c565b604051918291826001600160a01b03909116815260200190565b0390f35b346100e55761018261017d366004610119565b610795565b604051005b346100e55761018261019a366004610119565b61097c565b634e487b7160e01b5f52604160045260245ffd5b90601f01601f1916810190811067ffffffffffffffff8211176101d557604052565b61019f565b906101176101e760405190565b92836101b3565b67ffffffffffffffff81116101d557602090601f01601f19160190565b0190565b90825f939282370152565b9092919261022f61022a826101ee565b6101da565b93818552818301116100e55761011791602085019061020f565b9080601f830112156100e5578160206100f59335910161021a565b9190916040818403126100e55761027b838261010a565b92602082013567ffffffffffffffff81116100e5576100f59201610249565b6101826102a8366004610264565b906109a5565b5f9103126100e557565b346100e5576102c83660046102ae565b6101666102d36109f2565b6040519182918290815260200190565b90825f9392825e0152565b61030f61031860209361020b93610303815190565b80835293849260200190565b958691016102e3565b601f01601f191690565b60208082526100f5929101906102ee565b346100e5576103433660046102ae565b61016661034e6109fb565b60405191829182610322565b9061037a610373610369845190565b8084529260200190565b9260200190565b905f5b81811061038a5750505090565b9091926103b06103a960019286516001600160a01b0316815260200190565b9460200190565b92910161037d565b60208082526100f59291019061035a565b346100e5576103d93660046102ae565b6101666103e4610a95565b604051918291826103b8565b346100e55761016661040b610406366004610119565b610a9f565b60405191829182901515815260200190565b9061042a61022a836101ee565b918252565b610439600561041d565b640352e302e360dc1b602082015290565b6100f561042f565b6100f561044a565b6100f5610452565b346100e5576104723660046102ae565b61016661034e61045a565b346100e5576101666102d3610493366004610119565b610aa8565b346100e5576104a83660046102ae565b61016661014c610b00565b346100e5576101826104c6366004610119565b610d22565b346100e5576101666102d36104e1366004610119565b610d2b565b6100f5906100e9906001600160a01b031682565b6100f5906104e6565b6100f5906104fa565b6105206100f59161051a5f90565b50610d92565b610503565b6040513d5f823e3d90fd5b61053b610520610dc5565b90813b156100e5575f61054d60405190565b637f918e7f60e01b815233600482015292839060249082905afa91821561059a576101179261057d575b506106b7565b610594905f61058c81836101b3565b8101906102ae565b5f610577565b610525565b90505190610117826100f8565b906020828203126100e5576100f59161059f565b156105c757565b635ed2680160e01b5f908152600490fd5b906105e290610503565b5f5260205260405f2090565b906001600160a01b03905b9181191691161790565b906106136100f561061a92610503565b82546105ee565b9055565b634e487b7160e01b5f52603260045260245ffd5b80548210156106525761064a6001915f5260205f2090565b910201905f90565b61061e565b916001600160a01b0360089290920291821b911b6105f9565b91906106816100f561061a93610503565b908354610657565b90815491680100000000000000008310156101d557826106b191600161011795018155610632565b90610670565b6106c361052082610503565b60206106ce60405190565b635c222bad60e01b815291829060049082905afa90811561059a5761073691610730915f91610766575b5061071161070c61070883610dd1565b1590565b6105c0565b610725846107208360336105d8565b610603565b610520816034610689565b91610503565b907f0bb5715f0f217c2fe9a0c877ea87d474380c641102f3440ee2a4c8b9d979091861076160405190565b5f90a3565b610788915060203d60201161078e575b61078081836101b3565b8101906105ac565b5f6106f8565b503d610776565b61011790610530565b6107a9610520610dc5565b90813b156100e5575f6107bb60405190565b637f918e7f60e01b815233600482015292839060249082905afa91821561059a57610117926107eb575b50610882565b6107fa905f61058c81836101b3565b5f6107e5565b1561080757565b630267437760e61b5f908152600490fd5b6100f5906100e9565b6100f59054610818565b80610103565b905051906101178261082b565b906020828203126100e5576100f591610831565b6100f56100f56100f59290565b1561086657565b6349ba9c8160e01b5f908152600490fd5b610117915f91610670565b61089361088e82610dd1565b610800565b6108a66108a18260336105d8565b610821565b906108b361052083610503565b9060206108bf60405190565b6316d3df1560e31b815292839060049082905afa90811561059a5761090361073092610922945f9161094d575b506108fd6108f95f610852565b9190565b1461085f565b6109175f6109128360336105d8565b610877565b610520816034610e81565b907f0fa1e4606af435f32f05b3804033d2933e691fab32ee74d2db6fa82d2741f1ea61076160405190565b61096f915060203d602011610975575b61096781836101b3565b81019061083e565b5f6108ec565b503d61095d565b6101179061079e565b9061011791610992610f12565b90610117916109a081610fe8565b610ff1565b9061011791610985565b6100f5906109bb61109f565b6109e9565b6100f57f360894a13ba1a3210667c828492db98dca3e2076cc3735a920a3ca505d382bbc610852565b506100f56109c0565b6100f55f6109af565b6100f561110b565b90610a1c610a12610369845490565b925f5260205f2090565b905f5b818110610a2c5750505090565b909192610a59610a52600192610a4187610821565b6001600160a01b0316815260200190565b9460010190565b929101610a1f565b906100f591610a03565b90610117610a8592610a7c60405190565b93848092610a61565b03836101b3565b6100f590610a6b565b6100f56034610a8c565b6100f590610dd1565b610520610ab69161051a5f90565b6020610ac160405190565b918290632af6a2a760e21b5b825260049082905afa90811561059a575f91610ae7575090565b6100f5915060203d6020116109755761096781836101b3565b6100f55f610821565b6100f59060401c60ff1690565b6100f59054610b09565b6100f5905b67ffffffffffffffff1690565b6100f59054610b20565b610b256100f56100f59290565b9067ffffffffffffffff906105f9565b610b256100f56100f59267ffffffffffffffff1690565b90610b806100f561061a92610b59565b8254610b49565b9068ff00000000000000009060401b6105f9565b90610bab6100f561061a92151590565b8254610b87565b61012d90610b3c565b6020810192916101179190610bb2565b7ff0c57e16840df040f15088dc2f81fe391c3923bec73e23a9662efc9c229c6a0080610c02610bfc61070883610b16565b91610b32565b92610c0c5f610b3c565b67ffffffffffffffff85161480610d0a575b600194610c3b610c2d87610b3c565b9167ffffffffffffffff1690565b149081610ce6575b155b9081610cdd575b50610ccc57610c759082610c6c5f610c6388610b3c565b96019586610b70565b610cbd57610d11565b610c7d575050565b7fc7f505b2f371ae2175ee4913f4499e1f2633a7b5936321eed1cdaeb6115181d291610cac5f610cb893610b9b565b60405191829182610bbb565b0390a1565b610cc78585610b9b565b610d11565b63f92ee8a960e01b5f908152600490fd5b1590505f610c4c565b9050610c45610cf430610503565b3b610d016108f95f610852565b14919050610c43565b5081610c1e565b610d1a90611128565b610117611139565b61011790610bcb565b610520610d399161051a5f90565b6020610d4460405190565b9182906316d3df1560e31b610acd565b6100e96100f56100f59290565b6100f590610d54565b15610d725750565b63c02219d960e01b5f9081526001600160a01b039091166004526024035ffd5b6100f590610520610da76108a18360336105d8565b91610db46100e95f610d61565b6001600160a01b0384161415610d6a565b6100f56105205f610821565b6108a1610de791610ddf5f90565b5060336105d8565b610e03610df66100e95f610d61565b916001600160a01b031690565b141590565b6100f5916008021c6100e9565b906100f59154610e08565b634e487b7160e01b5f52601160045260245ffd5b91908203918211610e4157565b610e20565b634e487b7160e01b5f52603160045260245ffd5b80548015610e7c575f190190610e79610e738383610632565b90610877565b55565b610e46565b610e8a5f610852565b610e956100f5835490565b811015610f0d57610eaf610ea98284610632565b90610e15565b610ec16001600160a01b038516610df6565b14610ece57600101610e8a565b6101179250610f08906106b1610f01610ea9610efb610eeb875490565b610ef56001610852565b90610e34565b86610632565b9184610632565b610e5a565b505050565b610f1b30610503565b7f000000000000000000000000000000000000000000000000000000000000000090610f4f6001600160a01b038316610df6565b14908115610f70575b50610f5f57565b63703e46dd60e11b5f908152600490fd5b9050610f8d610df6610f80611141565b926001600160a01b031690565b14155f610f58565b50610fa1610520610dc5565b803b156100e5575f610fb260405190565b633c8c73ad60e01b815233600482015291829060249082905afa801561059a57610fd95750565b610117905f61058c81836101b3565b61011790610f95565b91610ffe61052084610503565b91602061100a60405190565b6352d1902d60e01b815293849060049082905afa5f938161107e575b5061104957634c9c8ce360e01b5f9081526001600160a01b038516600452602490fd5b9091926110576100f56109c0565b840361106857610117929350611156565b632a87526960e21b5f9081526004859052602490fd5b61109891945060203d6020116109755761096781836101b3565b925f611026565b6110a830610503565b6110da6001600160a01b037f000000000000000000000000000000000000000000000000000000000000000016610df6565b03610f5f57565b6110eb600c61041d565b6b2722ac2a2fab22a929a4a7a760a11b602082015290565b6100f56110e1565b6100f5611103565b6101179061111f6111c0565b61011790611201565b61011790611113565b6101176111c0565b610117611131565b6100f55f6111506100f56109c0565b01610821565b906111608261120a565b61116982610503565b7fbc7cd75a20ee27fd9adebab32041f755214dbc6bffa90cc0225b39da2e5c2d3b61119360405190565b5f90a280516111a46108f95f610852565b11156111b6576111b391611293565b50565b5050610117611253565b6111cb6107086112b9565b6111d157565b631afcd79f60e31b5f908152600490fd5b610117906111ee6111c0565b610117906111fb816112fa565b5f610603565b610117906111e2565b803b6112186108f95f610852565b1461123357610117905f61122d6100f56109c0565b01610603565b634c9c8ce360e01b5f9081526001600160a01b039091166004526024035ffd5b61125c5f610852565b341161126457565b63b398979f60e01b5f908152600490fd5b3d1561128e576112843d61041d565b903d5f602084013e565b606090565b5f806100f5936112a1606090565b50602081519101845af46112b3611275565b91611314565b6100f57ff0c57e16840df040f15088dc2f81fe391c3923bec73e23a9662efc9c229c6a00610b16565b156112e957565b63f6b2911f60e01b5f908152600490fd5b6101179061130d610df66100e95f610d61565b14156112e2565b9061131f5750611371565b815161132d6108f95f610852565b148061135c575b61133c575090565b639996b31560e01b5f9081526001600160a01b039091166004526024035ffd5b50803b61136b6108f95f610852565b14611334565b805161137f6108f95f610852565b111561138d57805190602001fd5b630a12f52160e11b5f908152600490fdfea2646970667358221220bbc1b741227096d6774afc5955e176359ec3a506dffce13fe4604b2f47b7b9d964736f6c634300081c0033","linkReferences":{}},"methodIdentifiers":{"UPGRADE_INTERFACE_VERSION()":"ad3cb1cc","addAsset(address)":"298410e5","getAssets()":"67e4ac2c","getConfig()":"c3f909d4","getVault(address)":"0eb9af38","getVaultBalance(address)":"d3d7c002","getVaultDepositLimit(address)":"b854007b","hasAsset(address)":"a567fb47","initialize(address)":"c4d66de8","proxiableUUID()":"52d1902d","removeAsset(address)":"4a5e42b1","upgradeToAndCall(address,bytes)":"4f1ef286","version()":"54fd4d50"},"storageLayout":{"storage":[{"astId":58051,"contract":"test/mock/upgradeability/AssetRegistryUpgraded.sol:AssetRegistryUpgraded","label":"configAddress","offset":0,"slot":"0","type":"t_address"},{"astId":58056,"contract":"test/mock/upgradeability/AssetRegistryUpgraded.sol:AssetRegistryUpgraded","label":"__gap","offset":0,"slot":"1","type":"t_array(t_uint256)50_storage"},{"astId":58024,"contract":"test/mock/upgradeability/AssetRegistryUpgraded.sol:AssetRegistryUpgraded","label":"assetToVault","offset":0,"slot":"51","type":"t_mapping(t_address,t_address)"},{"astId":58028,"contract":"test/mock/upgradeability/AssetRegistryUpgraded.sol:AssetRegistryUpgraded","label":"assets","offset":0,"slot":"52","type":"t_array(t_address)dyn_storage"},{"astId":58033,"contract":"test/mock/upgradeability/AssetRegistryUpgraded.sol:AssetRegistryUpgraded","label":"__gap","offset":0,"slot":"53","type":"t_array(t_uint256)50_storage"}],"types":{"t_address":{"encoding":"inplace","label":"address","numberOfBytes":"20"},"t_array(t_address)dyn_storage":{"encoding":"dynamic_array","label":"address[]","numberOfBytes":"32","base":"t_address"},"t_array(t_uint256)50_storage":{"encoding":"inplace","label":"uint256[50]","numberOfBytes":"1600","base":"t_uint256"},"t_mapping(t_address,t_address)":{"encoding":"mapping","key":"t_address","label":"mapping(address => address)","numberOfBytes":"32","value":"t_address"},"t_uint256":{"encoding":"inplace","label":"uint256","numberOfBytes":"32"}}},"id":172}