{"abi":[{"type":"constructor","inputs":[{"name":"kernelConfig_","type":"address","internalType":"contract IKernelConfig"},{"name":"asset_","type":"address","internalType":"contract IERC20Demo"}],"stateMutability":"nonpayable"},{"type":"function","name":"stake","inputs":[{"name":"amount","type":"uint256","internalType":"uint256"},{"name":"actorIndexSeed","type":"uint256","internalType":"uint256"}],"outputs":[],"stateMutability":"nonpayable"},{"type":"function","name":"stakeNative","inputs":[{"name":"amount","type":"uint256","internalType":"uint256"},{"name":"actorIndexSeed","type":"uint256","internalType":"uint256"}],"outputs":[],"stateMutability":"nonpayable"},{"type":"function","name":"unstake","inputs":[{"name":"amount","type":"uint256","internalType":"uint256"},{"name":"actorIndexSeed","type":"uint256","internalType":"uint256"}],"outputs":[],"stateMutability":"nonpayable"},{"type":"function","name":"unstakeNative","inputs":[{"name":"amount","type":"uint256","internalType":"uint256"},{"name":"actorIndexSeed","type":"uint256","internalType":"uint256"}],"outputs":[],"stateMutability":"nonpayable"},{"type":"function","name":"vaultToBalance","inputs":[{"name":"","type":"address","internalType":"address"}],"outputs":[{"name":"","type":"uint256","internalType":"uint256"}],"stateMutability":"view"}],"bytecode":{"object":"0x60806040523461002b5761001a6100146100d0565b90610306565b60405161125a6105e1823961125a90f35b5f80fd5b634e487b7160e01b5f52604160045260245ffd5b90601f01601f191681019081106001600160401b0382111761006457604052565b61002f565b9061007d61007660405190565b9283610043565b565b6001600160a01b031690565b90565b6001600160a01b0381165b0361002b57565b9050519061007d8261008e565b919060408382031261002b5761008b9060206100c982866100a0565b94016100a0565b6100ee61183b803803806100e381610069565b9283398101906100ad565b9091565b906001600160a01b03905b9181191691161790565b61008b9061007f906001600160a01b031682565b61008b90610107565b61008b9061011b565b9061013d61008b61014492610124565b82546100f2565b9055565b6001600160a01b038116610099565b9050519061007d82610148565b9060208282031261002b5761008b91610157565b6040513d5f823e3d90fd5b61008b61008b61008b9290565b6001600160401b03811161006457602090601f01601f19160190565b0190565b906101c26101bd83610190565b610069565b918252565b6101d160046101b0565b63666f6f2d60e01b602082015290565b61008b6101c7565b915f1960089290920291821b911b6100fd565b919061020d61008b61014493610183565b9083546101e9565b61007d915f916101fc565b81811061022b575050565b806102385f600193610215565b01610220565b91909182821061024d57505050565b61007d929161026090915f5260205f2090565b9182019101610220565b90680100000000000000008111610064578161028761007d935490565b9082815561023e565b8151916001600160401b038311610064576102c46102ba6001926102b4868661026a565b60200190565b925f5260205f2090565b9204915f5b8381106102d65750505050565b60019060206102ef61008b86516001600160a01b031690565b94019381840155016102c9565b9061007d91610290565b61031a9061031581601161012d565b610124565b9061032460405190565b636dfc203160e11b8152602081600481865afa9081156103f85761035a91610353915f916103c9575b50610124565b601261012d565b602061036560405190565b631a02bb0d60e11b815292839060049082905afa80156103f85761039661039d916103a4945f916103c95750610124565b601361012d565b601461012d565b61007d6103c26103b46032610183565b6103bc6101e1565b90610512565b60156102fc565b6103eb915060203d6020116103f1575b6103e38183610043565b810190610164565b5f61034d565b503d6103d9565b610178565b6001600160401b0381116100645760208091020190565b906101c26101bd836103fd565b369037565b9061007d61043c61043684610414565b936103fd565b601f190160208401610421565b6101ac816020939052565b90825f9392825e0152565b6101ac61047792602092610471815190565b94859290565b93849101610454565b61048e9061008b939261045f565b9061045f565b6104b4929161007d916104a660405190565b948592602084019283610480565b90810382520383610043565b61008b9161045f565b61008b90610183565b61007f61008b61008b9290565b634e487b7160e01b5f52603260045260245ffd5b906104fc825190565b81101561050d576020809102010190565b6104df565b919061051d83610426565b916105275f610183565b845b8110156105d9576105d2610529916105cc6105b46105af6105aa61057661057061055260405190565b61008b81602081016105648b82610449565b90810382520382610043565b8a610494565b61059261058260405190565b80926105646020830191826104c0565b6105a461059d825190565b9160200190565b206104c9565b6104d2565b61011b565b6105be83896104f3565b906001600160a01b03169052565b60010190565b9050610527565b509250509056fe60806040526004361015610011575f80fd5b5f3560e01c80630838cabd1461006057806375c06cbf1461005b5780637b0472f01461005657806395294a471461005157639e2c8a5b03610065576101c9565b61019e565b6100e3565b6100ca565b6100a7565b5f80fd5b805b0361006557565b9050359061007f82610069565b565b9190604083820312610065576100a490602061009d8286610072565b9401610072565b90565b34610065576100c06100ba366004610081565b906106d0565b60405180805b0390f35b34610065576100c06100dd366004610081565b90610865565b34610065576100c06100f6366004610081565b90610ad8565b6001600160a01b031690565b6001600160a01b03811661006b565b9050359061007f82610108565b90602082820312610065576100a491610117565b6100a4906100fc906001600160a01b031682565b6100a490610138565b6100a49061014c565b9061016890610155565b5f5260205260405f2090565b6100a4916008021c81565b906100a49154610174565b5f6101996100a492601761015e565b61017f565b34610065576100c66101b96101b4366004610124565b61018a565b6040519182918290815260200190565b34610065576100c06101dc366004610081565b90610bf8565b6100a46100a46100a49290565b634e487b7160e01b5f52601160045260245ffd5b9190820391821161021057565b6101ef565b634e487b7160e01b5f52603260045260245ffd5b8054821015610249576102416001915f5260205f2090565b910201905f90565b610215565b6100a4916008021c6100fc565b906100a4915461024e565b906001600160a01b03905b9181191691161790565b9061028b6100a461029292610155565b8254610266565b9055565b6100a4906101e2565b6100fc6100a46100a49290565b6100a46102e06102db7f885cb69240a935d632d79c317109709ecfa91a80626ff3989d68f67f5b1dd12d610296565b61029f565b61014c565b6100a46102f06102ac565b610155565b6100a4906100fc565b6100a490546102f5565b634e487b7160e01b5f52604160045260245ffd5b90601f01601f1916810190811067ffffffffffffffff82111761033e57604052565b610308565b5f91031261006557565b6040513d5f823e3d90fd5b6103a361039c61039661038f61038061037060155490565b61037a60016101e2565b90610203565b6103895f6101e2565b87610c74565b6015610229565b9061025b565b601661027b565b6103ae6102f06102e5565b916103b960166102fe565b91833b15610065575f6103f5936103cf60405190565b9485918291906303223eab60e11b5b83526001600160a01b031660048301526024820190565b038183885af192831561045c5761041193610461575b506104f6565b803b15610065575f61042260405190565b6390c5013b60e01b8152918290600490829084905af1801561045c576104455750565b61007f905f610454818361031c565b810190610343565b61034d565b610470905f610454818361031c565b5f61040b565b9050519061007f82610108565b90602082820312610065576100a491610476565b6001600160a01b03909116815260408101929161007f9160200152565b0190565b6100a49081565b6100a490546104b8565b9190820180921161021057565b905f1990610271565b906104ef6100a4610292926101e2565b82546104d6565b90506105056102f060116102fe565b6356fa50d091602061051660405190565b80936105228660e01b90565b825260049082905afa90811561045c57610543925f926106af575b50610cd5565b61054e6102f06102e5565b61055860166102fe565b90803b1561006557825f91610590938361057160405190565b80968195829461058563c88a5e6d60e01b90565b845260048401610497565b03925af1801561045c5761069a575b506105ad6102f060136102fe565b9163c412056b92803b15610065576105d3935f916105ca60405190565b95869260e01b90565b8252602060048301525f6024830152604490829086905af190811561045c5761061893602092610685575b5061060c6102f060116102fe565b60405194859260e01b90565b825260049082905afa801561045c576106416106509161007f945f91610656575b50601761015e565b9161064b836104bf565b6104c9565b906104df565b610678915060203d60201161067e575b610670818361031c565b810190610483565b5f610639565b503d610666565b610694905f610454818361031c565b5f6105fe565b6106a9905f610454818361031c565b5f61059f565b6106c991925060203d60201161067e57610670818361031c565b905f61053d565b9061007f91610358565b6106f261039c61039661038f61038061037060155490565b6106fd6102f06102e5565b9161070860166102fe565b91833b15610065575f61071e936103cf60405190565b038183885af192831561045c576104119361073a575b5061074f565b610749905f610454818361031c565b5f610734565b905061075e6102f060116102fe565b6356fa50d091602061076f60405190565b809361077b8660e01b90565b825260049082905afa801561045c576107a6925f91610846575b506107a060166102fe565b91610e5b565b6107b36102f060136102fe565b91823b15610065575f6107c560405190565b634693cf0760e01b815260048101849052604060248201525f6044820152938490606490829084905af190811561045c5761080f93602092610685575061060c6102f060116102fe565b825260049082905afa801561045c576108376106509161007f945f916106565750601761015e565b91610841836104bf565b610203565b61085f915060203d60201161067e57610670818361031c565b5f610795565b9061007f916106da565b61088761039c61039661038f61038061037060155490565b6108926102f06102e5565b9161089d60166102fe565b91833b15610065575f6108b3936103cf60405190565b038183885af192831561045c57610411936108cf575b50610945565b6108de905f610454818361031c565b5f6108c9565b80151561006b565b9050519061007f826108e4565b90602082820312610065576100a4916108ec565b6109346100a49361092d60608401945f8501906001600160a01b03169052565b6020830152565b60408183039101525f815260200190565b61095d91506109576102f060146102fe565b90610cd5565b61096a6102f060146102fe565b61097460166102fe565b90803b1561006557825f916109a1938361098d60405190565b8096819582946105856340c10f1960e01b90565b03925af1801561045c57610ac3575b506109ef6020826109c46102f060146102fe565b6109d16102f060136102fe565b5f6109db60405190565b80968195829461058563095ea7b360e01b90565b03925af1801561045c57610a96575b50610a0c6102f060136102fe565b90610a1a6102f060146102fe565b91803b1561006557815f91610a529483610a3360405190565b809781958294610a47634df4256660e01b90565b84526004840161090d565b03925af191821561045c5761007f92610a81575b50610650610641610a7a6102f060146102fe565b601761015e565b610a90905f610454818361031c565b5f610a66565b610ab79060203d602011610abc575b610aaf818361031c565b8101906108f9565b6109fe565b503d610aa5565b610ad2905f610454818361031c565b5f6109b0565b9061007f9161086f565b610afa61039c61039661038f61038061037060155490565b610b056102f06102e5565b91610b1060166102fe565b91833b15610065575f610b26936103cf60405190565b038183885af192831561045c5761041193610b42575b50610b57565b610b51905f610454818361031c565b5f610b3c565b610b739150610b696102f060146102fe565b6107a060166102fe565b610b806102f060136102fe565b90610b8e6102f060146102fe565b91803b1561006557815f91610bbb9483610ba760405190565b809781958294610a4763f91daa3360e01b90565b03925af191821561045c5761007f92610be3575b50610650610837610a7a6102f060146102fe565b610bf2905f610454818361031c565b5f610bcf565b9061007f91610ae2565b9061007f610c0f60405190565b928361031c565b67ffffffffffffffff811161033e57602090601f01601f19160190565b90610c45610c4083610c16565b610c02565b918252565b610c54600c610c33565b6b109bdd5b99081c995cdd5b1d60a21b602082015290565b6100a4610c4a565b610c7f929190610ef7565b9061007f82610c8c610c6c565b6110af565b9050519061007f82610069565b90602082820312610065576100a491610c91565b634e487b7160e01b5f52601260045260245ffd5b8115610cd0570490565b610cb2565b610ce06102f06102e5565b91610cea60405190565b9063c1978d1f60e01b825260208280610d376004820160208082526017908201527f464f554e4452595f494e56415249414e545f4445505448000000000000000000604082015260600190565b0381875afa90811561045c57610d76925f92610e39575b50602090610d5f6102f060126102fe565b6040519485928391829163b854007b60e01b6103de565b03915afa91821561045c575f92610e08575b508082101593803b1561006557610dc4945f91610da460405190565b96879283918291632631f2b160e11b5b8352151560048301526024820190565b03915afa91821561045c576100a494610de293610df3575b50610cc6565b90610ded60016101e2565b90610c74565b610e02905f610454818361031c565b5f610ddc565b610e2b91925060203d602011610e32575b610e23818361031c565b810190610c9e565b905f610d88565b503d610e19565b6020919250610e5490823d8411610e3257610e23818361031c565b9190610d4e565b906100a492610de291610e6b5f90565b506110f0565b15610e7857565b60405162461bcd60e51b815260206004820152603e60248201527f5374645574696c7320626f756e642875696e743235362c75696e743235362c7560448201527f696e74323536293a204d6178206973206c657373207468616e206d696e2e00006064820152608490fd5b6100a45f196101e2565b8115610cd0570690565b5f90610f0584841115610e71565b8281101580611045575b61103e57610f30610f208486610203565b610f2a60016101e2565b906104c9565b91610f3b60036101e2565b82111580611035575b61102757610f50610ee3565b610f666100a4610f6060036101e2565b83610203565b83101580611012575b611000575084821115610fb4575090610f8b84610f9093610203565b610eed565b91610f9a5f6101e2565b8314610fae57506100a491610370916104c9565b91505090565b94939190838110610fc6575b50505050565b83949550610f8b90610fd89394610203565b91610fe25f6101e2565b8314610fae5750610ff691610f2091610203565b905f808080610fc0565b90506100a494935061037a9250610203565b506110206100a48483610203565b8411610f6f565b509190506100a492506104c9565b50818311610f44565b9250505090565b5083811115610f0f565b90825f9392825e0152565b61107b6110846020936104b49361106f815190565b80835293849260200190565b9586910161104f565b601f01601f191690565b929160206110aa61007f9360408701908782035f89015261105a565b940152565b906110eb61007f926110dc6110c360405190565b632d839cb360e21b60208201529384926024840161108e565b6020820181038252038261031c565b6111d5565b611141916020916111046102f060136102fe565b9061110e60405190565b80958194829361112263f7888aec60e01b90565b84526001600160a01b0390811660048501521660248301526044820190565b03915afa90811561045c575f916111b6575b5061115f6102f06102e5565b6111685f6101e2565b821190803b1561006557611195915f9161118160405190565b93849283918291632631f2b160e11b610db4565b03915afa801561045c576111a7575090565b6100a4905f610454818361031c565b6111cf915060203d602011610e3257610e23818361031c565b5f611153565b61007f906001611214565b5f80916111eb815190565b906020016a636f6e736f6c652e6c6f675afa50565b634e487b7160e01b5f52605160045260245ffd5b6001036112005761007f906111e056fea264697066735822122078d1894afe06074e874b6c7e4645cc0928ff4198efff2bc8df96a2013d9dccaf64736f6c634300081c0033","linkReferences":{}},"methodIdentifiers":{"stake(uint256,uint256)":"7b0472f0","stakeNative(uint256,uint256)":"0838cabd","unstake(uint256,uint256)":"9e2c8a5b","unstakeNative(uint256,uint256)":"75c06cbf","vaultToBalance(address)":"95294a47"},"storageLayout":{"storage":[{"astId":1189,"contract":"test/Invariants/Handlers/StakerGatewayHandler.sol:StakerGatewayHandler","label":"stdstore","offset":0,"slot":"0","type":"t_struct(StdStorage)8674_storage"},{"astId":4721,"contract":"test/Invariants/Handlers/StakerGatewayHandler.sol:StakerGatewayHandler","label":"gasMeteringOff","offset":0,"slot":"8","type":"t_bool"},{"astId":6758,"contract":"test/Invariants/Handlers/StakerGatewayHandler.sol:StakerGatewayHandler","label":"stdstore","offset":0,"slot":"9","type":"t_struct(StdStorage)8674_storage"},{"astId":64262,"contract":"test/Invariants/Handlers/StakerGatewayHandler.sol:StakerGatewayHandler","label":"kernelConfig","offset":0,"slot":"17","type":"t_contract(IKernelConfig)60249"},{"astId":64265,"contract":"test/Invariants/Handlers/StakerGatewayHandler.sol:StakerGatewayHandler","label":"assetRegistry","offset":0,"slot":"18","type":"t_contract(IAssetRegistry)60075"},{"astId":64268,"contract":"test/Invariants/Handlers/StakerGatewayHandler.sol:StakerGatewayHandler","label":"stakerGateway","offset":0,"slot":"19","type":"t_contract(IStakerGateway)60436"},{"astId":64271,"contract":"test/Invariants/Handlers/StakerGatewayHandler.sol:StakerGatewayHandler","label":"asset","offset":0,"slot":"20","type":"t_contract(IERC20Demo)67858"},{"astId":64274,"contract":"test/Invariants/Handlers/StakerGatewayHandler.sol:StakerGatewayHandler","label":"actors","offset":0,"slot":"21","type":"t_array(t_address)dyn_storage"},{"astId":64276,"contract":"test/Invariants/Handlers/StakerGatewayHandler.sol:StakerGatewayHandler","label":"currentActor","offset":0,"slot":"22","type":"t_address"},{"astId":64280,"contract":"test/Invariants/Handlers/StakerGatewayHandler.sol:StakerGatewayHandler","label":"vaultToBalance","offset":0,"slot":"23","type":"t_mapping(t_address,t_uint256)"}],"types":{"t_address":{"encoding":"inplace","label":"address","numberOfBytes":"20"},"t_array(t_address)dyn_storage":{"encoding":"dynamic_array","label":"address[]","numberOfBytes":"32","base":"t_address"},"t_array(t_bytes32)dyn_storage":{"encoding":"dynamic_array","label":"bytes32[]","numberOfBytes":"32","base":"t_bytes32"},"t_bool":{"encoding":"inplace","label":"bool","numberOfBytes":"1"},"t_bytes32":{"encoding":"inplace","label":"bytes32","numberOfBytes":"32"},"t_bytes4":{"encoding":"inplace","label":"bytes4","numberOfBytes":"4"},"t_bytes_storage":{"encoding":"bytes","label":"bytes","numberOfBytes":"32"},"t_contract(IAssetRegistry)60075":{"encoding":"inplace","label":"contract IAssetRegistry","numberOfBytes":"20"},"t_contract(IERC20Demo)67858":{"encoding":"inplace","label":"contract IERC20Demo","numberOfBytes":"20"},"t_contract(IKernelConfig)60249":{"encoding":"inplace","label":"contract IKernelConfig","numberOfBytes":"20"},"t_contract(IStakerGateway)60436":{"encoding":"inplace","label":"contract IStakerGateway","numberOfBytes":"20"},"t_mapping(t_address,t_mapping(t_bytes4,t_mapping(t_bytes32,t_struct(FindData)8649_storage)))":{"encoding":"mapping","key":"t_address","label":"mapping(address => mapping(bytes4 => mapping(bytes32 => struct FindData)))","numberOfBytes":"32","value":"t_mapping(t_bytes4,t_mapping(t_bytes32,t_struct(FindData)8649_storage))"},"t_mapping(t_address,t_uint256)":{"encoding":"mapping","key":"t_address","label":"mapping(address => uint256)","numberOfBytes":"32","value":"t_uint256"},"t_mapping(t_bytes32,t_struct(FindData)8649_storage)":{"encoding":"mapping","key":"t_bytes32","label":"mapping(bytes32 => struct FindData)","numberOfBytes":"32","value":"t_struct(FindData)8649_storage"},"t_mapping(t_bytes4,t_mapping(t_bytes32,t_struct(FindData)8649_storage))":{"encoding":"mapping","key":"t_bytes4","label":"mapping(bytes4 => mapping(bytes32 => struct FindData))","numberOfBytes":"32","value":"t_mapping(t_bytes32,t_struct(FindData)8649_storage)"},"t_struct(FindData)8649_storage":{"encoding":"inplace","label":"struct FindData","numberOfBytes":"128","members":[{"astId":8642,"contract":"test/Invariants/Handlers/StakerGatewayHandler.sol:StakerGatewayHandler","label":"slot","offset":0,"slot":"0","type":"t_uint256"},{"astId":8644,"contract":"test/Invariants/Handlers/StakerGatewayHandler.sol:StakerGatewayHandler","label":"offsetLeft","offset":0,"slot":"1","type":"t_uint256"},{"astId":8646,"contract":"test/Invariants/Handlers/StakerGatewayHandler.sol:StakerGatewayHandler","label":"offsetRight","offset":0,"slot":"2","type":"t_uint256"},{"astId":8648,"contract":"test/Invariants/Handlers/StakerGatewayHandler.sol:StakerGatewayHandler","label":"found","offset":0,"slot":"3","type":"t_bool"}]},"t_struct(StdStorage)8674_storage":{"encoding":"inplace","label":"struct StdStorage","numberOfBytes":"256","members":[{"astId":8658,"contract":"test/Invariants/Handlers/StakerGatewayHandler.sol:StakerGatewayHandler","label":"finds","offset":0,"slot":"0","type":"t_mapping(t_address,t_mapping(t_bytes4,t_mapping(t_bytes32,t_struct(FindData)8649_storage)))"},{"astId":8661,"contract":"test/Invariants/Handlers/StakerGatewayHandler.sol:StakerGatewayHandler","label":"_keys","offset":0,"slot":"1","type":"t_array(t_bytes32)dyn_storage"},{"astId":8663,"contract":"test/Invariants/Handlers/StakerGatewayHandler.sol:StakerGatewayHandler","label":"_sig","offset":0,"slot":"2","type":"t_bytes4"},{"astId":8665,"contract":"test/Invariants/Handlers/StakerGatewayHandler.sol:StakerGatewayHandler","label":"_depth","offset":0,"slot":"3","type":"t_uint256"},{"astId":8667,"contract":"test/Invariants/Handlers/StakerGatewayHandler.sol:StakerGatewayHandler","label":"_target","offset":0,"slot":"4","type":"t_address"},{"astId":8669,"contract":"test/Invariants/Handlers/StakerGatewayHandler.sol:StakerGatewayHandler","label":"_set","offset":0,"slot":"5","type":"t_bytes32"},{"astId":8671,"contract":"test/Invariants/Handlers/StakerGatewayHandler.sol:StakerGatewayHandler","label":"_enable_packed_slots","offset":0,"slot":"6","type":"t_bool"},{"astId":8673,"contract":"test/Invariants/Handlers/StakerGatewayHandler.sol:StakerGatewayHandler","label":"_calldata","offset":0,"slot":"7","type":"t_bytes_storage"}]},"t_uint256":{"encoding":"inplace","label":"uint256","numberOfBytes":"32"}}},"id":146}