{"abi":[{"type":"function","name":"createChainSpecificProxyWithNonce","inputs":[{"name":"_singleton","type":"address","internalType":"address"},{"name":"initializer","type":"bytes","internalType":"bytes"},{"name":"saltNonce","type":"uint256","internalType":"uint256"}],"outputs":[{"name":"proxy","type":"address","internalType":"contract SafeProxy"}],"stateMutability":"nonpayable"},{"type":"function","name":"createProxyWithCallback","inputs":[{"name":"_singleton","type":"address","internalType":"address"},{"name":"initializer","type":"bytes","internalType":"bytes"},{"name":"saltNonce","type":"uint256","internalType":"uint256"},{"name":"callback","type":"address","internalType":"contract IProxyCreationCallback"}],"outputs":[{"name":"proxy","type":"address","internalType":"contract SafeProxy"}],"stateMutability":"nonpayable"},{"type":"function","name":"createProxyWithNonce","inputs":[{"name":"_singleton","type":"address","internalType":"address"},{"name":"initializer","type":"bytes","internalType":"bytes"},{"name":"saltNonce","type":"uint256","internalType":"uint256"}],"outputs":[{"name":"proxy","type":"address","internalType":"contract SafeProxy"}],"stateMutability":"nonpayable"},{"type":"function","name":"getChainId","inputs":[],"outputs":[{"name":"","type":"uint256","internalType":"uint256"}],"stateMutability":"view"},{"type":"function","name":"proxyCreationCode","inputs":[],"outputs":[{"name":"","type":"bytes","internalType":"bytes"}],"stateMutability":"pure"},{"type":"event","name":"ProxyCreation","inputs":[{"name":"proxy","type":"address","indexed":true,"internalType":"contract SafeProxy"},{"name":"singleton","type":"address","indexed":false,"internalType":"address"}],"anonymous":false}],"bytecode":{"object":"0x608060405234601957604051610a2361001e8239610a2390f35b5f80fdfe60806040526004361015610011575f80fd5b5f3560e01c80631688f0b9146100605780633408e4701461005b57806353e5d93514610056578063d18af54d146100515763ec9e80bb036100655761034a565b61032b565b610299565b61022e565b6101f8565b5f80fd5b6001600160a01b031690565b90565b6001600160a01b0381165b0361006557565b9050359061009782610078565b565b634e487b7160e01b5f52604160045260245ffd5b90601f01601f1916810190811067ffffffffffffffff8211176100cf57604052565b610099565b906100976100e160405190565b92836100ad565b67ffffffffffffffff81116100cf57602090601f01601f19160190565b0190565b90825f939282370152565b90929192610129610124826100e8565b6100d4565b938185528183011161006557610097916020850190610109565b9080601f830112156100655781602061007593359101610114565b80610083565b905035906100978261015e565b909160608284031261006557610187838361008a565b9260208301359067ffffffffffffffff82116100655760406101ae82610075948701610143565b9401610164565b61007590610069906001600160a01b031682565b610075906101b5565b610075906101c9565b6101e4906101d2565b9052565b60208101929161009791906101db565b346100655761022061021461020e366004610171565b9161036c565b604051918291826101e8565b0390f35b5f91031261006557565b346100655761023e366004610224565b604051468152602090f35b90825f9392825e0152565b61027561027e60209361010593610269815190565b80835293849260200190565b95869101610249565b601f01601f191690565b602080825261007592910190610254565b34610065576102a9366004610224565b6102206102b461041f565b60405191829182610288565b6001600160a01b038116610083565b90503590610097826102c0565b608081830312610065576102f0828261008a565b92602082013567ffffffffffffffff81116100655761031484610075928501610143565b9360606103248260408701610164565b94016102cf565b34610065576102206102146103413660046102dc565b929190916104d2565b3461006557610220610214610360366004610171565b916105b6565b01918252565b9291906103a56103b16103cb936103805f90565b5083516020850120604051938492602084019283602081610366610105938396959052565b908103825203826100ad565b6103c36103bc825190565b9160200190565b2090846106cc565b917f4f51faf6c4561ff95f067657e43439f0f856d97c04d9ec9070a6199ad418e23561041a6103f9856101d2565b9261040360405190565b918291826001600160a01b03909116815260200190565b0390a2565b61024161042e602082016100d4565b908082526107ad602083013990565b6104496101e4916101d2565b60601b90565b01809261043d565b6100756100756100759290565b61007590610457565b6100696100756100759290565b6100759061046d565b949391606091610097946104b56104c2936104a560808b01945f8c01906101db565b6001600160a01b031660208a0152565b8782036040890152610254565b940152565b6040513d5f823e3d90fd5b9293929061051d6105166104e560405190565b61050581602081016103a58b8a8360208161044f61010593601496959052565b6105106103bc825190565b20610464565b828461036c565b9161052883966101d2565b906105356100695f61047a565b6001600160a01b0383160361054c575b5050505050565b813b15610065575f809461057c61056260405190565b978896879586946303ca56a360e31b865260048601610483565b03925af180156105b157610594575b80808080610545565b6105ab905f6105a381836100ad565b810190610224565b5f61058b565b6104c7565b92916103cb91906103b16105c8835190565b60208401209146926103a56105dc60405190565b602080820193845290958694610105908390610366828882565b156105fd57565b60405162461bcd60e51b815260206004820152601f60248201527f53696e676c65746f6e20636f6e7472616374206e6f74206465706c6f796564006044820152606490fd5b6100759081906001600160a01b031681565b61010561066c92602092610666815190565b94859290565b93849101610249565b6106856101059160209493610654565b918252565b1561069157565b60405162461bcd60e51b815260206004820152601360248201527210dc99585d194c8818d85b1b0819985a5b1959606a1b6044820152606490fd5b6107346103a591949392946106de5f90565b506106f06106eb8261079b565b6105f6565b61071c61071761024192610706602085016100d4565b938085526107ad60208601396101c9565b610642565b9061072660405190565b938492602084019283610675565b8051906020015ff59161076c610749846101d2565b6107656107586100695f61047a565b916001600160a01b031690565b141561068a565b805161077e61077a5f610457565b9190565b116107865750565b5f80826020829451910182875af11461006557565b3b6107a861077a5f610457565b119056fe608060405234610028576100196100146100bd565b61019e565b60405160786101c98239607890f35b5f80fd5b634e487b7160e01b5f52604160045260245ffd5b90601f01601f191681019081106001600160401b0382111761006157604052565b61002c565b9061007a61007360405190565b9283610040565b565b6001600160a01b031690565b90565b6001600160a01b0381160361002857565b9050519061007a8261008b565b90602082820312610028576100889161009c565b610088610241803803806100d081610066565b9283398101906100a9565b61007c6100886100889290565b610088906100db565b156100f857565b60405162461bcd60e51b815260206004820152602260248201527f496e76616c69642073696e676c65746f6e20616464726573732070726f766964604482015261195960f21b6064820152608490fd5b6100889061007c906001600160a01b031682565b61008890610148565b6100889061015c565b9061017e61008861019a92610165565b82546001600160a01b0319166001600160a01b03919091161790565b9055565b61007a906101c26101b161007c5f6100e8565b6001600160a01b03831614156100f1565b5f61016e56fe60806040525f80546001600160a01b0316903563530ca43760e11b14603b575f808092368280378136915af43d82803e146037573d5ff35b3d5ffd5b5f5260205ff3fea2646970667358221220e82e8b0ab03a9c7715c49d177f7a5bd56c86bef245be7af6b415cd293612c28264736f6c634300081c0033a2646970667358221220a368b639da77c4b0945a25bcab26d4a41abc64ce1337b1c7b62512deaed7b0dc64736f6c634300081c0033","linkReferences":{}},"methodIdentifiers":{"createChainSpecificProxyWithNonce(address,bytes,uint256)":"ec9e80bb","createProxyWithCallback(address,bytes,uint256,address)":"d18af54d","createProxyWithNonce(address,bytes,uint256)":"1688f0b9","getChainId()":"3408e470","proxyCreationCode()":"53e5d935"},"storageLayout":{"storage":[],"types":{}},"id":94}