{"abi":[{"type":"function","name":"sortWallets","inputs":[{"name":"wallets","type":"tuple[]","internalType":"struct VmSafe.Wallet[]","components":[{"name":"addr","type":"address","internalType":"address"},{"name":"publicKeyX","type":"uint256","internalType":"uint256"},{"name":"publicKeyY","type":"uint256","internalType":"uint256"},{"name":"privateKey","type":"uint256","internalType":"uint256"}]}],"outputs":[{"name":"","type":"tuple[]","internalType":"struct VmSafe.Wallet[]","components":[{"name":"addr","type":"address","internalType":"address"},{"name":"publicKeyX","type":"uint256","internalType":"uint256"},{"name":"publicKeyY","type":"uint256","internalType":"uint256"},{"name":"privateKey","type":"uint256","internalType":"uint256"}]}],"stateMutability":"pure"}],"bytecode":{"object":"0x608060405234601d5760405161048561002282393081505061048590f35b5f80fdfe60806040526004361015610011575f80fd5b5f3560e01c63f5456ac114610262575b5f80fd5b634e487b7160e01b5f52604160045260245ffd5b90601f01601f1916810190811067ffffffffffffffff82111761005b57604052565b610025565b9061007461006d60405190565b9283610039565b565b67ffffffffffffffff811161005b5760208091020190565b90565b6001600160a01b0381165b0361002157565b9050359061007482610091565b8061009c565b90503590610074826100b0565b9190608083820312610021576101169060606100df6080610060565b946100ea83826100a3565b86526100f983602083016100b6565b602087015261010b83604083016100b6565b6040870152016100b6565b6060830152565b9092919261013261012d82610076565b610060565b93818552608060208601920283019281841161002157915b8383106101575750505050565b602060809161016684866100c3565b81520192019161014a565b9080601f830112156100215781602061008e9335910161011d565b9060208282031261002157813567ffffffffffffffff81116100215761008e9201610171565b80516001600160a01b03168252610074919060609081906101d860208201516020860152565b6101e760408201516040860152565b0151910152565b906101fb816080936101b2565b0190565b9061021f61021861020e845190565b8084529260200190565b9260200190565b905f5b81811061022f5750505090565b90919261024961024260019286516101ee565b9460200190565b929101610222565b602080825261008e929101906101ff565b61028461027861027336600461018c565b6102fb565b60405191829182610251565b0390f35b61008e61008e61008e9290565b634e487b7160e01b5f52601160045260245ffd5b919082039182116102b657565b610295565b634e487b7160e01b5f52603260045260245ffd5b906102d8825190565b8110156102e9576020809102010190565b6102bb565b919082018092116102b657565b908151916103085f610288565b600161031f61008e61031983610288565b876102a9565b82101561044857806103305f610288565b905b610341575b5050600101610308565b61036061008e61035185896102a9565b61035a85610288565b906102a9565b811015610443576103d2816103895f61037a8695896102cf565b5101516001600160a01b031690565b6103c76103ba6103ae5f61037a6103a86103a28a610288565b886102ee565b8c6102cf565b6001600160a01b031690565b916001600160a01b031690565b116103d85760010190565b90610332565b61043c6103e582886102cf565b516104016103fb6103f587610288565b856102ee565b896102cf565b5161040c848a6102cf565b5261041783896102cf565b5061042a61042486610288565b846102ee565b90610435828a6102cf565b52876102cf565b5060010190565b610337565b509092505056fea2646970667358221220a4334ab66f1188ef00273f21273a2cfa3a2bb988c70c0899592b1fcb60d465f264736f6c634300081c0033","linkReferences":{}},"methodIdentifiers":{"sortWallets(VmSafe.Wallet[])":"f5456ac1"},"storageLayout":{"storage":[],"types":{}},"id":2}